{
  "contractName": "ChainConfig",
  "abi": [
    {
      "inputs": [
        {
          "internalType": "contract IStaking",
          "name": "stakingContract",
          "type": "address"
        },
        {
          "internalType": "contract ISlashingIndicator",
          "name": "slashingIndicatorContract",
          "type": "address"
        },
        {
          "internalType": "contract ISystemReward",
          "name": "systemRewardContract",
          "type": "address"
        },
        {
          "internalType": "contract IStakingPool",
          "name": "stakingPoolContract",
          "type": "address"
        },
        {
          "internalType": "contract IGovernance",
          "name": "governanceContract",
          "type": "address"
        },
        {
          "internalType": "contract IChainConfig",
          "name": "chainConfigContract",
          "type": "address"
        },
        {
          "internalType": "contract IRuntimeUpgrade",
          "name": "runtimeUpgradeContract",
          "type": "address"
        },
        {
          "internalType": "contract IDeployerProxy",
          "name": "deployerProxyContract",
          "type": "address"
        }
      ],
      "stateMutability": "nonpayable",
      "type": "constructor"
    },
    {
      "inputs": [
        {
          "internalType": "uint64",
          "name": "blockNumber",
          "type": "uint64"
        }
      ],
      "name": "OnlyBlock",
      "type": "error"
    },
    {
      "inputs": [
        {
          "internalType": "address",
          "name": "coinbase",
          "type": "address"
        }
      ],
      "name": "OnlyCoinbase",
      "type": "error"
    },
    {
      "inputs": [],
      "name": "OnlyGovernance",
      "type": "error"
    },
    {
      "inputs": [],
      "name": "OnlySlashingIndicator",
      "type": "error"
    },
    {
      "anonymous": false,
      "inputs": [
        {
          "indexed": false,
          "internalType": "uint32",
          "name": "prevValue",
          "type": "uint32"
        },
        {
          "indexed": false,
          "internalType": "uint32",
          "name": "newValue",
          "type": "uint32"
        }
      ],
      "name": "ActiveValidatorsLengthChanged",
      "type": "event"
    },
    {
      "anonymous": false,
      "inputs": [
        {
          "indexed": false,
          "internalType": "bool",
          "name": "preValue",
          "type": "bool"
        },
        {
          "indexed": false,
          "internalType": "bool",
          "name": "newValue",
          "type": "bool"
        }
      ],
      "name": "EnableDelegateChanged",
      "type": "event"
    },
    {
      "anonymous": false,
      "inputs": [
        {
          "indexed": false,
          "internalType": "uint32",
          "name": "prevValue",
          "type": "uint32"
        },
        {
          "indexed": false,
          "internalType": "uint32",
          "name": "newValue",
          "type": "uint32"
        }
      ],
      "name": "EpochBlockIntervalChanged",
      "type": "event"
    },
    {
      "anonymous": false,
      "inputs": [
        {
          "indexed": false,
          "internalType": "uint32",
          "name": "prevValue",
          "type": "uint32"
        },
        {
          "indexed": false,
          "internalType": "uint32",
          "name": "newValue",
          "type": "uint32"
        }
      ],
      "name": "FelonyThresholdChanged",
      "type": "event"
    },
    {
      "anonymous": false,
      "inputs": [
        {
          "indexed": false,
          "internalType": "address",
          "name": "freeGasAddress",
          "type": "address"
        }
      ],
      "name": "FreeGasAddressAdded",
      "type": "event"
    },
    {
      "anonymous": false,
      "inputs": [
        {
          "indexed": false,
          "internalType": "address",
          "name": "oldFreeGasAddressAdmin",
          "type": "address"
        },
        {
          "indexed": false,
          "internalType": "address",
          "name": "newFreeGasAddressAdmin",
          "type": "address"
        }
      ],
      "name": "FreeGasAddressAdminChanged",
      "type": "event"
    },
    {
      "anonymous": false,
      "inputs": [
        {
          "indexed": false,
          "internalType": "address",
          "name": "freeGasAddress",
          "type": "address"
        }
      ],
      "name": "FreeGasAddressRemoved",
      "type": "event"
    },
    {
      "anonymous": false,
      "inputs": [
        {
          "indexed": false,
          "internalType": "uint32",
          "name": "prevValue",
          "type": "uint32"
        },
        {
          "indexed": false,
          "internalType": "uint32",
          "name": "newValue",
          "type": "uint32"
        }
      ],
      "name": "FreeGasAddressSizeChanged",
      "type": "event"
    },
    {
      "anonymous": false,
      "inputs": [
        {
          "indexed": false,
          "internalType": "uint8",
          "name": "version",
          "type": "uint8"
        }
      ],
      "name": "Initialized",
      "type": "event"
    },
    {
      "anonymous": false,
      "inputs": [
        {
          "indexed": false,
          "internalType": "uint256",
          "name": "prevValue",
          "type": "uint256"
        },
        {
          "indexed": false,
          "internalType": "uint256",
          "name": "newValue",
          "type": "uint256"
        }
      ],
      "name": "MinStakingAmountChanged",
      "type": "event"
    },
    {
      "anonymous": false,
      "inputs": [
        {
          "indexed": false,
          "internalType": "uint256",
          "name": "prevValue",
          "type": "uint256"
        },
        {
          "indexed": false,
          "internalType": "uint256",
          "name": "newValue",
          "type": "uint256"
        }
      ],
      "name": "MinValidatorStakeAmountChanged",
      "type": "event"
    },
    {
      "anonymous": false,
      "inputs": [
        {
          "indexed": false,
          "internalType": "uint32",
          "name": "prevValue",
          "type": "uint32"
        },
        {
          "indexed": false,
          "internalType": "uint32",
          "name": "newValue",
          "type": "uint32"
        }
      ],
      "name": "MisdemeanorThresholdChanged",
      "type": "event"
    },
    {
      "anonymous": false,
      "inputs": [
        {
          "indexed": false,
          "internalType": "uint32",
          "name": "prevValue",
          "type": "uint32"
        },
        {
          "indexed": false,
          "internalType": "uint32",
          "name": "newValue",
          "type": "uint32"
        }
      ],
      "name": "UndelegatePeriodChanged",
      "type": "event"
    },
    {
      "anonymous": false,
      "inputs": [
        {
          "indexed": false,
          "internalType": "uint32",
          "name": "prevValue",
          "type": "uint32"
        },
        {
          "indexed": false,
          "internalType": "uint32",
          "name": "newValue",
          "type": "uint32"
        }
      ],
      "name": "ValidatorJailEpochLengthChanged",
      "type": "event"
    },
    {
      "inputs": [],
      "name": "freeGasAddressAdmin",
      "outputs": [
        {
          "internalType": "address",
          "name": "",
          "type": "address"
        }
      ],
      "stateMutability": "view",
      "type": "function"
    },
    {
      "inputs": [],
      "name": "freeGasAddressSize",
      "outputs": [
        {
          "internalType": "uint32",
          "name": "",
          "type": "uint32"
        }
      ],
      "stateMutability": "view",
      "type": "function"
    },
    {
      "inputs": [],
      "name": "init",
      "outputs": [],
      "stateMutability": "nonpayable",
      "type": "function"
    },
    {
      "inputs": [],
      "name": "isInitialized",
      "outputs": [
        {
          "internalType": "bool",
          "name": "",
          "type": "bool"
        }
      ],
      "stateMutability": "view",
      "type": "function"
    },
    {
      "inputs": [
        {
          "internalType": "bytes[]",
          "name": "data",
          "type": "bytes[]"
        }
      ],
      "name": "multicall",
      "outputs": [
        {
          "internalType": "bytes[]",
          "name": "results",
          "type": "bytes[]"
        }
      ],
      "stateMutability": "nonpayable",
      "type": "function"
    },
    {
      "inputs": [
        {
          "internalType": "bytes",
          "name": "delayedInitializer",
          "type": "bytes"
        }
      ],
      "name": "useDelayedInitializer",
      "outputs": [],
      "stateMutability": "nonpayable",
      "type": "function"
    },
    {
      "inputs": [
        {
          "internalType": "uint32",
          "name": "activeValidatorsLength",
          "type": "uint32"
        },
        {
          "internalType": "uint32",
          "name": "epochBlockInterval",
          "type": "uint32"
        },
        {
          "internalType": "uint32",
          "name": "misdemeanorThreshold",
          "type": "uint32"
        },
        {
          "internalType": "uint32",
          "name": "felonyThreshold",
          "type": "uint32"
        },
        {
          "internalType": "uint32",
          "name": "validatorJailEpochLength",
          "type": "uint32"
        },
        {
          "internalType": "uint32",
          "name": "undelegatePeriod",
          "type": "uint32"
        },
        {
          "internalType": "uint256",
          "name": "minValidatorStakeAmount",
          "type": "uint256"
        },
        {
          "internalType": "uint256",
          "name": "minStakingAmount",
          "type": "uint256"
        },
        {
          "internalType": "address",
          "name": "_freeGasAddressAdmin",
          "type": "address"
        }
      ],
      "name": "initialize",
      "outputs": [],
      "stateMutability": "nonpayable",
      "type": "function"
    },
    {
      "inputs": [],
      "name": "getActiveValidatorsLength",
      "outputs": [
        {
          "internalType": "uint32",
          "name": "",
          "type": "uint32"
        }
      ],
      "stateMutability": "view",
      "type": "function"
    },
    {
      "inputs": [
        {
          "internalType": "uint32",
          "name": "newValue",
          "type": "uint32"
        }
      ],
      "name": "setActiveValidatorsLength",
      "outputs": [],
      "stateMutability": "nonpayable",
      "type": "function"
    },
    {
      "inputs": [],
      "name": "getEpochBlockInterval",
      "outputs": [
        {
          "internalType": "uint32",
          "name": "",
          "type": "uint32"
        }
      ],
      "stateMutability": "view",
      "type": "function"
    },
    {
      "inputs": [
        {
          "internalType": "uint32",
          "name": "newValue",
          "type": "uint32"
        }
      ],
      "name": "setEpochBlockInterval",
      "outputs": [],
      "stateMutability": "nonpayable",
      "type": "function"
    },
    {
      "inputs": [],
      "name": "getMisdemeanorThreshold",
      "outputs": [
        {
          "internalType": "uint32",
          "name": "",
          "type": "uint32"
        }
      ],
      "stateMutability": "view",
      "type": "function"
    },
    {
      "inputs": [
        {
          "internalType": "uint32",
          "name": "newValue",
          "type": "uint32"
        }
      ],
      "name": "setMisdemeanorThreshold",
      "outputs": [],
      "stateMutability": "nonpayable",
      "type": "function"
    },
    {
      "inputs": [],
      "name": "getFelonyThreshold",
      "outputs": [
        {
          "internalType": "uint32",
          "name": "",
          "type": "uint32"
        }
      ],
      "stateMutability": "view",
      "type": "function"
    },
    {
      "inputs": [
        {
          "internalType": "uint32",
          "name": "newValue",
          "type": "uint32"
        }
      ],
      "name": "setFelonyThreshold",
      "outputs": [],
      "stateMutability": "nonpayable",
      "type": "function"
    },
    {
      "inputs": [],
      "name": "getValidatorJailEpochLength",
      "outputs": [
        {
          "internalType": "uint32",
          "name": "",
          "type": "uint32"
        }
      ],
      "stateMutability": "view",
      "type": "function"
    },
    {
      "inputs": [
        {
          "internalType": "uint32",
          "name": "newValue",
          "type": "uint32"
        }
      ],
      "name": "setValidatorJailEpochLength",
      "outputs": [],
      "stateMutability": "nonpayable",
      "type": "function"
    },
    {
      "inputs": [],
      "name": "getUndelegatePeriod",
      "outputs": [
        {
          "internalType": "uint32",
          "name": "",
          "type": "uint32"
        }
      ],
      "stateMutability": "view",
      "type": "function"
    },
    {
      "inputs": [
        {
          "internalType": "uint32",
          "name": "newValue",
          "type": "uint32"
        }
      ],
      "name": "setUndelegatePeriod",
      "outputs": [],
      "stateMutability": "nonpayable",
      "type": "function"
    },
    {
      "inputs": [],
      "name": "getMinValidatorStakeAmount",
      "outputs": [
        {
          "internalType": "uint256",
          "name": "",
          "type": "uint256"
        }
      ],
      "stateMutability": "view",
      "type": "function"
    },
    {
      "inputs": [
        {
          "internalType": "uint256",
          "name": "newValue",
          "type": "uint256"
        }
      ],
      "name": "setMinValidatorStakeAmount",
      "outputs": [],
      "stateMutability": "nonpayable",
      "type": "function"
    },
    {
      "inputs": [],
      "name": "getMinStakingAmount",
      "outputs": [
        {
          "internalType": "uint256",
          "name": "",
          "type": "uint256"
        }
      ],
      "stateMutability": "view",
      "type": "function"
    },
    {
      "inputs": [
        {
          "internalType": "uint256",
          "name": "newValue",
          "type": "uint256"
        }
      ],
      "name": "setMinStakingAmount",
      "outputs": [],
      "stateMutability": "nonpayable",
      "type": "function"
    },
    {
      "inputs": [
        {
          "internalType": "address",
          "name": "_freeGasAddressAdmin",
          "type": "address"
        }
      ],
      "name": "setFreeGasAddressAdmin",
      "outputs": [],
      "stateMutability": "nonpayable",
      "type": "function"
    },
    {
      "inputs": [
        {
          "internalType": "uint32",
          "name": "_freeGasAddressSize",
          "type": "uint32"
        }
      ],
      "name": "setFreeGasAddressSize",
      "outputs": [],
      "stateMutability": "nonpayable",
      "type": "function"
    },
    {
      "inputs": [
        {
          "internalType": "address",
          "name": "freeGasAddress",
          "type": "address"
        }
      ],
      "name": "addFreeGasAddress",
      "outputs": [],
      "stateMutability": "nonpayable",
      "type": "function"
    },
    {
      "inputs": [
        {
          "internalType": "address",
          "name": "freeGasAddress",
          "type": "address"
        }
      ],
      "name": "removeFreeGasAddress",
      "outputs": [],
      "stateMutability": "nonpayable",
      "type": "function"
    },
    {
      "inputs": [],
      "name": "getFreeGasAddressList",
      "outputs": [
        {
          "internalType": "address[]",
          "name": "",
          "type": "address[]"
        }
      ],
      "stateMutability": "view",
      "type": "function"
    },
    {
      "inputs": [],
      "name": "getSizeOfFreeGasAddressList",
      "outputs": [
        {
          "internalType": "uint256",
          "name": "",
          "type": "uint256"
        }
      ],
      "stateMutability": "view",
      "type": "function"
    },
    {
      "inputs": [
        {
          "internalType": "address",
          "name": "freeGasAddress",
          "type": "address"
        }
      ],
      "name": "isFreeGasAddress",
      "outputs": [
        {
          "internalType": "bool",
          "name": "",
          "type": "bool"
        }
      ],
      "stateMutability": "view",
      "type": "function"
    },
    {
      "inputs": [],
      "name": "getEnableDelegate",
      "outputs": [
        {
          "internalType": "bool",
          "name": "",
          "type": "bool"
        }
      ],
      "stateMutability": "view",
      "type": "function"
    },
    {
      "inputs": [
        {
          "internalType": "bool",
          "name": "newValue",
          "type": "bool"
        }
      ],
      "name": "setEnableDelegate",
      "outputs": [],
      "stateMutability": "nonpayable",
      "type": "function"
    }
  ],
  "bytecode": "0x6101806040523480156200001257600080fd5b506040516200202738038062002027833981016040819052620000359162000179565b6001600160a01b0380891660805280881660a05280871660c05280861660e05280851661010052808416610120528083166101405281166101605287878787878787876200008262000098565b5050505050505050505050505050505062000288565b620000a460ff620000a7565b50565b60008054610100900460ff161562000110578160ff166001148015620000e05750620000de306200015460201b6200110b1760201c565b155b620001085760405162461bcd60e51b8152600401620000ff906200023a565b60405180910390fd5b506000919050565b60005460ff8084169116106200013a5760405162461bcd60e51b8152600401620000ff906200023a565b506000805460ff191660ff92909216919091179055600190565b6001600160a01b03163b151590565b6001600160a01b0381168114620000a457600080fd5b600080600080600080600080610100898b0312156200019757600080fd5b8851620001a48162000163565b60208a0151909850620001b78162000163565b60408a0151909750620001ca8162000163565b60608a0151909650620001dd8162000163565b60808a0151909550620001f08162000163565b60a08a0151909450620002038162000163565b60c08a0151909350620002168162000163565b60e08a0151909250620002298162000163565b809150509295985092959890939650565b6020808252602e908201527f496e697469616c697a61626c653a20636f6e747261637420697320616c72656160408201526d191e481a5b9a5d1a585b1a5e995960921b606082015260800190565b60805160a05160c05160e05161010051610120516101405161016051611d086200031f60003960005050600050506000505060008181610427015281816108bf015281816109e301528181610b6e01528181610c1201528181610cec01528181610d3e01528181610de201528181610e8601528181610fe80152611072015260005050600050506000505060005050611d086000f3fe608060405234801561001057600080fd5b50600436106101805760003560e01c8063275660b81461018557806332cc6f08146101b3578063346c90a8146101d2578063392e53cd146101e757806341d8a080146101fd57806342b838521461021257806346947a97146102255780634abff7511461023c5780635e7b72ad14610247578063612d669e1461025c578063693e8ba61461026f5780636cbe6cd8146102825780636f85684714610297578063731bce76146102a9578063846fe044146102b157806388978652146102c65780639dbf97db146102f15780639f1c29ee14610306578063ac9650d814610319578063af70fa2c14610339578063be1997381461034c578063c227a41214610361578063c529d2f314610374578063c63b564f14610387578063c8652bd51461039a578063d98e3ebf146103ad578063e1a2e863146103c0578063e1c7392a146103d3578063e4f7f0c1146103db578063eea9a01b146103ee578063f98cbb3c146103f6578063fcd6cb3e14610409575b600080fd5b60675461019d9061010090046001600160a01b031681565b6040516101aa9190611739565b60405180910390f35b60645463ffffffff165b60405163ffffffff90911681526020016101aa565b606454600160201b900463ffffffff166101bd565b60005415155b60405190151581526020016101aa565b61021061020b366004611761565b61041c565b005b61021061022036600461179a565b6104cc565b6067546101bd90600160a81b900463ffffffff1681565b60675460ff166101ed565b606454600160a01b900463ffffffff166101bd565b61021061026a366004611834565b6108b4565b61021061027d36600461184d565b61093b565b606454600160801b900463ffffffff166101bd565b6065545b6040519081526020016101aa565b60685461029b565b6102b9610976565b6040516101aa9190611868565b6101ed6102d436600461184d565b6001600160a01b0316600090815260696020526040902054151590565b606454600160401b900463ffffffff166101bd565b6102106103143660046118b5565b6109d8565b61032c6103273660046118d7565b610a70565b6040516101aa919061197b565b610210610347366004611761565b610b63565b606454600160601b900463ffffffff166101bd565b61021061036f366004611761565b610c07565b610210610382366004611a0b565b610c9d565b610210610395366004611761565b610ce1565b6102106103a8366004611761565b610d33565b6102106103bb366004611761565b610dd7565b6102106103ce366004611834565b610e7b565b610210610f02565b6102106103e936600461184d565b610fdd565b60665461029b565b61021061040436600461184d565b61102f565b610210610417366004611761565b611067565b336001600160a01b037f00000000000000000000000000000000000000000000000000000000000000001614610465576040516354348f0360e01b815260040160405180910390fd5b6064805463ffffffff838116600160a01b90810263ffffffff60a01b198416179093556040519290910416907fb191e5acbef9e4b8ce0f17af112f8984f92833324657b89fe39768885f81b6ce906104c09083908590611abb565b60405180910390a15050565b60006104d8600161111a565b905080156104f0576000805461ff0019166101001790555b6064805463ffffffff191663ffffffff8c161790556040517f1c4cfc6dcf4219ed649285020aedf5d064480d1acdf4b8c75b397abd5910f40c90610538906000908d90611abb565b60405180910390a16064805463ffffffff60201b1916600160201b63ffffffff8c16021790556040517f33c8012b0f51f8c1a1e525ea046da837d0eb4fa7473cd863e0bfb73a4f475a5a90610591906000908c90611abb565b60405180910390a16064805463ffffffff60401b1916600160401b63ffffffff8b16021790556040517f5aa72ebd12c45515403eef36583106e321b8707946a6ae621f5f393ee0c9677b906105ea906000908b90611abb565b60405180910390a16064805463ffffffff60601b1916600160601b63ffffffff8a16021790556040517f67da1e9c07e7b373ed5e18cc8355caf6dfe18ab4472ec575600a2172772c620490610643906000908a90611abb565b60405180910390a16064805463ffffffff60801b1916600160801b63ffffffff8916021790556040517f0a677ce4509bf46fe9bdf65c86abe71921755a78494111b1caa25df328ffcd1c9061069c906000908990611abb565b60405180910390a16064805463ffffffff60a01b1916600160a01b63ffffffff8816021790556040517fb191e5acbef9e4b8ce0f17af112f8984f92833324657b89fe39768885f81b6ce906106f5906000908890611abb565b60405180910390a160658490556040805160008152602081018690527f207082661d623a88e041ad2d52c2d4ddc719880c70c3ab44aa81accff9bd86ed910160405180910390a160668390556040805160008152602081018590527f973f438cb6bc47d284033b6113687c6087f4fb7a3395b03597578ae1259bf23c910160405180910390a16067805463ffffffff60a81b1916601960aa1b1790556040517f7ce62e0d6d41cb7739470e1706c9ec055abb7c7be82ef3b6a1328607484da643906107c590600090606490611abb565b60405180910390a16001600160a01b0382166107fc5760405162461bcd60e51b81526004016107f390611ad2565b60405180910390fd5b60678054610100600160a81b0319166101006001600160a01b03858116820292909217928390556040517f5ad95aa742f255b86bfdb0f7e2fbb09791727220f93d5edfedaf2da75440c3de9361085a93929004909116908590611af8565b60405180910390a180156108a8576000805461ff0019169055604051600181527f7f26b83ff96e1f2b6a682f133852f6798a09c465da95921460cefb38474024989060200160405180910390a15b50505050505050505050565b336001600160a01b037f000000000000000000000000000000000000000000000000000000000000000016146108fd576040516354348f0360e01b815260040160405180910390fd5b606680549082905560408051828152602081018490527f973f438cb6bc47d284033b6113687c6087f4fb7a3395b03597578ae1259bf23c91016104c0565b60675461010090046001600160a01b0316331461096a5760405162461bcd60e51b81526004016107f390611b12565b610973816111ae565b50565b606060688054806020026020016040519081016040528092919081815260200182805480156109ce57602002820191906000526020600020905b81546001600160a01b031681526001909101906020018083116109b0575b5050505050905090565b336001600160a01b037f00000000000000000000000000000000000000000000000000000000000000001614610a21576040516354348f0360e01b815260040160405180910390fd5b6067805482151560ff19821681179092556040805160ff909216801515835260208301939093527f635d474abd1943b11560b90c002a9fb54cb3d97511a50b2b0fdc8c94eaabd9bc91016104c0565b6060816001600160401b03811115610a8a57610a8a6119f5565b604051908082528060200260200182016040528015610abd57816020015b6060815260200190600190039081610aa85790505b50905060005b82811015610b5c57610b2c848483818110610ae057610ae0611b57565b9050602002810190610af29190611b6d565b8080601f01602080910402602001604051908101604052809392919081815260200183838082843760009201919091525061131d92505050565b828281518110610b3e57610b3e611b57565b60200260200101819052508080610b5490611bd0565b915050610ac3565b5092915050565b336001600160a01b037f00000000000000000000000000000000000000000000000000000000000000001614610bac576040516354348f0360e01b815260040160405180910390fd5b6064805463ffffffff838116600160201b90810263ffffffff60201b198416179093556040519290910416907f33c8012b0f51f8c1a1e525ea046da837d0eb4fa7473cd863e0bfb73a4f475a5a906104c09083908590611abb565b336001600160a01b037f00000000000000000000000000000000000000000000000000000000000000001614610c50576040516354348f0360e01b815260040160405180910390fd5b6064805463ffffffff83811663ffffffff198316179092556040519116907f1c4cfc6dcf4219ed649285020aedf5d064480d1acdf4b8c75b397abd5910f40c906104c09083908590611abb565b60004315610cc9576040516344f1a1fb60e01b81526001600160401b03821660048201526024016107f3565b8151610cdc9060019060208501906116a0565b505050565b336001600160a01b037f00000000000000000000000000000000000000000000000000000000000000001614610d2a576040516354348f0360e01b815260040160405180910390fd5b6109738161139b565b336001600160a01b037f00000000000000000000000000000000000000000000000000000000000000001614610d7c576040516354348f0360e01b815260040160405180910390fd5b6064805463ffffffff838116600160801b90810263ffffffff60801b198416179093556040519290910416907f0a677ce4509bf46fe9bdf65c86abe71921755a78494111b1caa25df328ffcd1c906104c09083908590611abb565b336001600160a01b037f00000000000000000000000000000000000000000000000000000000000000001614610e20576040516354348f0360e01b815260040160405180910390fd5b6064805463ffffffff838116600160401b90810263ffffffff60401b198416179093556040519290910416907f5aa72ebd12c45515403eef36583106e321b8707946a6ae621f5f393ee0c9677b906104c09083908590611abb565b336001600160a01b037f00000000000000000000000000000000000000000000000000000000000000001614610ec4576040516354348f0360e01b815260040160405180910390fd5b606580549082905560408051828152602081018490527f207082661d623a88e041ad2d52c2d4ddc719880c70c3ab44aa81accff9bd86ed91016104c0565b6001438114610f2f576040516344f1a1fb60e01b81526001600160401b03821660048201526024016107f3565b600060018054610f3e90611be9565b9050111561097357610fd960018054610f5690611be9565b80601f0160208091040260200160405190810160405280929190818152602001828054610f8290611be9565b8015610fcf5780601f10610fa457610100808354040283529160200191610fcf565b820191906000526020600020905b815481529060010190602001808311610fb257829003601f168201915b505050505061131d565b5050565b336001600160a01b037f00000000000000000000000000000000000000000000000000000000000000001614611026576040516354348f0360e01b815260040160405180910390fd5b61097381611444565b60675461010090046001600160a01b0316331461105e5760405162461bcd60e51b81526004016107f390611b12565b6109738161151f565b336001600160a01b037f000000000000000000000000000000000000000000000000000000000000000016146110b0576040516354348f0360e01b815260040160405180910390fd5b6064805463ffffffff838116600160601b90810263ffffffff60601b198416179093556040519290910416907f67da1e9c07e7b373ed5e18cc8355caf6dfe18ab4472ec575600a2172772c6204906104c09083908590611abb565b6001600160a01b03163b151590565b60008054610100900460ff1615611168578160ff16600114801561114457506111423061110b565b155b6111605760405162461bcd60e51b81526004016107f390611c23565b506000919050565b60005460ff80841691161061118f5760405162461bcd60e51b81526004016107f390611c23565b506000805460ff191660ff92909216919091179055600190565b919050565b606754606854600160a81b90910463ffffffff16116112265760405162461bcd60e51b815260206004820152602e60248201527f5468652066726565476173416464726573734c6973742073697a65207265616360448201526d68656420746865206c696d69742160901b60648201526084016107f3565b6001600160a01b038116600090815260696020526040902054156112895760405162461bcd60e51b815260206004820152601a602482015279546865206164647265737320616c72656164792065786973742160301b60448201526064016107f3565b606880546001810182557fa2153420d844928b4421650203c77babc8b33d7f2e7b450e2966db0c220977530180546001600160a01b0319166001600160a01b03841690811790915590546000918252606960205260409182902055517f6032ba13634f3331cd36be5835e6cdf8deb463ac2620e48fbaaaf8fc38b46cd590611312908390611739565b60405180910390a150565b6060600080306001600160a01b03168460405161133a9190611c71565b600060405180830381855af49150503d8060008114611375576040519150601f19603f3d011682016040523d82523d6000602084013e61137a565b606091505b5091509150811561138c579392505050565b80511561018057805181602001fd5b60675463ffffffff808316600160a81b90920416036113e95760405162461bcd60e51b815260206004820152600a60248201526953616d652073697a652160b01b60448201526064016107f3565b6067805463ffffffff838116600160a81b90810263ffffffff60a81b198416179093556040519290910416907f7ce62e0d6d41cb7739470e1706c9ec055abb7c7be82ef3b6a1328607484da643906104c09083908590611abb565b6001600160a01b03811661146a5760405162461bcd60e51b81526004016107f390611ad2565b6067546001600160a01b036101009091048116908216036114bb5760405162461bcd60e51b815260206004820152600b60248201526a53616d652061646d696e2160a81b60448201526064016107f3565b606780546001600160a01b03838116610100908102610100600160a81b031984161793849055604051928190048216937f5ad95aa742f255b86bfdb0f7e2fbb09791727220f93d5edfedaf2da75440c3de936104c093869390920490911690611af8565b6001600160a01b0381166000908152606960205260409020548015610fd957600061154b600183611c8d565b606854909150600110801561156e575060685461156a90600190611c8d565b8114155b1561161557606880546000919061158790600190611c8d565b8154811061159757611597611b57565b600091825260209091200154606880546001600160a01b0390921692508291849081106115c6576115c6611b57565b600091825260209091200180546001600160a01b0319166001600160a01b03929092169190911790556115fa826001611ca4565b6001600160a01b039091166000908152606960205260409020555b606880548061162657611626611cbc565b60008281526020808220830160001990810180546001600160a01b03191690559092019092556001600160a01b038516825260699052604080822091909155517fcf8bfbcb619399a62c785be53c4a3f19416c0a9a311088c4e572f5af6a861cc790611693908590611739565b60405180910390a1505050565b8280546116ac90611be9565b90600052602060002090601f0160209004810192826116ce5760008555611714565b82601f106116e757805160ff1916838001178555611714565b82800160010185558215611714579182015b828111156117145782518255916020019190600101906116f9565b50611720929150611724565b5090565b5b808211156117205760008155600101611725565b6001600160a01b0391909116815260200190565b803563ffffffff811681146111a957600080fd5b60006020828403121561177357600080fd5b61177c8261174d565b9392505050565b80356001600160a01b03811681146111a957600080fd5b60008060008060008060008060006101208a8c0312156117b957600080fd5b6117c28a61174d565b98506117d060208b0161174d565b97506117de60408b0161174d565b96506117ec60608b0161174d565b95506117fa60808b0161174d565b945061180860a08b0161174d565b935060c08a0135925060e08a013591506118256101008b01611783565b90509295985092959850929598565b60006020828403121561184657600080fd5b5035919050565b60006020828403121561185f57600080fd5b61177c82611783565b6020808252825182820181905260009190848201906040850190845b818110156118a95783516001600160a01b031683529284019291840191600101611884565b50909695505050505050565b6000602082840312156118c757600080fd5b8135801515811461177c57600080fd5b600080602083850312156118ea57600080fd5b82356001600160401b038082111561190157600080fd5b818501915085601f83011261191557600080fd5b81358181111561192457600080fd5b8660208260051b850101111561193957600080fd5b60209290920196919550909350505050565b60005b8381101561196657818101518382015260200161194e565b83811115611975576000848401525b50505050565b6000602080830181845280855180835260408601915060408160051b870101925083870160005b828110156119e857878503603f19018452815180518087526119c9818989018a850161194b565b601f01601f1916959095018601945092850192908501906001016119a2565b5092979650505050505050565b634e487b7160e01b600052604160045260246000fd5b600060208284031215611a1d57600080fd5b81356001600160401b0380821115611a3457600080fd5b818401915084601f830112611a4857600080fd5b813581811115611a5a57611a5a6119f5565b604051601f8201601f19908116603f01168101908382118183101715611a8257611a826119f5565b81604052828152876020848701011115611a9b57600080fd5b826020860160208301376000928101602001929092525095945050505050565b63ffffffff92831681529116602082015260400190565b6020808252600c908201526b7a65726f206164647265737360a01b604082015260600190565b6001600160a01b0392831681529116602082015260400190565b60208082526025908201527f6368616e67652066726565476173416464726573734c6973743a206f6e6c792060408201526430b236b4b760d91b606082015260800190565b634e487b7160e01b600052603260045260246000fd5b6000808335601e19843603018112611b8457600080fd5b8301803591506001600160401b03821115611b9e57600080fd5b602001915036819003821315611bb357600080fd5b9250929050565b634e487b7160e01b600052601160045260246000fd5b600060018201611be257611be2611bba565b5060010190565b600181811c90821680611bfd57607f821691505b602082108103611c1d57634e487b7160e01b600052602260045260246000fd5b50919050565b6020808252602e908201527f496e697469616c697a61626c653a20636f6e747261637420697320616c72656160408201526d191e481a5b9a5d1a585b1a5e995960921b606082015260800190565b60008251611c8381846020870161194b565b9190910192915050565b600082821015611c9f57611c9f611bba565b500390565b60008219821115611cb757611cb7611bba565b500190565b634e487b7160e01b600052603160045260246000fdfea26469706673582212204adcf3570e0dc477f885ebc562576eb63f02b6bcb1dc5de7e24405a2cd02dddd64736f6c634300080e0033",
  "immutableReferences": {
    "7327": [
      {
        "length": 32,
        "start": 1063
      },
      {
        "length": 32,
        "start": 2239
      },
      {
        "length": 32,
        "start": 2531
      },
      {
        "length": 32,
        "start": 2926
      },
      {
        "length": 32,
        "start": 3090
      },
      {
        "length": 32,
        "start": 3308
      },
      {
        "length": 32,
        "start": 3390
      },
      {
        "length": 32,
        "start": 3554
      },
      {
        "length": 32,
        "start": 3718
      },
      {
        "length": 32,
        "start": 4072
      },
      {
        "length": 32,
        "start": 4210
      }
    ]
  },
  "source": "// SPDX-License-Identifier: GPL-3.0-only\npragma solidity ^0.8.0;\n\nimport \"./InjectorContextHolder.sol\";\n\ncontract ChainConfig is InjectorContextHolder, IChainConfig {\n\n    event ActiveValidatorsLengthChanged(uint32 prevValue, uint32 newValue);\n    event EpochBlockIntervalChanged(uint32 prevValue, uint32 newValue);\n    event MisdemeanorThresholdChanged(uint32 prevValue, uint32 newValue);\n    event FelonyThresholdChanged(uint32 prevValue, uint32 newValue);\n    event ValidatorJailEpochLengthChanged(uint32 prevValue, uint32 newValue);\n    event UndelegatePeriodChanged(uint32 prevValue, uint32 newValue);\n    event MinValidatorStakeAmountChanged(uint256 prevValue, uint256 newValue);\n    event MinStakingAmountChanged(uint256 prevValue, uint256 newValue);\n    event FreeGasAddressAdded(address freeGasAddress);\n    event FreeGasAddressRemoved(address freeGasAddress);\n    event FreeGasAddressSizeChanged(uint32 prevValue, uint32 newValue);\n    event FreeGasAddressAdminChanged(address oldFreeGasAddressAdmin, address newFreeGasAddressAdmin);\n    event EnableDelegateChanged(bool preValue, bool newValue);\n\n    struct ConsensusParams {\n        uint32 activeValidatorsLength;\n        uint32 epochBlockInterval;\n        uint32 misdemeanorThreshold;\n        uint32 felonyThreshold;\n        uint32 validatorJailEpochLength;\n        uint32 undelegatePeriod;\n        uint256 minValidatorStakeAmount;\n        uint256 minStakingAmount;\n    }\n\n    ConsensusParams private _consensusParams;\n    bool private enableDelegate;\n\n    address public freeGasAddressAdmin;\n    uint32 public freeGasAddressSize;\n    address[] private _freeGasAddressList;\n    mapping(address => uint256) private _freeGasAddressMap;\n\n    constructor(\n        IStaking stakingContract,\n        ISlashingIndicator slashingIndicatorContract,\n        ISystemReward systemRewardContract,\n        IStakingPool stakingPoolContract,\n        IGovernance governanceContract,\n        IChainConfig chainConfigContract,\n        IRuntimeUpgrade runtimeUpgradeContract,\n        IDeployerProxy deployerProxyContract\n    ) InjectorContextHolder(\n        stakingContract,\n        slashingIndicatorContract,\n        systemRewardContract,\n        stakingPoolContract,\n        governanceContract,\n        chainConfigContract,\n        runtimeUpgradeContract,\n        deployerProxyContract\n    ) {\n    }\n\n    function initialize(\n        uint32 activeValidatorsLength,\n        uint32 epochBlockInterval,\n        uint32 misdemeanorThreshold,\n        uint32 felonyThreshold,\n        uint32 validatorJailEpochLength,\n        uint32 undelegatePeriod,\n        uint256 minValidatorStakeAmount,\n        uint256 minStakingAmount,\n        address _freeGasAddressAdmin\n    ) external initializer {\n        _consensusParams.activeValidatorsLength = activeValidatorsLength;\n        emit ActiveValidatorsLengthChanged(0, activeValidatorsLength);\n        _consensusParams.epochBlockInterval = epochBlockInterval;\n        emit EpochBlockIntervalChanged(0, epochBlockInterval);\n        _consensusParams.misdemeanorThreshold = misdemeanorThreshold;\n        emit MisdemeanorThresholdChanged(0, misdemeanorThreshold);\n        _consensusParams.felonyThreshold = felonyThreshold;\n        emit FelonyThresholdChanged(0, felonyThreshold);\n        _consensusParams.validatorJailEpochLength = validatorJailEpochLength;\n        emit ValidatorJailEpochLengthChanged(0, validatorJailEpochLength);\n        _consensusParams.undelegatePeriod = undelegatePeriod;\n        emit UndelegatePeriodChanged(0, undelegatePeriod);\n        _consensusParams.minValidatorStakeAmount = minValidatorStakeAmount;\n        emit MinValidatorStakeAmountChanged(0, minValidatorStakeAmount);\n        _consensusParams.minStakingAmount = minStakingAmount;\n        emit MinStakingAmountChanged(0, minStakingAmount);\n        freeGasAddressSize = 100;\n        emit FreeGasAddressSizeChanged(0, 100);\n        require(_freeGasAddressAdmin != address(0), \"zero address\");\n        freeGasAddressAdmin = _freeGasAddressAdmin;\n        emit FreeGasAddressAdminChanged(freeGasAddressAdmin, _freeGasAddressAdmin);\n    }\n\n    function getActiveValidatorsLength() external view override returns (uint32) {\n        return _consensusParams.activeValidatorsLength;\n    }\n\n    function setActiveValidatorsLength(uint32 newValue) external override onlyFromGovernance {\n        uint32 prevValue = _consensusParams.activeValidatorsLength;\n        _consensusParams.activeValidatorsLength = newValue;\n        emit ActiveValidatorsLengthChanged(prevValue, newValue);\n    }\n\n    function getEpochBlockInterval() external view override returns (uint32) {\n        return _consensusParams.epochBlockInterval;\n    }\n\n    function setEpochBlockInterval(uint32 newValue) external override onlyFromGovernance {\n        uint32 prevValue = _consensusParams.epochBlockInterval;\n        _consensusParams.epochBlockInterval = newValue;\n        emit EpochBlockIntervalChanged(prevValue, newValue);\n    }\n\n    function getMisdemeanorThreshold() external view override returns (uint32) {\n        return _consensusParams.misdemeanorThreshold;\n    }\n\n    function setMisdemeanorThreshold(uint32 newValue) external override onlyFromGovernance {\n        uint32 prevValue = _consensusParams.misdemeanorThreshold;\n        _consensusParams.misdemeanorThreshold = newValue;\n        emit MisdemeanorThresholdChanged(prevValue, newValue);\n    }\n\n    function getFelonyThreshold() external view override returns (uint32) {\n        return _consensusParams.felonyThreshold;\n    }\n\n    function setFelonyThreshold(uint32 newValue) external override onlyFromGovernance {\n        uint32 prevValue = _consensusParams.felonyThreshold;\n        _consensusParams.felonyThreshold = newValue;\n        emit FelonyThresholdChanged(prevValue, newValue);\n    }\n\n    function getValidatorJailEpochLength() external view override returns (uint32) {\n        return _consensusParams.validatorJailEpochLength;\n    }\n\n    function setValidatorJailEpochLength(uint32 newValue) external override onlyFromGovernance {\n        uint32 prevValue = _consensusParams.validatorJailEpochLength;\n        _consensusParams.validatorJailEpochLength = newValue;\n        emit ValidatorJailEpochLengthChanged(prevValue, newValue);\n    }\n\n    function getUndelegatePeriod() external view override returns (uint32) {\n        return _consensusParams.undelegatePeriod;\n    }\n\n    function setUndelegatePeriod(uint32 newValue) external override onlyFromGovernance {\n        uint32 prevValue = _consensusParams.undelegatePeriod;\n        _consensusParams.undelegatePeriod = newValue;\n        emit UndelegatePeriodChanged(prevValue, newValue);\n    }\n\n    function getMinValidatorStakeAmount() external view returns (uint256) {\n        return _consensusParams.minValidatorStakeAmount;\n    }\n\n    function setMinValidatorStakeAmount(uint256 newValue) external override onlyFromGovernance {\n        uint256 prevValue = _consensusParams.minValidatorStakeAmount;\n        _consensusParams.minValidatorStakeAmount = newValue;\n        emit MinValidatorStakeAmountChanged(prevValue, newValue);\n    }\n\n    function getMinStakingAmount() external view returns (uint256) {\n        return _consensusParams.minStakingAmount;\n    }\n\n    function setMinStakingAmount(uint256 newValue) external override onlyFromGovernance {\n        uint256 prevValue = _consensusParams.minStakingAmount;\n        _consensusParams.minStakingAmount = newValue;\n        emit MinStakingAmountChanged(prevValue, newValue);\n    }\n\n\n    function setFreeGasAddressAdmin(address _freeGasAddressAdmin) external onlyFromGovernance virtual override  {\n        _setFreeGasAddressAdmin(_freeGasAddressAdmin);\n    }\n\n    function _setFreeGasAddressAdmin(address _freeGasAddressAdmin) internal {\n        require(_freeGasAddressAdmin != address(0), \"zero address\");\n        require(_freeGasAddressAdmin != freeGasAddressAdmin, \"Same admin!\");\n        address temp = freeGasAddressAdmin;\n        freeGasAddressAdmin = _freeGasAddressAdmin;\n        emit FreeGasAddressAdminChanged(temp, freeGasAddressAdmin);\n    }\n\n    function setFreeGasAddressSize(uint32 _freeGasAddressSize) external onlyFromGovernance virtual override  {\n        _setFreeGasAddressSize(_freeGasAddressSize);\n    }\n\n    function _setFreeGasAddressSize(uint32 _freeGasAddressSize) internal {\n        require(freeGasAddressSize != _freeGasAddressSize, \"Same size!\");\n        uint32 temp = freeGasAddressSize;\n        freeGasAddressSize = _freeGasAddressSize;\n        emit FreeGasAddressSizeChanged(temp, _freeGasAddressSize);\n    }\n\n    function addFreeGasAddress(address freeGasAddress) external onlyFromFreeGasAddressAdmin virtual override {\n        _addFreeGasAddress(freeGasAddress);\n    }\n\n    function _addFreeGasAddress(address freeGasAddress) internal {\n        require(_freeGasAddressList.length < freeGasAddressSize, \"The freeGasAddressList size reached the limit!\");\n        require(_freeGasAddressMap[freeGasAddress] == 0, \"The address already exist!\");\n        _freeGasAddressList.push(freeGasAddress);\n        _freeGasAddressMap[freeGasAddress] = _freeGasAddressList.length;\n        emit FreeGasAddressAdded(freeGasAddress);\n    }\n\n    function removeFreeGasAddress(address freeGasAddress) external onlyFromFreeGasAddressAdmin virtual override {\n        _removeFreeGasAddress(freeGasAddress);\n    }\n\n    function _removeFreeGasAddress(address freeGasAddress) internal {\n        uint256 position = _freeGasAddressMap[freeGasAddress];\n        // remove freeGasAddress\n        if (position > 0) {\n            uint256 indexOf = position - 1;\n            if (_freeGasAddressList.length > 1 && indexOf != _freeGasAddressList.length - 1) {\n                address lastAddress =  _freeGasAddressList[_freeGasAddressList.length - 1];\n                _freeGasAddressList[indexOf] = lastAddress;\n                _freeGasAddressMap[lastAddress] = indexOf + 1;\n            }\n            _freeGasAddressList.pop();\n            delete _freeGasAddressMap[freeGasAddress];\n            emit FreeGasAddressRemoved(freeGasAddress);\n        }\n    }\n\n    function getFreeGasAddressList() external view returns (address[] memory) {\n        return _freeGasAddressList;\n    }\n\n    function getSizeOfFreeGasAddressList() external view returns (uint256) {\n        return _freeGasAddressList.length;\n    }\n\n    function isFreeGasAddress(address freeGasAddress) external view returns (bool) {\n        return _freeGasAddressMap[freeGasAddress] != 0;\n    }\n\n    modifier onlyFromFreeGasAddressAdmin() virtual {\n        require(msg.sender == freeGasAddressAdmin, \"change freeGasAddressList: only admin\");\n        _;\n    }\n\n    function getEnableDelegate() external view returns (bool) {\n        return enableDelegate;\n    }\n\n    function setEnableDelegate(bool newValue) external override onlyFromGovernance {\n        bool prevValue = enableDelegate;\n        enableDelegate = newValue;\n        emit EnableDelegateChanged(prevValue, newValue);\n    }\n}\n",
  "sourcePath": "/Users/user/source/git/bas-genesis-config/contracts/ChainConfig.sol",
  "compiler": {
    "name": "solc",
    "version": "0.8.14+commit.80d49f37.Emscripten.clang"
  },
  "schemaVersion": "3.4.4",
  "updatedAt": "2022-10-09T03:31:57.499Z",
  "devdoc": {
    "kind": "dev",
    "methods": {},
    "version": 1
  },
  "userdoc": {
    "kind": "user",
    "methods": {},
    "version": 1
  }
}