{
  "contractName": "DeployerProxy",
  "abi": [
    {
      "inputs": [
        {
          "internalType": "contract IStaking",
          "name": "stakingContract",
          "type": "address"
        },
        {
          "internalType": "contract ISlashingIndicator",
          "name": "slashingIndicatorContract",
          "type": "address"
        },
        {
          "internalType": "contract ISystemReward",
          "name": "systemRewardContract",
          "type": "address"
        },
        {
          "internalType": "contract IStakingPool",
          "name": "stakingPoolContract",
          "type": "address"
        },
        {
          "internalType": "contract IGovernance",
          "name": "governanceContract",
          "type": "address"
        },
        {
          "internalType": "contract IChainConfig",
          "name": "chainConfigContract",
          "type": "address"
        },
        {
          "internalType": "contract IRuntimeUpgrade",
          "name": "runtimeUpgradeContract",
          "type": "address"
        },
        {
          "internalType": "contract IDeployerProxy",
          "name": "deployerProxyContract",
          "type": "address"
        }
      ],
      "stateMutability": "nonpayable",
      "type": "constructor"
    },
    {
      "inputs": [
        {
          "internalType": "uint64",
          "name": "blockNumber",
          "type": "uint64"
        }
      ],
      "name": "OnlyBlock",
      "type": "error"
    },
    {
      "inputs": [
        {
          "internalType": "address",
          "name": "coinbase",
          "type": "address"
        }
      ],
      "name": "OnlyCoinbase",
      "type": "error"
    },
    {
      "inputs": [],
      "name": "OnlyGovernance",
      "type": "error"
    },
    {
      "inputs": [],
      "name": "OnlySlashingIndicator",
      "type": "error"
    },
    {
      "anonymous": false,
      "inputs": [
        {
          "indexed": true,
          "internalType": "address",
          "name": "account",
          "type": "address"
        },
        {
          "indexed": false,
          "internalType": "address",
          "name": "impl",
          "type": "address"
        }
      ],
      "name": "ContractDeployed",
      "type": "event"
    },
    {
      "anonymous": false,
      "inputs": [
        {
          "indexed": true,
          "internalType": "address",
          "name": "contractAddress",
          "type": "address"
        }
      ],
      "name": "ContractDisabled",
      "type": "event"
    },
    {
      "anonymous": false,
      "inputs": [
        {
          "indexed": true,
          "internalType": "address",
          "name": "contractAddress",
          "type": "address"
        }
      ],
      "name": "ContractEnabled",
      "type": "event"
    },
    {
      "anonymous": false,
      "inputs": [
        {
          "indexed": true,
          "internalType": "address",
          "name": "account",
          "type": "address"
        }
      ],
      "name": "DeployerAdded",
      "type": "event"
    },
    {
      "anonymous": false,
      "inputs": [
        {
          "indexed": true,
          "internalType": "address",
          "name": "account",
          "type": "address"
        }
      ],
      "name": "DeployerBanned",
      "type": "event"
    },
    {
      "anonymous": false,
      "inputs": [
        {
          "indexed": true,
          "internalType": "address",
          "name": "account",
          "type": "address"
        }
      ],
      "name": "DeployerRemoved",
      "type": "event"
    },
    {
      "anonymous": false,
      "inputs": [
        {
          "indexed": true,
          "internalType": "address",
          "name": "account",
          "type": "address"
        }
      ],
      "name": "DeployerUnbanned",
      "type": "event"
    },
    {
      "anonymous": false,
      "inputs": [
        {
          "indexed": false,
          "internalType": "uint8",
          "name": "version",
          "type": "uint8"
        }
      ],
      "name": "Initialized",
      "type": "event"
    },
    {
      "inputs": [],
      "name": "init",
      "outputs": [],
      "stateMutability": "nonpayable",
      "type": "function"
    },
    {
      "inputs": [],
      "name": "isInitialized",
      "outputs": [
        {
          "internalType": "bool",
          "name": "",
          "type": "bool"
        }
      ],
      "stateMutability": "view",
      "type": "function"
    },
    {
      "inputs": [
        {
          "internalType": "bytes[]",
          "name": "data",
          "type": "bytes[]"
        }
      ],
      "name": "multicall",
      "outputs": [
        {
          "internalType": "bytes[]",
          "name": "results",
          "type": "bytes[]"
        }
      ],
      "stateMutability": "nonpayable",
      "type": "function"
    },
    {
      "inputs": [
        {
          "internalType": "bytes",
          "name": "delayedInitializer",
          "type": "bytes"
        }
      ],
      "name": "useDelayedInitializer",
      "outputs": [],
      "stateMutability": "nonpayable",
      "type": "function"
    },
    {
      "inputs": [
        {
          "internalType": "address[]",
          "name": "deployers",
          "type": "address[]"
        }
      ],
      "name": "initialize",
      "outputs": [],
      "stateMutability": "nonpayable",
      "type": "function"
    },
    {
      "inputs": [
        {
          "internalType": "address",
          "name": "account",
          "type": "address"
        }
      ],
      "name": "isDeployer",
      "outputs": [
        {
          "internalType": "bool",
          "name": "",
          "type": "bool"
        }
      ],
      "stateMutability": "view",
      "type": "function"
    },
    {
      "inputs": [
        {
          "internalType": "address",
          "name": "account",
          "type": "address"
        }
      ],
      "name": "isBanned",
      "outputs": [
        {
          "internalType": "bool",
          "name": "",
          "type": "bool"
        }
      ],
      "stateMutability": "view",
      "type": "function"
    },
    {
      "inputs": [
        {
          "internalType": "address",
          "name": "account",
          "type": "address"
        }
      ],
      "name": "addDeployer",
      "outputs": [],
      "stateMutability": "nonpayable",
      "type": "function"
    },
    {
      "inputs": [
        {
          "internalType": "address",
          "name": "account",
          "type": "address"
        }
      ],
      "name": "removeDeployer",
      "outputs": [],
      "stateMutability": "nonpayable",
      "type": "function"
    },
    {
      "inputs": [
        {
          "internalType": "address",
          "name": "account",
          "type": "address"
        }
      ],
      "name": "banDeployer",
      "outputs": [],
      "stateMutability": "nonpayable",
      "type": "function"
    },
    {
      "inputs": [
        {
          "internalType": "address",
          "name": "account",
          "type": "address"
        }
      ],
      "name": "unbanDeployer",
      "outputs": [],
      "stateMutability": "nonpayable",
      "type": "function"
    },
    {
      "inputs": [
        {
          "internalType": "address",
          "name": "contractAddress",
          "type": "address"
        }
      ],
      "name": "getContractState",
      "outputs": [
        {
          "internalType": "uint8",
          "name": "state",
          "type": "uint8"
        },
        {
          "internalType": "address",
          "name": "impl",
          "type": "address"
        },
        {
          "internalType": "address",
          "name": "deployer",
          "type": "address"
        }
      ],
      "stateMutability": "view",
      "type": "function"
    },
    {
      "inputs": [
        {
          "internalType": "address",
          "name": "deployer",
          "type": "address"
        },
        {
          "internalType": "address",
          "name": "impl",
          "type": "address"
        }
      ],
      "name": "registerDeployedContract",
      "outputs": [],
      "stateMutability": "nonpayable",
      "type": "function"
    },
    {
      "inputs": [
        {
          "internalType": "address",
          "name": "impl",
          "type": "address"
        }
      ],
      "name": "checkContractActive",
      "outputs": [],
      "stateMutability": "view",
      "type": "function"
    },
    {
      "inputs": [
        {
          "internalType": "address",
          "name": "impl",
          "type": "address"
        }
      ],
      "name": "disableContract",
      "outputs": [],
      "stateMutability": "nonpayable",
      "type": "function"
    },
    {
      "inputs": [
        {
          "internalType": "address",
          "name": "impl",
          "type": "address"
        }
      ],
      "name": "enableContract",
      "outputs": [],
      "stateMutability": "nonpayable",
      "type": "function"
    }
  ],
  "bytecode": "0x6101806040523480156200001257600080fd5b5060405162001ad738038062001ad7833981016040819052620000359162000179565b6001600160a01b0380891660805280881660a05280871660c05280861660e05280851661010052808416610120528083166101405281166101605287878787878787876200008262000098565b5050505050505050505050505050505062000288565b620000a460ff620000a7565b50565b60008054610100900460ff161562000110578160ff166001148015620000e05750620000de306200015460201b6200080b1760201c565b155b620001085760405162461bcd60e51b8152600401620000ff906200023a565b60405180910390fd5b506000919050565b60005460ff8084169116106200013a5760405162461bcd60e51b8152600401620000ff906200023a565b506000805460ff191660ff92909216919091179055600190565b6001600160a01b03163b151590565b6001600160a01b0381168114620000a457600080fd5b600080600080600080600080610100898b0312156200019757600080fd5b8851620001a48162000163565b60208a0151909850620001b78162000163565b60408a0151909750620001ca8162000163565b60608a0151909650620001dd8162000163565b60808a0151909550620001f08162000163565b60a08a0151909450620002038162000163565b60c08a0151909350620002168162000163565b60e08a0151909250620002298162000163565b809150509295985092959890939650565b6020808252602e908201527f496e697469616c697a61626c653a20636f6e747261637420697320616c72656160408201526d191e481a5b9a5d1a585b1a5e995960921b606082015260800190565b60805160a05160c05160e051610100516101205161014051610160516117db620002fc600039600050506000505060005050600081816102aa0152818161031a0152818161036c015281816103be0152818161041001526107c40152600050506000505060005050600050506117db6000f3fe608060405234801561001057600080fd5b50600436106100d05760003560e01c80630e17790f146100d5578063392e53cd146100ea57806339e7c5361461010557806347d234191461011857806350c358a41461012b57806377fdcede1461013e57806386497f4114610151578063880f40391461016457806397f735d514610177578063a154ce82146101aa578063a224cee7146101bd578063aad7e363146101d0578063ac9650d81461020c578063c529d2f31461022c578063e1c7392a1461023f578063f315df8614610247575b600080fd5b6100e86100e3366004611324565b61025a565b005b60005415155b60405190151581526020015b60405180910390f35b6100e8610113366004611357565b610293565b6100e8610126366004611357565b61029f565b6100f0610139366004611357565b6102f1565b6100e861014c366004611357565b61030f565b6100e861015f366004611357565b610361565b6100e8610172366004611357565b6103b3565b6100f0610185366004611357565b6001600160a01b0316600090815260646020526040902054600160a81b900460ff1690565b6100e86101b8366004611357565b610405565b6100e86101cb3660046113bf565b610457565b6101e36101de366004611357565b610505565b6040805160ff90941684526001600160a01b0392831660208501529116908201526060016100fc565b61021f61021a36600461146b565b6105ab565b6040516100fc919061150f565b6100e861023a366004611589565b61069e565b6100e86106e2565b6100e8610255366004611357565b6107b9565b33411461028557416040516307aad50d60e31b815260040161027c919061161d565b60405180910390fd5b61028f828261081a565b5050565b61029c81610a0e565b50565b336001600160a01b037f000000000000000000000000000000000000000000000000000000000000000016146102e8576040516354348f0360e01b815260040160405180910390fd5b61029c81610adf565b6001600160a01b031660009081526064602052604090205460ff1690565b336001600160a01b037f00000000000000000000000000000000000000000000000000000000000000001614610358576040516354348f0360e01b815260040160405180910390fd5b61029c81610c67565b336001600160a01b037f000000000000000000000000000000000000000000000000000000000000000016146103aa576040516354348f0360e01b815260040160405180910390fd5b61029c81610d5b565b336001600160a01b037f000000000000000000000000000000000000000000000000000000000000000016146103fc576040516354348f0360e01b815260040160405180910390fd5b61029c81610e47565b336001600160a01b037f0000000000000000000000000000000000000000000000000000000000000000161461044e576040516354348f0360e01b815260040160405180910390fd5b61029c81610f53565b600061046360016110db565b9050801561047b576000805461ff0019166101001790555b60005b82518110156104bb576104a983828151811061049c5761049c611631565b6020026020010151610e47565b806104b381611647565b91505061047e565b50801561028f576000805461ff0019169055604051600181527f7f26b83ff96e1f2b6a682f133852f6798a09c465da95921460cefb38474024989060200160405180910390a15050565b6001600160a01b0381166000908152606560205260408082208151606081019092528054839283928392829060ff1660028111156105455761054561166e565b60028111156105565761055661166e565b815281546001600160a01b0361010090910481166020830152600190920154909116604090910152805190915060028111156105945761059461166e565b602082015160409092015190969195509350915050565b6060816001600160401b038111156105c5576105c5611379565b6040519080825280602002602001820160405280156105f857816020015b60608152602001906001900390816105e35790505b50905060005b828110156106975761066784848381811061061b5761061b611631565b905060200281019061062d9190611684565b8080601f01602080910402602001604051908101604052809392919081815260200183838082843760009201919091525061116f92505050565b82828151811061067957610679611631565b6020026020010181905250808061068f90611647565b9150506105fe565b5092915050565b600043156106ca576040516344f1a1fb60e01b81526001600160401b038216600482015260240161027c565b81516106dd906001906020850190611274565b505050565b600143811461070f576040516344f1a1fb60e01b81526001600160401b038216600482015260240161027c565b60006001805461071e906116d1565b9050111561029c5761028f60018054610736906116d1565b80601f0160208091040260200160405190810160405280929190818152602001828054610762906116d1565b80156107af5780601f10610784576101008083540402835291602001916107af565b820191906000526020600020905b81548152906001019060200180831161079257829003601f168201915b505050505061116f565b336001600160a01b037f00000000000000000000000000000000000000000000000000000000000000001614610802576040516354348f0360e01b815260040160405180910390fd5b61029c816111ed565b6001600160a01b03163b151590565b610823826102f1565b6108695760405162461bcd60e51b815260206004820152601760248201527619195c1b1bde595c881a5cc81b9bdd08185b1b1bddd959604a1b604482015260640161027c565b6001600160a01b0381166000908152606560205260408082208151606081019092528054829060ff1660028111156108a3576108a361166e565b60028111156108b4576108b461166e565b815281546001600160a01b03610100909104811660208084019190915260019093015481166040909201919091529082015191925016156109365760405162461bcd60e51b815260206004820152601c60248201527b636f6e7472616374206973206465706c6f79656420616c726561647960201b604482015260640161027c565b60018082526001600160a01b0383811660208085018290529186166040808601919091526000918252606590925220825181548493839160ff1916908360028111156109845761098461166e565b021790555060208201518154610100600160a81b0319166101006001600160a01b0392831602178255604092830151600190920180546001600160a01b031916928216929092179091559051908416907f33c981baba081f8fd2c52ac6ad1ea95b6814b4376640f55689051f658472968890610a0190859061161d565b60405180910390a2505050565b6001600160a01b0381166000908152606560205260408082208151606081019092528054829060ff166002811115610a4857610a4861166e565b6002811115610a5957610a5961166e565b815281546001600160a01b03610100909104811660208301526001909201549091166040909101529050600281516002811115610a9857610a9861166e565b0361028f5760405162461bcd60e51b815260206004820152601760248201527618dbdb9d1c9858dd081a5cc81b9bdd08195b98589b1959604a1b604482015260640161027c565b6001600160a01b0381166000908152606560205260408082208151606081019092528054829060ff166002811115610b1957610b1961166e565b6002811115610b2a57610b2a61166e565b815281546001600160a01b03610100909104811660208301526001909201549091166040909101529050600281516002811115610b6957610b6961166e565b14610bb15760405162461bcd60e51b815260206004820152601860248201527718dbdb9d1c9858dd08185b1c9958591e48195b98589b195960421b604482015260640161027c565b60018082526001600160a01b0383166000908152606560205260409020825181548493839160ff191690836002811115610bed57610bed61166e565b021790555060208201518154610100600160a81b0319166101006001600160a01b0392831602178255604092830151600190920180546001600160a01b031916928216929092179091559051908316907fae81c15a680e6640ba872ca44f364ad67c60a04089ad9fa100f7a3ce94da9f6890600090a25050565b6001600160a01b03811660009081526064602052604090205460ff16610c9f5760405162461bcd60e51b815260040161027c9061170b565b6001600160a01b038116600090815260646020526040902054600160a81b900460ff1615610d095760405162461bcd60e51b815260206004820152601760248201527619195c1b1bde595c88185b1c9958591e4818985b9b9959604a1b604482015260640161027c565b6001600160a01b038116600081815260646020526040808220805460ff60a81b1916600160a81b179055517f9cf4d5b60708c113f822fd9addfd8d6d6280c3f539f5edf3ab97b528dedfa80a9190a250565b6001600160a01b03811660009081526064602052604090205460ff16610d935760405162461bcd60e51b815260040161027c9061170b565b6001600160a01b038116600090815260646020526040902054600160a81b900460ff16610dfb5760405162461bcd60e51b815260206004820152601660248201527519195c1b1bde595c881a5cc81b9bdd0818985b9b995960521b604482015260640161027c565b6001600160a01b038116600081815260646020526040808220805460ff60a81b19169055517f59c71bff57754566be21262a328a9c5c20b85a1be305ff7e01378049d02493e19190a250565b6001600160a01b03811660009081526064602052604090205460ff1615610ea95760405162461bcd60e51b815260206004820152601660248201527519195c1b1bde595c88185b1c9958591e48195e1a5cdd60521b604482015260640161027c565b60408051606081018252600181526001600160a01b0383811660208084018281526000858701818152848252606490935286812095518654925193516001600160a81b0319909316901515610100600160a81b0319161761010093909516929092029390931760ff60a81b1916600160a81b9315159390930292909217909255915190917f861a21548a3ee34d896ccac3668a9d65030aaf2cb7367a2ed13608014016a03291a250565b6001600160a01b0381166000908152606560205260408082208151606081019092528054829060ff166002811115610f8d57610f8d61166e565b6002811115610f9e57610f9e61166e565b815281546001600160a01b03610100909104811660208301526001928301541660409091015290915081516002811115610fda57610fda61166e565b146110235760405162461bcd60e51b815260206004820152601960248201527818dbdb9d1c9858dd08185b1c9958591e48191a5cd8589b1959603a1b604482015260640161027c565b60028082526001600160a01b0383166000908152606560205260409020825181548493839160ff19169060019084908111156110615761106161166e565b021790555060208201518154610100600160a81b0319166101006001600160a01b0392831602178255604092830151600190920180546001600160a01b031916928216929092179091559051908316907f793bc6423dd0257d64f9d47db72fd4b2162f4541aa41740ba1c5fb5e2cd41bcd90600090a25050565b60008054610100900460ff1615611129578160ff16600114801561110557506111033061080b565b155b6111215760405162461bcd60e51b815260040161027c9061173b565b506000919050565b60005460ff8084169116106111505760405162461bcd60e51b815260040161027c9061173b565b506000805460ff191660ff92909216919091179055600190565b919050565b6060600080306001600160a01b03168460405161118c9190611789565b600060405180830381855af49150503d80600081146111c7576040519150601f19603f3d011682016040523d82523d6000602084013e6111cc565b606091505b509150915081156111de579392505050565b8051156100d057805181602001fd5b6001600160a01b03811660009081526064602052604090205460ff166112255760405162461bcd60e51b815260040161027c9061170b565b6001600160a01b03811660008181526064602052604080822080546001600160b01b0319169055517ffdb22628e87f888d060acc53d048a6a8400a5024f81f9dcb0606e723f238864a9190a250565b828054611280906116d1565b90600052602060002090601f0160209004810192826112a257600085556112e8565b82601f106112bb57805160ff19168380011785556112e8565b828001600101855582156112e8579182015b828111156112e85782518255916020019190600101906112cd565b506112f49291506112f8565b5090565b5b808211156112f457600081556001016112f9565b80356001600160a01b038116811461116a57600080fd5b6000806040838503121561133757600080fd5b6113408361130d565b915061134e6020840161130d565b90509250929050565b60006020828403121561136957600080fd5b6113728261130d565b9392505050565b634e487b7160e01b600052604160045260246000fd5b604051601f8201601f191681016001600160401b03811182821017156113b7576113b7611379565b604052919050565b600060208083850312156113d257600080fd5b82356001600160401b03808211156113e957600080fd5b818501915085601f8301126113fd57600080fd5b81358181111561140f5761140f611379565b8060051b915061142084830161138f565b818152918301840191848101908884111561143a57600080fd5b938501935b8385101561145f576114508561130d565b8252938501939085019061143f565b98975050505050505050565b6000806020838503121561147e57600080fd5b82356001600160401b038082111561149557600080fd5b818501915085601f8301126114a957600080fd5b8135818111156114b857600080fd5b8660208260051b85010111156114cd57600080fd5b60209290920196919550909350505050565b60005b838110156114fa5781810151838201526020016114e2565b83811115611509576000848401525b50505050565b6000602080830181845280855180835260408601915060408160051b870101925083870160005b8281101561157c57878503603f190184528151805180875261155d818989018a85016114df565b601f01601f191695909501860194509285019290850190600101611536565b5092979650505050505050565b6000602080838503121561159c57600080fd5b82356001600160401b03808211156115b357600080fd5b818501915085601f8301126115c757600080fd5b8135818111156115d9576115d9611379565b6115eb601f8201601f1916850161138f565b9150808252868482850101111561160157600080fd5b8084840185840137600090820190930192909252509392505050565b6001600160a01b0391909116815260200190565b634e487b7160e01b600052603260045260246000fd5b60006001820161166757634e487b7160e01b600052601160045260246000fd5b5060010190565b634e487b7160e01b600052602160045260246000fd5b6000808335601e1984360301811261169b57600080fd5b8301803591506001600160401b038211156116b557600080fd5b6020019150368190038213156116ca57600080fd5b9250929050565b600181811c908216806116e557607f821691505b60208210810361170557634e487b7160e01b600052602260045260246000fd5b50919050565b60208082526016908201527519195c1b1bde595c88191bd95cdb89dd08195e1a5cdd60521b604082015260600190565b6020808252602e908201527f496e697469616c697a61626c653a20636f6e747261637420697320616c72656160408201526d191e481a5b9a5d1a585b1a5e995960921b606082015260800190565b6000825161179b8184602087016114df565b919091019291505056fea26469706673582212206058172b2c7f09fa195fc41b7bc10b813b0df3793012e4a7fcf7bab817e4be5364736f6c634300080e0033",
  "immutableReferences": {
    "7327": [
      {
        "length": 32,
        "start": 682
      },
      {
        "length": 32,
        "start": 794
      },
      {
        "length": 32,
        "start": 876
      },
      {
        "length": 32,
        "start": 958
      },
      {
        "length": 32,
        "start": 1040
      },
      {
        "length": 32,
        "start": 1988
      }
    ]
  },
  "source": "// SPDX-License-Identifier: GPL-3.0-only\npragma solidity ^0.8.0;\n\nimport \"./InjectorContextHolder.sol\";\n\ncontract DeployerProxy is InjectorContextHolder, IDeployerProxy {\n\n    event DeployerAdded(address indexed account);\n    event DeployerRemoved(address indexed account);\n    event DeployerBanned(address indexed account);\n    event DeployerUnbanned(address indexed account);\n    event ContractDisabled(address indexed contractAddress);\n    event ContractEnabled(address indexed contractAddress);\n\n    event ContractDeployed(address indexed account, address impl);\n\n    struct Deployer {\n        bool exists;\n        address account;\n        bool banned;\n    }\n\n    enum ContractState {\n        NotFound,\n        Enabled,\n        Disabled\n    }\n\n    struct SmartContract {\n        ContractState state;\n        address impl;\n        address deployer;\n    }\n\n    mapping(address => Deployer) private _contractDeployers;\n    mapping(address => SmartContract) private _smartContracts;\n\n    constructor(\n        IStaking stakingContract,\n        ISlashingIndicator slashingIndicatorContract,\n        ISystemReward systemRewardContract,\n        IStakingPool stakingPoolContract,\n        IGovernance governanceContract,\n        IChainConfig chainConfigContract,\n        IRuntimeUpgrade runtimeUpgradeContract,\n        IDeployerProxy deployerProxyContract\n    ) InjectorContextHolder(\n        stakingContract,\n        slashingIndicatorContract,\n        systemRewardContract,\n        stakingPoolContract,\n        governanceContract,\n        chainConfigContract,\n        runtimeUpgradeContract,\n        deployerProxyContract\n    ) {\n    }\n\n    function initialize(address[] memory deployers) external initializer {\n        for (uint256 i = 0; i < deployers.length; i++) {\n            _addDeployer(deployers[i]);\n        }\n    }\n\n    function isDeployer(address account) public override view returns (bool) {\n        return _contractDeployers[account].exists;\n    }\n\n    function isBanned(address account) public override view returns (bool) {\n        return _contractDeployers[account].banned;\n    }\n\n    function addDeployer(address account) public onlyFromGovernance virtual override {\n        _addDeployer(account);\n    }\n\n    function _addDeployer(address account) internal {\n        require(!_contractDeployers[account].exists, \"deployer already exist\");\n        _contractDeployers[account] = Deployer({\n        exists : true,\n        account : account,\n        banned : false\n        });\n        emit DeployerAdded(account);\n    }\n\n    function removeDeployer(address account) public onlyFromGovernance virtual override {\n        _removeDeployer(account);\n    }\n\n    function _removeDeployer(address account) internal {\n        require(_contractDeployers[account].exists, \"deployer doesn't exist\");\n        delete _contractDeployers[account];\n        emit DeployerRemoved(account);\n    }\n\n    function banDeployer(address account) public onlyFromGovernance virtual override {\n        _banDeployer(account);\n    }\n\n    function _banDeployer(address account) internal {\n        require(_contractDeployers[account].exists, \"deployer doesn't exist\");\n        require(!_contractDeployers[account].banned, \"deployer already banned\");\n        _contractDeployers[account].banned = true;\n        emit DeployerBanned(account);\n    }\n\n    function _unbanDeployer(address account) internal {\n        require(_contractDeployers[account].exists, \"deployer doesn't exist\");\n        require(_contractDeployers[account].banned, \"deployer is not banned\");\n        _contractDeployers[account].banned = false;\n        emit DeployerUnbanned(account);\n    }\n\n    function unbanDeployer(address account) public onlyFromGovernance virtual override {\n        _unbanDeployer(account);\n    }\n\n    function getContractState(address contractAddress) external view virtual override returns (uint8 state, address impl, address deployer) {\n        SmartContract memory dc = _smartContracts[contractAddress];\n        state = uint8(dc.state);\n        impl = dc.impl;\n        deployer = dc.deployer;\n    }\n\n    function _registerDeployedContract(address deployer, address impl) internal {\n        // make sure this call is allowed\n        require(isDeployer(deployer), \"deployer is not allowed\");\n        // remember who deployed contract\n        SmartContract memory dc = _smartContracts[impl];\n        require(dc.impl == address(0x00), \"contract is deployed already\");\n        dc.state = ContractState.Enabled;\n        dc.impl = impl;\n        dc.deployer = deployer;\n        _smartContracts[impl] = dc;\n        // emit event\n        emit ContractDeployed(deployer, impl);\n    }\n\n    function registerDeployedContract(address deployer, address impl) public onlyFromCoinbase virtual override {\n        _registerDeployedContract(deployer, impl);\n    }\n\n    function checkContractActive(address impl) external view virtual override {\n        _checkContractActive(impl);\n    }\n\n    function _checkContractActive(address impl) internal view {\n        // check that contract is not disabled\n        SmartContract memory dc = _smartContracts[impl];\n        require(dc.state != ContractState.Disabled, \"contract is not enabled\");\n    }\n\n    function disableContract(address impl) public onlyFromGovernance virtual override {\n        _disableContract(impl);\n    }\n\n    function enableContract(address impl) public onlyFromGovernance virtual override {\n        _enableContract(impl);\n    }\n\n    function _disableContract(address contractAddress) internal {\n        SmartContract memory dc = _smartContracts[contractAddress];\n        require(dc.state == ContractState.Enabled, \"contract already disabled\");\n        dc.state = ContractState.Disabled;\n        _smartContracts[contractAddress] = dc;\n        //emit event\n        emit ContractDisabled(contractAddress);\n    }\n\n    function _enableContract(address contractAddress) internal {\n        SmartContract memory dc = _smartContracts[contractAddress];\n        require(dc.state == ContractState.Disabled, \"contract already enabled\");\n        dc.state = ContractState.Enabled;\n        _smartContracts[contractAddress] = dc;\n        //emit event\n        emit ContractEnabled(contractAddress);\n    }\n}",
  "sourcePath": "/Users/user/source/git/bas-genesis-config/contracts/DeployerProxy.sol",
  "compiler": {
    "name": "solc",
    "version": "0.8.14+commit.80d49f37.Emscripten.clang"
  },
  "schemaVersion": "3.4.4",
  "updatedAt": "2022-10-09T03:31:57.521Z",
  "devdoc": {
    "kind": "dev",
    "methods": {},
    "version": 1
  },
  "userdoc": {
    "kind": "user",
    "methods": {},
    "version": 1
  }
}