{
  "contractName": "Governance",
  "abi": [
    {
      "inputs": [
        {
          "internalType": "contract IStaking",
          "name": "stakingContract",
          "type": "address"
        },
        {
          "internalType": "contract ISlashingIndicator",
          "name": "slashingIndicatorContract",
          "type": "address"
        },
        {
          "internalType": "contract ISystemReward",
          "name": "systemRewardContract",
          "type": "address"
        },
        {
          "internalType": "contract IStakingPool",
          "name": "stakingPoolContract",
          "type": "address"
        },
        {
          "internalType": "contract IGovernance",
          "name": "governanceContract",
          "type": "address"
        },
        {
          "internalType": "contract IChainConfig",
          "name": "chainConfigContract",
          "type": "address"
        },
        {
          "internalType": "contract IRuntimeUpgrade",
          "name": "runtimeUpgradeContract",
          "type": "address"
        },
        {
          "internalType": "contract IDeployerProxy",
          "name": "deployerProxyContract",
          "type": "address"
        }
      ],
      "stateMutability": "nonpayable",
      "type": "constructor"
    },
    {
      "inputs": [],
      "name": "Empty",
      "type": "error"
    },
    {
      "inputs": [
        {
          "internalType": "uint64",
          "name": "blockNumber",
          "type": "uint64"
        }
      ],
      "name": "OnlyBlock",
      "type": "error"
    },
    {
      "inputs": [
        {
          "internalType": "address",
          "name": "coinbase",
          "type": "address"
        }
      ],
      "name": "OnlyCoinbase",
      "type": "error"
    },
    {
      "inputs": [],
      "name": "OnlyGovernance",
      "type": "error"
    },
    {
      "inputs": [],
      "name": "OnlySlashingIndicator",
      "type": "error"
    },
    {
      "anonymous": false,
      "inputs": [
        {
          "indexed": false,
          "internalType": "uint8",
          "name": "version",
          "type": "uint8"
        }
      ],
      "name": "Initialized",
      "type": "event"
    },
    {
      "anonymous": false,
      "inputs": [
        {
          "indexed": false,
          "internalType": "uint256",
          "name": "proposalId",
          "type": "uint256"
        }
      ],
      "name": "ProposalCanceled",
      "type": "event"
    },
    {
      "anonymous": false,
      "inputs": [
        {
          "indexed": false,
          "internalType": "uint256",
          "name": "proposalId",
          "type": "uint256"
        },
        {
          "indexed": false,
          "internalType": "address",
          "name": "proposer",
          "type": "address"
        },
        {
          "indexed": false,
          "internalType": "address[]",
          "name": "targets",
          "type": "address[]"
        },
        {
          "indexed": false,
          "internalType": "uint256[]",
          "name": "values",
          "type": "uint256[]"
        },
        {
          "indexed": false,
          "internalType": "string[]",
          "name": "signatures",
          "type": "string[]"
        },
        {
          "indexed": false,
          "internalType": "bytes[]",
          "name": "calldatas",
          "type": "bytes[]"
        },
        {
          "indexed": false,
          "internalType": "uint256",
          "name": "startBlock",
          "type": "uint256"
        },
        {
          "indexed": false,
          "internalType": "uint256",
          "name": "endBlock",
          "type": "uint256"
        },
        {
          "indexed": false,
          "internalType": "string",
          "name": "description",
          "type": "string"
        }
      ],
      "name": "ProposalCreated",
      "type": "event"
    },
    {
      "anonymous": false,
      "inputs": [
        {
          "indexed": false,
          "internalType": "uint256",
          "name": "proposalId",
          "type": "uint256"
        }
      ],
      "name": "ProposalExecuted",
      "type": "event"
    },
    {
      "anonymous": false,
      "inputs": [
        {
          "indexed": false,
          "internalType": "uint256",
          "name": "oldProposalThreshold",
          "type": "uint256"
        },
        {
          "indexed": false,
          "internalType": "uint256",
          "name": "newProposalThreshold",
          "type": "uint256"
        }
      ],
      "name": "ProposalThresholdSet",
      "type": "event"
    },
    {
      "anonymous": false,
      "inputs": [
        {
          "indexed": true,
          "internalType": "address",
          "name": "voter",
          "type": "address"
        },
        {
          "indexed": false,
          "internalType": "uint256",
          "name": "proposalId",
          "type": "uint256"
        },
        {
          "indexed": false,
          "internalType": "uint8",
          "name": "support",
          "type": "uint8"
        },
        {
          "indexed": false,
          "internalType": "uint256",
          "name": "weight",
          "type": "uint256"
        },
        {
          "indexed": false,
          "internalType": "string",
          "name": "reason",
          "type": "string"
        }
      ],
      "name": "VoteCast",
      "type": "event"
    },
    {
      "anonymous": false,
      "inputs": [
        {
          "indexed": true,
          "internalType": "address",
          "name": "voter",
          "type": "address"
        },
        {
          "indexed": false,
          "internalType": "uint256",
          "name": "proposalId",
          "type": "uint256"
        },
        {
          "indexed": false,
          "internalType": "uint8",
          "name": "support",
          "type": "uint8"
        },
        {
          "indexed": false,
          "internalType": "uint256",
          "name": "weight",
          "type": "uint256"
        },
        {
          "indexed": false,
          "internalType": "string",
          "name": "reason",
          "type": "string"
        },
        {
          "indexed": false,
          "internalType": "bytes",
          "name": "params",
          "type": "bytes"
        }
      ],
      "name": "VoteCastWithParams",
      "type": "event"
    },
    {
      "anonymous": false,
      "inputs": [
        {
          "indexed": false,
          "internalType": "uint256",
          "name": "oldVotingDelay",
          "type": "uint256"
        },
        {
          "indexed": false,
          "internalType": "uint256",
          "name": "newVotingDelay",
          "type": "uint256"
        }
      ],
      "name": "VotingDelaySet",
      "type": "event"
    },
    {
      "anonymous": false,
      "inputs": [
        {
          "indexed": false,
          "internalType": "uint256",
          "name": "oldVotingPeriod",
          "type": "uint256"
        },
        {
          "indexed": false,
          "internalType": "uint256",
          "name": "newVotingPeriod",
          "type": "uint256"
        }
      ],
      "name": "VotingPeriodSet",
      "type": "event"
    },
    {
      "inputs": [],
      "name": "BALLOT_TYPEHASH",
      "outputs": [
        {
          "internalType": "bytes32",
          "name": "",
          "type": "bytes32"
        }
      ],
      "stateMutability": "view",
      "type": "function"
    },
    {
      "inputs": [],
      "name": "COUNTING_MODE",
      "outputs": [
        {
          "internalType": "string",
          "name": "",
          "type": "string"
        }
      ],
      "stateMutability": "pure",
      "type": "function"
    },
    {
      "inputs": [],
      "name": "EXTENDED_BALLOT_TYPEHASH",
      "outputs": [
        {
          "internalType": "bytes32",
          "name": "",
          "type": "bytes32"
        }
      ],
      "stateMutability": "view",
      "type": "function"
    },
    {
      "inputs": [
        {
          "internalType": "uint256",
          "name": "proposalId",
          "type": "uint256"
        },
        {
          "internalType": "uint8",
          "name": "support",
          "type": "uint8"
        }
      ],
      "name": "castVote",
      "outputs": [
        {
          "internalType": "uint256",
          "name": "",
          "type": "uint256"
        }
      ],
      "stateMutability": "nonpayable",
      "type": "function"
    },
    {
      "inputs": [
        {
          "internalType": "uint256",
          "name": "proposalId",
          "type": "uint256"
        },
        {
          "internalType": "uint8",
          "name": "support",
          "type": "uint8"
        },
        {
          "internalType": "uint8",
          "name": "v",
          "type": "uint8"
        },
        {
          "internalType": "bytes32",
          "name": "r",
          "type": "bytes32"
        },
        {
          "internalType": "bytes32",
          "name": "s",
          "type": "bytes32"
        }
      ],
      "name": "castVoteBySig",
      "outputs": [
        {
          "internalType": "uint256",
          "name": "",
          "type": "uint256"
        }
      ],
      "stateMutability": "nonpayable",
      "type": "function"
    },
    {
      "inputs": [
        {
          "internalType": "uint256",
          "name": "proposalId",
          "type": "uint256"
        },
        {
          "internalType": "uint8",
          "name": "support",
          "type": "uint8"
        },
        {
          "internalType": "string",
          "name": "reason",
          "type": "string"
        }
      ],
      "name": "castVoteWithReason",
      "outputs": [
        {
          "internalType": "uint256",
          "name": "",
          "type": "uint256"
        }
      ],
      "stateMutability": "nonpayable",
      "type": "function"
    },
    {
      "inputs": [
        {
          "internalType": "uint256",
          "name": "proposalId",
          "type": "uint256"
        },
        {
          "internalType": "uint8",
          "name": "support",
          "type": "uint8"
        },
        {
          "internalType": "string",
          "name": "reason",
          "type": "string"
        },
        {
          "internalType": "bytes",
          "name": "params",
          "type": "bytes"
        }
      ],
      "name": "castVoteWithReasonAndParams",
      "outputs": [
        {
          "internalType": "uint256",
          "name": "",
          "type": "uint256"
        }
      ],
      "stateMutability": "nonpayable",
      "type": "function"
    },
    {
      "inputs": [
        {
          "internalType": "uint256",
          "name": "proposalId",
          "type": "uint256"
        },
        {
          "internalType": "uint8",
          "name": "support",
          "type": "uint8"
        },
        {
          "internalType": "string",
          "name": "reason",
          "type": "string"
        },
        {
          "internalType": "bytes",
          "name": "params",
          "type": "bytes"
        },
        {
          "internalType": "uint8",
          "name": "v",
          "type": "uint8"
        },
        {
          "internalType": "bytes32",
          "name": "r",
          "type": "bytes32"
        },
        {
          "internalType": "bytes32",
          "name": "s",
          "type": "bytes32"
        }
      ],
      "name": "castVoteWithReasonAndParamsBySig",
      "outputs": [
        {
          "internalType": "uint256",
          "name": "",
          "type": "uint256"
        }
      ],
      "stateMutability": "nonpayable",
      "type": "function"
    },
    {
      "inputs": [
        {
          "internalType": "address[]",
          "name": "targets",
          "type": "address[]"
        },
        {
          "internalType": "uint256[]",
          "name": "values",
          "type": "uint256[]"
        },
        {
          "internalType": "bytes[]",
          "name": "calldatas",
          "type": "bytes[]"
        },
        {
          "internalType": "bytes32",
          "name": "descriptionHash",
          "type": "bytes32"
        }
      ],
      "name": "execute",
      "outputs": [
        {
          "internalType": "uint256",
          "name": "",
          "type": "uint256"
        }
      ],
      "stateMutability": "payable",
      "type": "function"
    },
    {
      "inputs": [
        {
          "internalType": "address",
          "name": "account",
          "type": "address"
        },
        {
          "internalType": "uint256",
          "name": "blockNumber",
          "type": "uint256"
        }
      ],
      "name": "getVotes",
      "outputs": [
        {
          "internalType": "uint256",
          "name": "",
          "type": "uint256"
        }
      ],
      "stateMutability": "view",
      "type": "function"
    },
    {
      "inputs": [
        {
          "internalType": "address",
          "name": "account",
          "type": "address"
        },
        {
          "internalType": "uint256",
          "name": "blockNumber",
          "type": "uint256"
        },
        {
          "internalType": "bytes",
          "name": "params",
          "type": "bytes"
        }
      ],
      "name": "getVotesWithParams",
      "outputs": [
        {
          "internalType": "uint256",
          "name": "",
          "type": "uint256"
        }
      ],
      "stateMutability": "view",
      "type": "function"
    },
    {
      "inputs": [
        {
          "internalType": "uint256",
          "name": "proposalId",
          "type": "uint256"
        },
        {
          "internalType": "address",
          "name": "account",
          "type": "address"
        }
      ],
      "name": "hasVoted",
      "outputs": [
        {
          "internalType": "bool",
          "name": "",
          "type": "bool"
        }
      ],
      "stateMutability": "view",
      "type": "function"
    },
    {
      "inputs": [
        {
          "internalType": "address[]",
          "name": "targets",
          "type": "address[]"
        },
        {
          "internalType": "uint256[]",
          "name": "values",
          "type": "uint256[]"
        },
        {
          "internalType": "bytes[]",
          "name": "calldatas",
          "type": "bytes[]"
        },
        {
          "internalType": "bytes32",
          "name": "descriptionHash",
          "type": "bytes32"
        }
      ],
      "name": "hashProposal",
      "outputs": [
        {
          "internalType": "uint256",
          "name": "",
          "type": "uint256"
        }
      ],
      "stateMutability": "pure",
      "type": "function"
    },
    {
      "inputs": [],
      "name": "init",
      "outputs": [],
      "stateMutability": "nonpayable",
      "type": "function"
    },
    {
      "inputs": [],
      "name": "isInitialized",
      "outputs": [
        {
          "internalType": "bool",
          "name": "",
          "type": "bool"
        }
      ],
      "stateMutability": "view",
      "type": "function"
    },
    {
      "inputs": [
        {
          "internalType": "bytes[]",
          "name": "data",
          "type": "bytes[]"
        }
      ],
      "name": "multicall",
      "outputs": [
        {
          "internalType": "bytes[]",
          "name": "results",
          "type": "bytes[]"
        }
      ],
      "stateMutability": "nonpayable",
      "type": "function"
    },
    {
      "inputs": [],
      "name": "name",
      "outputs": [
        {
          "internalType": "string",
          "name": "",
          "type": "string"
        }
      ],
      "stateMutability": "view",
      "type": "function"
    },
    {
      "inputs": [
        {
          "internalType": "address",
          "name": "",
          "type": "address"
        },
        {
          "internalType": "address",
          "name": "",
          "type": "address"
        },
        {
          "internalType": "uint256[]",
          "name": "",
          "type": "uint256[]"
        },
        {
          "internalType": "uint256[]",
          "name": "",
          "type": "uint256[]"
        },
        {
          "internalType": "bytes",
          "name": "",
          "type": "bytes"
        }
      ],
      "name": "onERC1155BatchReceived",
      "outputs": [
        {
          "internalType": "bytes4",
          "name": "",
          "type": "bytes4"
        }
      ],
      "stateMutability": "nonpayable",
      "type": "function"
    },
    {
      "inputs": [
        {
          "internalType": "address",
          "name": "",
          "type": "address"
        },
        {
          "internalType": "address",
          "name": "",
          "type": "address"
        },
        {
          "internalType": "uint256",
          "name": "",
          "type": "uint256"
        },
        {
          "internalType": "uint256",
          "name": "",
          "type": "uint256"
        },
        {
          "internalType": "bytes",
          "name": "",
          "type": "bytes"
        }
      ],
      "name": "onERC1155Received",
      "outputs": [
        {
          "internalType": "bytes4",
          "name": "",
          "type": "bytes4"
        }
      ],
      "stateMutability": "nonpayable",
      "type": "function"
    },
    {
      "inputs": [
        {
          "internalType": "address",
          "name": "",
          "type": "address"
        },
        {
          "internalType": "address",
          "name": "",
          "type": "address"
        },
        {
          "internalType": "uint256",
          "name": "",
          "type": "uint256"
        },
        {
          "internalType": "bytes",
          "name": "",
          "type": "bytes"
        }
      ],
      "name": "onERC721Received",
      "outputs": [
        {
          "internalType": "bytes4",
          "name": "",
          "type": "bytes4"
        }
      ],
      "stateMutability": "nonpayable",
      "type": "function"
    },
    {
      "inputs": [
        {
          "internalType": "uint256",
          "name": "proposalId",
          "type": "uint256"
        }
      ],
      "name": "proposalDeadline",
      "outputs": [
        {
          "internalType": "uint256",
          "name": "",
          "type": "uint256"
        }
      ],
      "stateMutability": "view",
      "type": "function"
    },
    {
      "inputs": [
        {
          "internalType": "uint256",
          "name": "proposalId",
          "type": "uint256"
        }
      ],
      "name": "proposalSnapshot",
      "outputs": [
        {
          "internalType": "uint256",
          "name": "",
          "type": "uint256"
        }
      ],
      "stateMutability": "view",
      "type": "function"
    },
    {
      "inputs": [
        {
          "internalType": "uint256",
          "name": "proposalId",
          "type": "uint256"
        }
      ],
      "name": "proposalVotes",
      "outputs": [
        {
          "internalType": "uint256",
          "name": "againstVotes",
          "type": "uint256"
        },
        {
          "internalType": "uint256",
          "name": "forVotes",
          "type": "uint256"
        },
        {
          "internalType": "uint256",
          "name": "abstainVotes",
          "type": "uint256"
        }
      ],
      "stateMutability": "view",
      "type": "function"
    },
    {
      "inputs": [
        {
          "internalType": "address",
          "name": "target",
          "type": "address"
        },
        {
          "internalType": "uint256",
          "name": "value",
          "type": "uint256"
        },
        {
          "internalType": "bytes",
          "name": "data",
          "type": "bytes"
        }
      ],
      "name": "relay",
      "outputs": [],
      "stateMutability": "nonpayable",
      "type": "function"
    },
    {
      "inputs": [
        {
          "internalType": "uint256",
          "name": "newProposalThreshold",
          "type": "uint256"
        }
      ],
      "name": "setProposalThreshold",
      "outputs": [],
      "stateMutability": "nonpayable",
      "type": "function"
    },
    {
      "inputs": [
        {
          "internalType": "uint256",
          "name": "newVotingDelay",
          "type": "uint256"
        }
      ],
      "name": "setVotingDelay",
      "outputs": [],
      "stateMutability": "nonpayable",
      "type": "function"
    },
    {
      "inputs": [
        {
          "internalType": "uint256",
          "name": "newVotingPeriod",
          "type": "uint256"
        }
      ],
      "name": "setVotingPeriod",
      "outputs": [],
      "stateMutability": "nonpayable",
      "type": "function"
    },
    {
      "inputs": [
        {
          "internalType": "uint256",
          "name": "proposalId",
          "type": "uint256"
        }
      ],
      "name": "state",
      "outputs": [
        {
          "internalType": "enum IGovernorUpgradeable.ProposalState",
          "name": "",
          "type": "uint8"
        }
      ],
      "stateMutability": "view",
      "type": "function"
    },
    {
      "inputs": [
        {
          "internalType": "bytes4",
          "name": "interfaceId",
          "type": "bytes4"
        }
      ],
      "name": "supportsInterface",
      "outputs": [
        {
          "internalType": "bool",
          "name": "",
          "type": "bool"
        }
      ],
      "stateMutability": "view",
      "type": "function"
    },
    {
      "inputs": [
        {
          "internalType": "bytes",
          "name": "delayedInitializer",
          "type": "bytes"
        }
      ],
      "name": "useDelayedInitializer",
      "outputs": [],
      "stateMutability": "nonpayable",
      "type": "function"
    },
    {
      "inputs": [],
      "name": "version",
      "outputs": [
        {
          "internalType": "string",
          "name": "",
          "type": "string"
        }
      ],
      "stateMutability": "view",
      "type": "function"
    },
    {
      "stateMutability": "payable",
      "type": "receive"
    },
    {
      "inputs": [
        {
          "internalType": "uint256",
          "name": "newVotingPeriod",
          "type": "uint256"
        },
        {
          "internalType": "string",
          "name": "name",
          "type": "string"
        }
      ],
      "name": "initialize",
      "outputs": [],
      "stateMutability": "nonpayable",
      "type": "function"
    },
    {
      "inputs": [],
      "name": "getVotingSupply",
      "outputs": [
        {
          "internalType": "uint256",
          "name": "",
          "type": "uint256"
        }
      ],
      "stateMutability": "view",
      "type": "function"
    },
    {
      "inputs": [
        {
          "internalType": "address",
          "name": "validator",
          "type": "address"
        }
      ],
      "name": "getVotingPower",
      "outputs": [
        {
          "internalType": "uint256",
          "name": "",
          "type": "uint256"
        }
      ],
      "stateMutability": "view",
      "type": "function"
    },
    {
      "inputs": [
        {
          "internalType": "address[]",
          "name": "targets",
          "type": "address[]"
        },
        {
          "internalType": "uint256[]",
          "name": "values",
          "type": "uint256[]"
        },
        {
          "internalType": "bytes[]",
          "name": "calldatas",
          "type": "bytes[]"
        },
        {
          "internalType": "string",
          "name": "description",
          "type": "string"
        },
        {
          "internalType": "uint256",
          "name": "customVotingPeriod",
          "type": "uint256"
        }
      ],
      "name": "proposeWithCustomVotingPeriod",
      "outputs": [
        {
          "internalType": "uint256",
          "name": "",
          "type": "uint256"
        }
      ],
      "stateMutability": "nonpayable",
      "type": "function"
    },
    {
      "inputs": [
        {
          "internalType": "address[]",
          "name": "targets",
          "type": "address[]"
        },
        {
          "internalType": "uint256[]",
          "name": "values",
          "type": "uint256[]"
        },
        {
          "internalType": "bytes[]",
          "name": "calldatas",
          "type": "bytes[]"
        },
        {
          "internalType": "string",
          "name": "description",
          "type": "string"
        }
      ],
      "name": "propose",
      "outputs": [
        {
          "internalType": "uint256",
          "name": "",
          "type": "uint256"
        }
      ],
      "stateMutability": "nonpayable",
      "type": "function"
    },
    {
      "inputs": [],
      "name": "votingPeriod",
      "outputs": [
        {
          "internalType": "uint256",
          "name": "",
          "type": "uint256"
        }
      ],
      "stateMutability": "view",
      "type": "function"
    },
    {
      "inputs": [
        {
          "internalType": "uint256",
          "name": "blockNumber",
          "type": "uint256"
        }
      ],
      "name": "quorum",
      "outputs": [
        {
          "internalType": "uint256",
          "name": "",
          "type": "uint256"
        }
      ],
      "stateMutability": "view",
      "type": "function"
    },
    {
      "inputs": [],
      "name": "votingDelay",
      "outputs": [
        {
          "internalType": "uint256",
          "name": "",
          "type": "uint256"
        }
      ],
      "stateMutability": "view",
      "type": "function"
    },
    {
      "inputs": [],
      "name": "proposalThreshold",
      "outputs": [
        {
          "internalType": "uint256",
          "name": "",
          "type": "uint256"
        }
      ],
      "stateMutability": "view",
      "type": "function"
    }
  ],
  "bytecode": "0x6101806040523480156200001257600080fd5b50604051620040ae380380620040ae833981016040819052620000359162000179565b6001600160a01b0380891660805280881660a05280871660c05280861660e05280851661010052808416610120528083166101405281166101605287878787878787876200008262000098565b5050505050505050505050505050505062000288565b620000a460ff620000a7565b50565b60008054610100900460ff161562000110578160ff166001148015620000e05750620000de306200015460201b620015301760201c565b155b620001085760405162461bcd60e51b8152600401620000ff906200023a565b60405180910390fd5b506000919050565b60005460ff8084169116106200013a5760405162461bcd60e51b8152600401620000ff906200023a565b506000805460ff191660ff92909216919091179055600190565b6001600160a01b03163b151590565b6001600160a01b0381168114620000a457600080fd5b600080600080600080600080610100898b0312156200019757600080fd5b8851620001a48162000163565b60208a0151909850620001b78162000163565b60408a0151909750620001ca8162000163565b60608a0151909650620001dd8162000163565b60808a0151909550620001f08162000163565b60a08a0151909450620002038162000163565b60c08a0151909350620002168162000163565b60e08a0151909250620002298162000163565b809150509295985092959890939650565b6020808252602e908201527f496e697469616c697a61626c653a20636f6e747261637420697320616c72656160408201526d191e481a5b9a5d1a585b1a5e995960921b606082015260800190565b60805160a05160c05160e05161010051610120516101405161016051613d9a620003146000396000505060005050600061255b015260005050600050506000505060005050600081816109e001528181610a8501528181611001015281816110a60152818161190501528181611ef5015281816123c1015281816124d5015261261f0152613d9a6000f3fe6080604052600436106101df5760003560e01c806370b0f660116100fe57806370b0f660146104f65780637b3c71d3146105165780637d5e81e2146105365780639a802a6d14610556578063ac9650d814610576578063b58131b0146105a3578063bb4d4436146105b8578063bc197c81146105d8578063c01f9e3714610604578063c28bc2fa14610624578063c529d2f314610644578063c59057e414610664578063dd4e2ba514610684578063deaaa7cc146106ca578063e1c7392a146106fe578063ea0217cf14610713578063eb9019d414610733578063ece40cc114610753578063f23a6e6114610773578063f8ce560a1461079f57600080fd5b806301ffc9a7146101ed57806302a251a314610222578063034201811461024557806306fdde03146102655780630eb448fa14610287578063150b7a02146102a75780632656227d146102eb5780632d63f693146102fe5780632fe3e2611461031e578063392e53cd146103525780633932abb1146103695780633bccf4fd1461037e5780633e4f49e61461039e57806343859632146103cb578063544ffc9c1461041657806354fd4d501461046c578063567813881461048157806359fe2ccf146104a15780635f398a14146104b65780636e9d13ab146104d657600080fd5b366101e857005b005b600080fd5b3480156101f957600080fd5b5061020d610208366004612b14565b6107bf565b60405190151581526020015b60405180910390f35b34801561022e57600080fd5b5061023761082c565b604051908152602001610219565b34801561025157600080fd5b50610237610260366004612c4a565b61084e565b34801561027157600080fd5b5061027a610946565b6040516102199190612d50565b34801561029357600080fd5b506102376102a2366004612ee9565b6109d9565b3480156102b357600080fd5b506102d26102c2366004612f9d565b630a85bd0160e11b949350505050565b6040516001600160e01b03199091168152602001610219565b6102376102f9366004613008565b610b47565b34801561030a57600080fd5b50610237610319366004613097565b610c74565b34801561032a57600080fd5b506102377fb3b3f3b703cd84ce352197dcff232b1b5d3cfb2025ce47cf04742d0651f1af8881565b34801561035e57600080fd5b50600054151561020d565b34801561037557600080fd5b50610237610cac565b34801561038a57600080fd5b506102376103993660046130b0565b610cb8565b3480156103aa57600080fd5b506103be6103b9366004613097565b610d2e565b6040516102199190613118565b3480156103d757600080fd5b5061020d6103e6366004613140565b6000828152610160602090815260408083206001600160a01b038516845260030190915290205460ff1692915050565b34801561042257600080fd5b50610451610431366004613097565b600090815261016060205260409020805460018201546002909201549092565b60408051938452602084019290925290820152606001610219565b34801561047857600080fd5b5061027a610e3f565b34801561048d57600080fd5b5061023761049c366004613170565b610e5a565b3480156104ad57600080fd5b50610237610e83565b3480156104c257600080fd5b506102376104d1366004613195565b610e8e565b3480156104e257600080fd5b506101e66104f136600461321a565b610ed8565b34801561050257600080fd5b506101e6610511366004613097565b610f65565b34801561052257600080fd5b50610237610531366004613260565b610fa8565b34801561054257600080fd5b506102376105513660046132bb565b610ffa565b34801561056257600080fd5b5061023761057136600461335b565b611144565b34801561058257600080fd5b506105966105913660046133b3565b61115b565b604051610219919061347c565b3480156105af57600080fd5b5061023761124e565b3480156105c457600080fd5b506102376105d336600461348f565b61125a565b3480156105e457600080fd5b506102d26105f33660046134ac565b63bc197c8160e01b95945050505050565b34801561061057600080fd5b5061023761061f366004613097565b611266565b34801561063057600080fd5b506101e661063f36600461353f565b611296565b34801561065057600080fd5b506101e661065f366004613582565b611316565b34801561067057600080fd5b5061023761067f366004613008565b611355565b34801561069057600080fd5b506040805180820190915260208082527f737570706f72743d627261766f2671756f72756d3d666f722c6162737461696e9082015261027a565b3480156106d657600080fd5b506102377f150214d74d59b7d1e90c73fc22ef3d991dd0a76b046543d4d80ab92d2a50328f81565b34801561070a57600080fd5b506101e661138f565b34801561071f57600080fd5b506101e661072e366004613097565b61146a565b34801561073f57600080fd5b5061023761074e3660046135b6565b6114aa565b34801561075f57600080fd5b506101e661076e366004613097565b6114cb565b34801561077f57600080fd5b506102d261078e3660046135e2565b63f23a6e6160e01b95945050505050565b3480156107ab57600080fd5b506102376107ba366004613097565b61150b565b60006001600160e01b0319821663bf26d89760e01b14806107f057506001600160e01b031982166379dd796f60e01b145b8061080b57506001600160e01b03198216630271189760e51b145b8061082657506301ffc9a760e01b6001600160e01b03198316145b92915050565b60006101c45460001461084157506101c45490565b506101935490565b905090565b6000806108f26108ea7fb3b3f3b703cd84ce352197dcff232b1b5d3cfb2025ce47cf04742d0651f1af888c8c8c8c60405161088a92919061364a565b60405180910390208b805190602001206040516020016108cf959493929190948552602085019390935260ff9190911660408401526060830152608082015260a00190565b6040516020818303038152906040528051906020012061153f565b86868661158d565b90506109388a828b8b8b8080601f0160208091040260200160405190810160405280939291908181526020018383808284376000920191909152508d92506115ab915050565b9a9950505050505050505050565b606061012e80546109569061365a565b80601f01602080910402602001604051908101604052809291908181526020018280546109829061365a565b80156109cf5780601f106109a4576101008083540402835291602001916109cf565b820191906000526020600020905b8154815290600101906020018083116109b257829003601f168201915b5050505050905090565b60003360007f00000000000000000000000000000000000000000000000000000000000000006001600160a01b03166330108c22836040518263ffffffff1660e01b8152600401610a2a9190613694565b602060405180830381865afa158015610a47573d6000803e3d6000fd5b505050506040513d601f19601f82011682018060405250810190610a6b91906136a8565b6040516310ab556b60e21b81529091506001600160a01b037f000000000000000000000000000000000000000000000000000000000000000016906342ad55ac90610aba908490600401613694565b602060405180830381865afa158015610ad7573d6000803e3d6000fd5b505050506040513d601f19601f82011682018060405250810190610afb91906136c5565b610b205760405162461bcd60e51b8152600401610b17906136e7565b60405180910390fd5b6101c48490556000610b3489898989610ffa565b60006101c4559998505050505050505050565b600080610b5686868686611355565b90506000610b6382610d2e565b90506004816007811115610b7957610b79613102565b1480610b9657506005816007811115610b9457610b94613102565b145b610bec5760405162461bcd60e51b815260206004820152602160248201527f476f7665726e6f723a2070726f706f73616c206e6f74207375636365737366756044820152601b60fa1b6064820152608401610b17565b600082815261012f602052604090819020600201805460ff19166001179055517f712ae1383f79ac853f8d882153778e0260ef8f03b504e2866e0593e04d2b291f90610c3b9084815260200190565b60405180910390a1610c508288888888611710565b610c5d828888888861179d565b610c6a8288888888611710565b5095945050505050565b600081815261012f602090815260408083208151928301909152546001600160401b0316908190525b6001600160401b031692915050565b60006108496101925490565b604080517f150214d74d59b7d1e90c73fc22ef3d991dd0a76b046543d4d80ab92d2a50328f602082015290810186905260ff851660608201526000908190610d06906108ea906080016108cf565b9050610d238782886040518060200160405280600081525061189c565b979650505050505050565b600081815261012f60205260408120600281015460ff1615610d535750600792915050565b6002810154610100900460ff1615610d6e5750600292915050565b6000610d7984610c74565b905080600003610dcb5760405162461bcd60e51b815260206004820152601d60248201527f476f7665726e6f723a20756e6b6e6f776e2070726f706f73616c2069640000006044820152606401610b17565b438110610ddc575060009392505050565b6000610de785611266565b9050438110610dfb57506001949350505050565b610e04856118c8565b8015610e2457506000858152610160602052604090208054600190910154115b15610e3457506004949350505050565b506003949350505050565b6040805180820190915260018152603160f81b602082015290565b600080339050610e7b8482856040518060200160405280600081525061189c565b949350505050565b600061084943611900565b600080339050610d2387828888888080601f0160208091040260200160405190810160405280939291908181526020018383808284376000920191909152508a92506115ab915050565b6000610ee460016119df565b90508015610efc576000805461ff0019166101001790555b610f04611a73565b610f0d82611a9c565b610f1a6000846000611add565b8015610f60576000805461ff0019169055604051600181527f7f26b83ff96e1f2b6a682f133852f6798a09c465da95921460cefb38474024989060200160405180910390a15b505050565b333014610f845760405162461bcd60e51b8152600401610b1790613715565b610f9c565b80610f95610130611b0f565b03610f8957505b610fa581611b85565b50565b600080339050610ff086828787878080601f01602080910402602001604051908101604052809392919081815260200183838082843760009201919091525061189c92505050565b9695505050505050565b60003360007f00000000000000000000000000000000000000000000000000000000000000006001600160a01b03166330108c22836040518263ffffffff1660e01b815260040161104b9190613694565b602060405180830381865afa158015611068573d6000803e3d6000fd5b505050506040513d601f19601f8201168201806040525081019061108c91906136a8565b6040516310ab556b60e21b81529091506001600160a01b037f000000000000000000000000000000000000000000000000000000000000000016906342ad55ac906110db908490600401613694565b602060405180830381865afa1580156110f8573d6000803e3d6000fd5b505050506040513d601f19601f8201168201806040525081019061111c91906136c5565b6111385760405162461bcd60e51b8152600401610b17906136e7565b610d2387878787611bc8565b6000611151848484611e66565b90505b9392505050565b6060816001600160401b0381111561117557611175612b95565b6040519080825280602002602001820160405280156111a857816020015b60608152602001906001900390816111935790505b50905060005b82811015611247576112178484838181106111cb576111cb613747565b90506020028101906111dd919061375d565b8080601f016020809104026020016040519081016040528093929190818152602001838380828437600092019190915250611e7292505050565b82828151811061122957611229613747565b6020026020010181905250808061123f906137b9565b9150506111ae565b5092915050565b60006108496101945490565b60006108268243611ef0565b600081815261012f602090815260408083208151928301909152600101546001600160401b031690819052610c9d565b3330146112b55760405162461bcd60e51b8152600401610b1790613715565b6112cd565b806112c6610130611b0f565b036112ba57505b61130f8483838080601f016020809104026020016040519081016040528093929190818152602001838380828437600092019190915250889250611f8c915050565b5050505050565b60004315611342576040516344f1a1fb60e01b81526001600160401b0382166004820152602401610b17565b8151610f60906001906020850190612a84565b60008484848460405160200161136e9493929190613846565b60408051601f19818403018152919052805160209091012095945050505050565b60014381146113bc576040516344f1a1fb60e01b81526001600160401b0382166004820152602401610b17565b6000600180546113cb9061365a565b90501115610fa557611466600180546113e39061365a565b80601f016020809104026020016040519081016040528092919081815260200182805461140f9061365a565b801561145c5780601f106114315761010080835404028352916020019161145c565b820191906000526020600020905b81548152906001019060200180831161143f57829003601f168201915b5050505050611e72565b5050565b3330146114895760405162461bcd60e51b8152600401610b1790613715565b6114a1565b8061149a610130611b0f565b0361148e57505b610fa581611fb2565b600061115483836114c660408051602081019091526000815290565b611e66565b3330146114ea5760405162461bcd60e51b8152600401610b1790613715565b611502565b806114fb610130611b0f565b036114ef57505b610fa581612055565b60008061151783611900565b90506003611526826002613891565b61115491906138b0565b6001600160a01b03163b151590565b600061082661154c612098565b8360405161190160f01b6020820152602281018390526042810182905260009060620160405160208183030381529060405280519060200120905092915050565b600080600061159e87878787612113565b91509150610c6a816121f6565b600085815261012f6020526040812060016115c588610d2e565b60078111156115d6576115d6613102565b1461162f5760405162461bcd60e51b815260206004820152602360248201527f476f7665726e6f723a20766f7465206e6f742063757272656e746c792061637460448201526269766560e81b6064820152608401610b17565b604080516020810190915281546001600160401b03169081905260009061165890889086611e66565b905061166788888884886123a7565b83516000036116bc57866001600160a01b03167fb8e138887d0aa13bab447e82de9d5c1777041ecd21ca36ba824ff1e6c07ddda4898884896040516116af94939291906138d2565b60405180910390a2610d23565b866001600160a01b03167fe2babfbac5889a709b63bb7f598b324e08bc5a4fb9ec647fb3cbc9ec07eb871289888489896040516116fd9594939291906138fa565b60405180910390a2979650505050505050565b61130f565b845181101561179557306001600160a01b031685828151811061173a5761173a613747565b60200260200101516001600160a01b0316036117855761178583828151811061176557611765613747565b60200260200101518051906020012061013061244690919063ffffffff16565b61178e816137b9565b9050611715565b505050505050565b6000604051806060016040528060278152602001613d1560279139905060005b8551811015611893576000808783815181106117db576117db613747565b60200260200101516001600160a01b03168784815181106117fe576117fe613747565b602002602001015187858151811061181857611818613747565b602002602001015160405161182d9190613940565b60006040518083038185875af1925050503d806000811461186a576040519150601f19603f3d011682016040523d82523d6000602084013e61186f565b606091505b509150915061187f828286612482565b5050508061188c906137b9565b90506117bd565b50505050505050565b60006118bf858585856118ba60408051602081019091526000815290565b6115ab565b95945050505050565b600081815261016060205260408120600281015460018201546118eb919061395c565b6118f76107ba85610c74565b11159392505050565b6000807f00000000000000000000000000000000000000000000000000000000000000006001600160a01b031663b7ab4db56040518163ffffffff1660e01b8152600401600060405180830381865afa158015611961573d6000803e3d6000fd5b505050506040513d6000823e601f3d908101601f191682016040526119899190810190613974565b905060005b81518110156119d8576119ba8282815181106119ac576119ac613747565b6020026020010151856124bb565b6119c4908461395c565b9250806119d0816137b9565b91505061198e565b5050919050565b60008054610100900460ff1615611a2d578160ff166001148015611a095750611a0730611530565b155b611a255760405162461bcd60e51b8152600401610b1790613a02565b506000919050565b60005460ff808416911610611a545760405162461bcd60e51b8152600401610b1790613a02565b506000805460ff191660ff92909216919091179055600190565b919050565b600054610100900460ff16611a9a5760405162461bcd60e51b8152600401610b1790613a50565b565b600054610100900460ff16611ac35760405162461bcd60e51b8152600401610b1790613a50565b611ad481611acf610e3f565b61269d565b610fa5816126de565b600054610100900460ff16611b045760405162461bcd60e51b8152600401610b1790613a50565b610f60838383612719565b6000611b2a8254600f81810b600160801b909204900b131590565b15611b4857604051631ed9509560e11b815260040160405180910390fd5b508054600f0b6000818152600180840160205260408220805492905583546001600160801b03191692016001600160801b03169190911790915590565b6101925460408051918252602082018390527fc565b045403dc03c2eea82b81a0465edad9e2e7fc4d97e11421c209da93d7a93910160405180910390a161019255565b6000611bd261124e565b611be13361074e600143613a9b565b1015611c495760405162461bcd60e51b815260206004820152603160248201527f476f7665726e6f723a2070726f706f73657220766f7465732062656c6f7720706044820152701c9bdc1bdcd85b081d1a1c995cda1bdb19607a1b6064820152608401610b17565b6000611c5e8686868680519060200120611355565b90508451865114611c815760405162461bcd60e51b8152600401610b1790613ab2565b8351865114611ca25760405162461bcd60e51b8152600401610b1790613ab2565b6000865111611cee5760405162461bcd60e51b815260206004820152601860248201527711dbdd995c9b9bdc8e88195b5c1d1e481c1c9bdc1bdcd85b60421b6044820152606401610b17565b600081815261012f6020908152604091829020825191820190925281546001600160401b03169081905215611d6f5760405162461bcd60e51b815260206004820152602160248201527f476f7665726e6f723a2070726f706f73616c20616c72656164792065786973746044820152607360f81b6064820152608401610b17565b6000611d81611d7c610cac565b61275b565b611d8a4361275b565b611d949190613af3565b90506000611da3611d7c61082c565b611dad9083613af3565b9050611db983836127c7565b611dc660018401826127c7565b7f7d84a6263ae0d98d3329bd7b46bb4e8d6f98cd35a7adb45c274c8b7fd5ebd5e084338b8b8d516001600160401b03811115611e0457611e04612b95565b604051908082528060200260200182016040528015611e3757816020015b6060815260200190600190039081611e225790505b508c88888e604051611e5199989796959493929190613b1e565b60405180910390a15091979650505050505050565b60006111518484611ef0565b6060600080306001600160a01b031684604051611e8f9190613940565b600060405180830381855af49150503d8060008114611eca576040519150601f19603f3d011682016040523d82523d6000602084013e611ecf565b606091505b50915091508115611ee1579392505050565b8051156101e857805181602001fd5b6000807f00000000000000000000000000000000000000000000000000000000000000006001600160a01b03166330108c22856040518263ffffffff1660e01b8152600401611f3f9190613694565b602060405180830381865afa158015611f5c573d6000803e3d6000fd5b505050506040513d601f19601f82011682018060405250810190611f8091906136a8565b9050610e7b81846124bb565b6060611151848484604051806060016040528060298152602001613d3c602991396127e5565b600081116120125760405162461bcd60e51b815260206004820152602760248201527f476f7665726e6f7253657474696e67733a20766f74696e6720706572696f6420604482015266746f6f206c6f7760c81b6064820152608401610b17565b6101935460408051918252602082018390527f7e3f7f0708a84de9203036abaa450dccc85ad5ff52f78c170f3edb55cf5e8828910160405180910390a161019355565b6101945460408051918252602082018390527fccb45da8d5717e6c4544694297c4ba5cf151d455c9bb0ed4fc7a38411bc05461910160405180910390a161019455565b60006108497f8b73c3c69bb8fe3d512ecc4cf759cc79239f7b179b0ffacaa9a75d522b39400f6120c760c85490565b60c9546040805160208101859052908101839052606081018290524660808201523060a082015260009060c0016040516020818303038152906040528051906020012090509392505050565b6000806fa2a8918ca85bafe22016d0b997e4df60600160ff1b0383111561214057506000905060036121ed565b8460ff16601b1415801561215857508460ff16601c14155b1561216957506000905060046121ed565b6040805160008082526020820180845289905260ff881692820192909252606081018690526080810185905260019060a0016020604051602081039080840390855afa1580156121bd573d6000803e3d6000fd5b5050604051601f1901519150506001600160a01b0381166121e6576000600192509250506121ed565b9150600090505b94509492505050565b600081600481111561220a5761220a613102565b036122125750565b600181600481111561222657612226613102565b0361226e5760405162461bcd60e51b815260206004820152601860248201527745434453413a20696e76616c6964207369676e617475726560401b6044820152606401610b17565b600281600481111561228257612282613102565b036122cf5760405162461bcd60e51b815260206004820152601f60248201527f45434453413a20696e76616c6964207369676e6174757265206c656e677468006044820152606401610b17565b60038160048111156122e3576122e3613102565b0361233b5760405162461bcd60e51b815260206004820152602260248201527f45434453413a20696e76616c6964207369676e6174757265202773272076616c604482015261756560f01b6064820152608401610b17565b600481600481111561234f5761234f613102565b03610fa55760405162461bcd60e51b815260206004820152602260248201527f45434453413a20696e76616c6964207369676e6174757265202776272076616c604482015261756560f01b6064820152608401610b17565b604051631808461160e11b81526000906001600160a01b037f000000000000000000000000000000000000000000000000000000000000000016906330108c22906123f6908890600401613694565b602060405180830381865afa158015612413573d6000803e3d6000fd5b505050506040513d601f19601f8201168201806040525081019061243791906136a8565b90506117958682868686612909565b8154600160801b90819004600f0b6000818152600180860160205260409091209390935583546001600160801b03908116939091011602179055565b60608315612491575081611154565b8251156124a15782518084602001fd5b8160405162461bcd60e51b8152600401610b179190612d50565b6040516310ab556b60e21b81526000906001600160a01b037f000000000000000000000000000000000000000000000000000000000000000016906342ad55ac9061250a908690600401613694565b602060405180830381865afa158015612527573d6000803e3d6000fd5b505050506040513d601f19601f8201168201806040525081019061254b91906136c5565b61255757506000610826565b60007f00000000000000000000000000000000000000000000000000000000000000006001600160a01b031663346c90a86040518163ffffffff1660e01b8152600401602060405180830381865afa1580156125b7573d6000803e3d6000fd5b505050506040513d601f19601f820116820180604052508101906125db9190613c21565b6125eb9063ffffffff16846138b0565b604051632409269360e11b81526001600160a01b0386811660048301526001600160401b03831660248301529192506000917f000000000000000000000000000000000000000000000000000000000000000016906348124d269060440161012060405180830381865afa158015612667573d6000803e3d6000fd5b505050506040513d601f19601f8201168201806040525081019061268b9190613c53565b50949c9b505050505050505050505050565b600054610100900460ff166126c45760405162461bcd60e51b8152600401610b1790613a50565b81516020928301208151919092012060c89190915560c955565b600054610100900460ff166127055760405162461bcd60e51b8152600401610b1790613a50565b80516114669061012e906020840190612a84565b600054610100900460ff166127405760405162461bcd60e51b8152600401610b1790613a50565b61274983611b85565b61275282611fb2565b610f6081612055565b60006001600160401b038211156127c35760405162461bcd60e51b815260206004820152602660248201527f53616665436173743a2076616c756520646f65736e27742066697420696e203660448201526534206269747360d01b6064820152608401610b17565b5090565b815467ffffffffffffffff19166001600160401b0391909116179055565b6060824710156128465760405162461bcd60e51b815260206004820152602660248201527f416464726573733a20696e73756666696369656e742062616c616e636520666f6044820152651c8818d85b1b60d21b6064820152608401610b17565b61284f85611530565b61289b5760405162461bcd60e51b815260206004820152601d60248201527f416464726573733a2063616c6c20746f206e6f6e2d636f6e74726163740000006044820152606401610b17565b600080866001600160a01b031685876040516128b79190613940565b60006040518083038185875af1925050503d80600081146128f4576040519150601f19603f3d011682016040523d82523d6000602084013e6128f9565b606091505b5091509150610d23828286612482565b6000858152610160602090815260408083206001600160a01b0388168452600381019092529091205460ff16156129925760405162461bcd60e51b815260206004820152602760248201527f476f7665726e6f72566f74696e6753696d706c653a20766f746520616c726561604482015266191e4818d85cdd60ca1b6064820152608401610b17565b6001600160a01b03851660009081526003820160205260409020805460ff1916600117905560ff84166129de57828160000160008282546129d3919061395c565b909155506117959050565b60001960ff8516016129fe57828160010160008282546129d3919061395c565b60011960ff851601612a1e57828160020160008282546129d3919061395c565b60405162461bcd60e51b815260206004820152603560248201527f476f7665726e6f72566f74696e6753696d706c653a20696e76616c69642076616044820152746c756520666f7220656e756d20566f74655479706560581b6064820152608401610b17565b828054612a909061365a565b90600052602060002090601f016020900481019282612ab25760008555612af8565b82601f10612acb57805160ff1916838001178555612af8565b82800160010185558215612af8579182015b82811115612af8578251825591602001919060010190612add565b506127c39291505b808211156127c35760008155600101612b00565b600060208284031215612b2657600080fd5b81356001600160e01b03198116811461115457600080fd5b60ff81168114610fa557600080fd5b60008083601f840112612b5f57600080fd5b5081356001600160401b03811115612b7657600080fd5b602083019150836020828501011115612b8e57600080fd5b9250929050565b634e487b7160e01b600052604160045260246000fd5b604051601f8201601f191681016001600160401b0381118282101715612bd357612bd3612b95565b604052919050565b600082601f830112612bec57600080fd5b81356001600160401b03811115612c0557612c05612b95565b612c18601f8201601f1916602001612bab565b818152846020838601011115612c2d57600080fd5b816020850160208301376000918101602001919091529392505050565b60008060008060008060008060e0898b031215612c6657600080fd5b883597506020890135612c7881612b3e565b965060408901356001600160401b0380821115612c9457600080fd5b612ca08c838d01612b4d565b909850965060608b0135915080821115612cb957600080fd5b50612cc68b828c01612bdb565b9450506080890135612cd781612b3e565b979a969950949793969295929450505060a08201359160c0013590565b60005b83811015612d0f578181015183820152602001612cf7565b83811115612d1e576000848401525b50505050565b60008151808452612d3c816020860160208601612cf4565b601f01601f19169290920160200192915050565b6020815260006111546020830184612d24565b60006001600160401b03821115612d7c57612d7c612b95565b5060051b60200190565b6001600160a01b0381168114610fa557600080fd5b600082601f830112612dac57600080fd5b81356020612dc1612dbc83612d63565b612bab565b82815260059290921b84018101918181019086841115612de057600080fd5b8286015b84811015612e04578035612df781612d86565b8352918301918301612de4565b509695505050505050565b600082601f830112612e2057600080fd5b81356020612e30612dbc83612d63565b82815260059290921b84018101918181019086841115612e4f57600080fd5b8286015b84811015612e045780358352918301918301612e53565b600082601f830112612e7b57600080fd5b81356020612e8b612dbc83612d63565b82815260059290921b84018101918181019086841115612eaa57600080fd5b8286015b84811015612e045780356001600160401b03811115612ecd5760008081fd5b612edb8986838b0101612bdb565b845250918301918301612eae565b600080600080600060a08688031215612f0157600080fd5b85356001600160401b0380821115612f1857600080fd5b612f2489838a01612d9b565b96506020880135915080821115612f3a57600080fd5b612f4689838a01612e0f565b95506040880135915080821115612f5c57600080fd5b612f6889838a01612e6a565b94506060880135915080821115612f7e57600080fd5b50612f8b88828901612bdb565b95989497509295608001359392505050565b60008060008060808587031215612fb357600080fd5b8435612fbe81612d86565b93506020850135612fce81612d86565b92506040850135915060608501356001600160401b03811115612ff057600080fd5b612ffc87828801612bdb565b91505092959194509250565b6000806000806080858703121561301e57600080fd5b84356001600160401b038082111561303557600080fd5b61304188838901612d9b565b9550602087013591508082111561305757600080fd5b61306388838901612e0f565b9450604087013591508082111561307957600080fd5b5061308687828801612e6a565b949793965093946060013593505050565b6000602082840312156130a957600080fd5b5035919050565b600080600080600060a086880312156130c857600080fd5b8535945060208601356130da81612b3e565b935060408601356130ea81612b3e565b94979396509394606081013594506080013592915050565b634e487b7160e01b600052602160045260246000fd5b602081016008831061313a57634e487b7160e01b600052602160045260246000fd5b91905290565b6000806040838503121561315357600080fd5b82359150602083013561316581612d86565b809150509250929050565b6000806040838503121561318357600080fd5b82359150602083013561316581612b3e565b6000806000806000608086880312156131ad57600080fd5b8535945060208601356131bf81612b3e565b935060408601356001600160401b03808211156131db57600080fd5b6131e789838a01612b4d565b9095509350606088013591508082111561320057600080fd5b5061320d88828901612bdb565b9150509295509295909350565b6000806040838503121561322d57600080fd5b8235915060208301356001600160401b0381111561324a57600080fd5b61325685828601612bdb565b9150509250929050565b6000806000806060858703121561327657600080fd5b84359350602085013561328881612b3e565b925060408501356001600160401b038111156132a357600080fd5b6132af87828801612b4d565b95989497509550505050565b600080600080608085870312156132d157600080fd5b84356001600160401b03808211156132e857600080fd5b6132f488838901612d9b565b9550602087013591508082111561330a57600080fd5b61331688838901612e0f565b9450604087013591508082111561332c57600080fd5b61333888838901612e6a565b9350606087013591508082111561334e57600080fd5b50612ffc87828801612bdb565b60008060006060848603121561337057600080fd5b833561337b81612d86565b92506020840135915060408401356001600160401b0381111561339d57600080fd5b6133a986828701612bdb565b9150509250925092565b600080602083850312156133c657600080fd5b82356001600160401b03808211156133dd57600080fd5b818501915085601f8301126133f157600080fd5b81358181111561340057600080fd5b8660208260051b850101111561341557600080fd5b60209290920196919550909350505050565b600081518084526020808501808196508360051b8101915082860160005b8581101561346f57828403895261345d848351612d24565b98850198935090840190600101613445565b5091979650505050505050565b6020815260006111546020830184613427565b6000602082840312156134a157600080fd5b813561115481612d86565b600080600080600060a086880312156134c457600080fd5b85356134cf81612d86565b945060208601356134df81612d86565b935060408601356001600160401b03808211156134fb57600080fd5b61350789838a01612e0f565b9450606088013591508082111561351d57600080fd5b61352989838a01612e0f565b9350608088013591508082111561320057600080fd5b6000806000806060858703121561355557600080fd5b843561356081612d86565b93506020850135925060408501356001600160401b038111156132a357600080fd5b60006020828403121561359457600080fd5b81356001600160401b038111156135aa57600080fd5b610e7b84828501612bdb565b600080604083850312156135c957600080fd5b82356135d481612d86565b946020939093013593505050565b600080600080600060a086880312156135fa57600080fd5b853561360581612d86565b9450602086013561361581612d86565b9350604086013592506060860135915060808601356001600160401b0381111561363e57600080fd5b61320d88828901612bdb565b8183823760009101908152919050565b600181811c9082168061366e57607f821691505b60208210810361368e57634e487b7160e01b600052602260045260246000fd5b50919050565b6001600160a01b0391909116815260200190565b6000602082840312156136ba57600080fd5b815161115481612d86565b6000602082840312156136d757600080fd5b8151801515811461115457600080fd5b60208082526014908201527337b7363c903b30b634b230ba37b91037bbb732b960611b604082015260600190565b602080825260189082015277476f7665726e6f723a206f6e6c79476f7665726e616e636560401b604082015260600190565b634e487b7160e01b600052603260045260246000fd5b6000808335601e1984360301811261377457600080fd5b8301803591506001600160401b0382111561378e57600080fd5b602001915036819003821315612b8e57600080fd5b634e487b7160e01b600052601160045260246000fd5b6000600182016137cb576137cb6137a3565b5060010190565b600081518084526020808501945080840160005b8381101561380b5781516001600160a01b0316875295820195908201906001016137e6565b509495945050505050565b600081518084526020808501945080840160005b8381101561380b5781518752958201959082019060010161382a565b60808152600061385960808301876137d2565b828103602084015261386b8187613816565b9050828103604084015261387f8186613427565b91505082606083015295945050505050565b60008160001904831182151516156138ab576138ab6137a3565b500290565b6000826138cd57634e487b7160e01b600052601260045260246000fd5b500490565b84815260ff84166020820152826040820152608060608201526000610ff06080830184612d24565b85815260ff8516602082015283604082015260a06060820152600061392260a0830185612d24565b82810360808401526139348185612d24565b98975050505050505050565b60008251613952818460208701612cf4565b9190910192915050565b6000821982111561396f5761396f6137a3565b500190565b6000602080838503121561398757600080fd5b82516001600160401b0381111561399d57600080fd5b8301601f810185136139ae57600080fd5b80516139bc612dbc82612d63565b81815260059190911b820183019083810190878311156139db57600080fd5b928401925b82841015610d235783516139f381612d86565b825292840192908401906139e0565b6020808252602e908201527f496e697469616c697a61626c653a20636f6e747261637420697320616c72656160408201526d191e481a5b9a5d1a585b1a5e995960921b606082015260800190565b6020808252602b908201527f496e697469616c697a61626c653a20636f6e7472616374206973206e6f74206960408201526a6e697469616c697a696e6760a81b606082015260800190565b600082821015613aad57613aad6137a3565b500390565b60208082526021908201527f476f7665726e6f723a20696e76616c69642070726f706f73616c206c656e67746040820152600d60fb1b606082015260800190565b60006001600160401b03808316818516808303821115613b1557613b156137a3565b01949350505050565b60006101208b8352602060018060a01b038c1681850152816040850152613b478285018c6137d2565b91508382036060850152613b5b828b613816565b915083820360808501528189518084528284019150828160051b850101838c0160005b83811015613bac57601f19878403018552613b9a838351612d24565b94860194925090850190600101613b7e565b505086810360a0880152613bc0818c613427565b945050505050613bdb60c08401876001600160401b03169052565b6001600160401b03851660e0840152828103610100840152613bfd8185612d24565b9c9b505050505050505050505050565b805163ffffffff81168114611a6e57600080fd5b600060208284031215613c3357600080fd5b61115482613c0d565b80516001600160401b0381168114611a6e57600080fd5b60008060008060008060008060006101208a8c031215613c7257600080fd5b8951613c7d81612d86565b60208b0151909950613c8e81612b3e565b60408b01519098509650613ca460608b01613c0d565b9550613cb260808b01613c3c565b9450613cc060a08b01613c3c565b9350613cce60c08b01613c3c565b925060e08a015161ffff81168114613ce557600080fd5b6101008b01519092506001600160601b0381168114613d0357600080fd5b80915050929598509295985092959856fe476f7665726e6f723a2063616c6c20726576657274656420776974686f7574206d657373616765416464726573733a206c6f772d6c6576656c2063616c6c20776974682076616c7565206661696c6564a2646970667358221220dd87528831bb282474e5f7c2520940b84cf02777899d748d0da264e42e820b6d64736f6c634300080e0033",
  "immutableReferences": {
    "7315": [
      {
        "length": 32,
        "start": 2528
      },
      {
        "length": 32,
        "start": 2693
      },
      {
        "length": 32,
        "start": 4097
      },
      {
        "length": 32,
        "start": 4262
      },
      {
        "length": 32,
        "start": 6405
      },
      {
        "length": 32,
        "start": 7925
      },
      {
        "length": 32,
        "start": 9153
      },
      {
        "length": 32,
        "start": 9429
      },
      {
        "length": 32,
        "start": 9759
      }
    ],
    "7330": [
      {
        "length": 32,
        "start": 9563
      }
    ]
  },
  "source": "// SPDX-License-Identifier: GPL-3.0-only\npragma solidity ^0.8.0;\n\nimport \"@openzeppelin/contracts-upgradeable/governance/extensions/GovernorSettingsUpgradeable.sol\";\nimport \"@openzeppelin/contracts-upgradeable/governance/extensions/GovernorCountingSimpleUpgradeable.sol\";\n\nimport \"./InjectorContextHolder.sol\";\n\ncontract Governance is InjectorContextHolder, GovernorCountingSimpleUpgradeable, GovernorSettingsUpgradeable, IGovernance {\n\n    uint256 internal _instantVotingPeriod;\n\n    constructor(\n        IStaking stakingContract,\n        ISlashingIndicator slashingIndicatorContract,\n        ISystemReward systemRewardContract,\n        IStakingPool stakingPoolContract,\n        IGovernance governanceContract,\n        IChainConfig chainConfigContract,\n        IRuntimeUpgrade runtimeUpgradeContract,\n        IDeployerProxy deployerProxyContract\n    ) InjectorContextHolder(\n        stakingContract,\n        slashingIndicatorContract,\n        systemRewardContract,\n        stakingPoolContract,\n        governanceContract,\n        chainConfigContract,\n        runtimeUpgradeContract,\n        deployerProxyContract\n    ) {\n    }\n\n    function initialize(uint256 newVotingPeriod, string memory name) external initializer {\n        __GovernorCountingSimple_init();\n        __Governor_init(name);\n        __GovernorSettings_init(0, newVotingPeriod, 0);\n    }\n\n    function getVotingSupply() external view returns (uint256) {\n        return _votingSupply(block.number);\n    }\n\n    function getVotingPower(address validator) external view returns (uint256) {\n        return _validatorOwnerVotingPowerAt(validator, block.number);\n    }\n\n    function proposeWithCustomVotingPeriod(\n        address[] memory targets,\n        uint256[] memory values,\n        bytes[] memory calldatas,\n        string memory description,\n        uint256 customVotingPeriod\n    ) public virtual onlyValidatorOwner(msg.sender) returns (uint256) {\n        _instantVotingPeriod = customVotingPeriod;\n        uint256 proposalId = propose(targets, values, calldatas, description);\n        _instantVotingPeriod = 0;\n        return proposalId;\n    }\n\n    function propose(\n        address[] memory targets,\n        uint256[] memory values,\n        bytes[] memory calldatas,\n        string memory description\n    ) public virtual override onlyValidatorOwner(msg.sender) returns (uint256) {\n        return GovernorUpgradeable.propose(targets, values, calldatas, description);\n    }\n\n    modifier onlyValidatorOwner(address account) {\n        address validatorAddress = _STAKING_CONTRACT.getValidatorByOwner(account);\n        require(_STAKING_CONTRACT.isValidatorActive(validatorAddress), \"only validator owner\");\n        _;\n    }\n\n    function votingPeriod() public view override(IGovernorUpgradeable, GovernorSettingsUpgradeable) returns (uint256) {\n        // let use re-defined voting period for the proposals\n        if (_instantVotingPeriod != 0) {\n            return _instantVotingPeriod;\n        }\n        return GovernorSettingsUpgradeable.votingPeriod();\n    }\n\n    function _getVotes(address account, uint256 blockNumber, bytes memory /*params*/) internal view virtual override returns (uint256) {\n        return _validatorOwnerVotingPowerAt(account, blockNumber);\n    }\n\n    function _countVote(uint256 proposalId, address account, uint8 support, uint256 weight, bytes memory params) internal virtual override(GovernorUpgradeable, GovernorCountingSimpleUpgradeable) {\n        address validatorAddress = _STAKING_CONTRACT.getValidatorByOwner(account);\n        return super._countVote(proposalId, validatorAddress, support, weight, params);\n    }\n\n    function _validatorOwnerVotingPowerAt(address validatorOwner, uint256 blockNumber) internal view returns (uint256) {\n        address validator = _STAKING_CONTRACT.getValidatorByOwner(validatorOwner);\n        return _validatorVotingPowerAt(validator, blockNumber);\n    }\n\n    function _validatorVotingPowerAt(address validator, uint256 blockNumber) internal view returns (uint256) {\n        // only active validators power makes sense\n        if (!_STAKING_CONTRACT.isValidatorActive(validator)) {\n            return 0;\n        }\n        // find validator votes at block number\n        uint64 epoch = uint64(blockNumber / _CHAIN_CONFIG_CONTRACT.getEpochBlockInterval());\n        (,,uint256 totalDelegated,,,,,,) = _STAKING_CONTRACT.getValidatorStatusAtEpoch(validator, epoch);\n        // use total delegated amount is a voting power\n        return totalDelegated;\n    }\n\n    function _votingSupply(uint256 blockNumber) internal view returns (uint256 votingSupply) {\n        address[] memory validators = _STAKING_CONTRACT.getValidators();\n        for (uint256 i = 0; i < validators.length; i++) {\n            votingSupply += _validatorVotingPowerAt(validators[i], blockNumber);\n        }\n        return votingSupply;\n    }\n\n    function quorum(uint256 blockNumber) public view override returns (uint256) {\n        uint256 votingSupply = _votingSupply(blockNumber);\n        return votingSupply * 2 / 3;\n    }\n\n    function votingDelay() public view override(IGovernorUpgradeable, GovernorSettingsUpgradeable) returns (uint256) {\n        return GovernorSettingsUpgradeable.votingDelay();\n    }\n\n    function proposalThreshold() public view virtual override(GovernorUpgradeable, GovernorSettingsUpgradeable) returns (uint256) {\n        return GovernorSettingsUpgradeable.proposalThreshold();\n    }\n}",
  "sourcePath": "/Users/user/source/git/bas-genesis-config/contracts/Governance.sol",
  "compiler": {
    "name": "solc",
    "version": "0.8.14+commit.80d49f37.Emscripten.clang"
  },
  "schemaVersion": "3.4.4",
  "updatedAt": "2022-10-09T03:31:57.542Z",
  "devdoc": {
    "errors": {
      "Empty()": [
        {
          "details": "An operation (e.g. {front}) couldn't be completed due to the queue being empty."
        }
      ]
    },
    "kind": "dev",
    "methods": {
      "COUNTING_MODE()": {
        "details": "See {IGovernor-COUNTING_MODE}."
      },
      "castVote(uint256,uint8)": {
        "details": "See {IGovernor-castVote}."
      },
      "castVoteBySig(uint256,uint8,uint8,bytes32,bytes32)": {
        "details": "See {IGovernor-castVoteBySig}."
      },
      "castVoteWithReason(uint256,uint8,string)": {
        "details": "See {IGovernor-castVoteWithReason}."
      },
      "castVoteWithReasonAndParams(uint256,uint8,string,bytes)": {
        "details": "See {IGovernor-castVoteWithReasonAndParams}."
      },
      "castVoteWithReasonAndParamsBySig(uint256,uint8,string,bytes,uint8,bytes32,bytes32)": {
        "details": "See {IGovernor-castVoteWithReasonAndParamsBySig}."
      },
      "execute(address[],uint256[],bytes[],bytes32)": {
        "details": "See {IGovernor-execute}."
      },
      "getVotes(address,uint256)": {
        "details": "See {IGovernor-getVotes}."
      },
      "getVotesWithParams(address,uint256,bytes)": {
        "details": "See {IGovernor-getVotesWithParams}."
      },
      "hasVoted(uint256,address)": {
        "details": "See {IGovernor-hasVoted}."
      },
      "hashProposal(address[],uint256[],bytes[],bytes32)": {
        "details": "See {IGovernor-hashProposal}. The proposal id is produced by hashing the RLC encoded `targets` array, the `values` array, the `calldatas` array and the descriptionHash (bytes32 which itself is the keccak256 hash of the description string). This proposal id can be produced from the proposal data which is part of the {ProposalCreated} event. It can even be computed in advance, before the proposal is submitted. Note that the chainId and the governor address are not part of the proposal id computation. Consequently, the same proposal (with same operation and same description) will have the same id if submitted on multiple governors across multiple networks. This also means that in order to execute the same operation twice (on the same governor) the proposer will have to change the description in order to avoid proposal id conflicts."
      },
      "name()": {
        "details": "See {IGovernor-name}."
      },
      "onERC1155BatchReceived(address,address,uint256[],uint256[],bytes)": {
        "details": "See {IERC1155Receiver-onERC1155BatchReceived}."
      },
      "onERC1155Received(address,address,uint256,uint256,bytes)": {
        "details": "See {IERC1155Receiver-onERC1155Received}."
      },
      "onERC721Received(address,address,uint256,bytes)": {
        "details": "See {IERC721Receiver-onERC721Received}."
      },
      "proposalDeadline(uint256)": {
        "details": "See {IGovernor-proposalDeadline}."
      },
      "proposalSnapshot(uint256)": {
        "details": "See {IGovernor-proposalSnapshot}."
      },
      "proposalVotes(uint256)": {
        "details": "Accessor to the internal vote counts."
      },
      "propose(address[],uint256[],bytes[],string)": {
        "details": "See {IGovernor-propose}."
      },
      "quorum(uint256)": {
        "details": "Minimum number of cast voted required for a proposal to be successful. Note: The `blockNumber` parameter corresponds to the snapshot used for counting vote. This allows to scale the quorum depending on values such as the totalSupply of a token at this block (see {ERC20Votes})."
      },
      "relay(address,uint256,bytes)": {
        "details": "Relays a transaction or function call to an arbitrary target. In cases where the governance executor is some contract other than the governor itself, like when using a timelock, this function can be invoked in a governance proposal to recover tokens or Ether that was sent to the governor contract by mistake. Note that if the executor is simply the governor itself, use of `relay` is redundant."
      },
      "setProposalThreshold(uint256)": {
        "details": "Update the proposal threshold. This operation can only be performed through a governance proposal. Emits a {ProposalThresholdSet} event."
      },
      "setVotingDelay(uint256)": {
        "details": "Update the voting delay. This operation can only be performed through a governance proposal. Emits a {VotingDelaySet} event."
      },
      "setVotingPeriod(uint256)": {
        "details": "Update the voting period. This operation can only be performed through a governance proposal. Emits a {VotingPeriodSet} event."
      },
      "state(uint256)": {
        "details": "See {IGovernor-state}."
      },
      "supportsInterface(bytes4)": {
        "details": "See {IERC165-supportsInterface}."
      },
      "version()": {
        "details": "See {IGovernor-version}."
      }
    },
    "version": 1
  },
  "userdoc": {
    "kind": "user",
    "methods": {
      "quorum(uint256)": {
        "notice": "module:user-config"
      }
    },
    "version": 1
  }
}