{
  "contractName": "RuntimeUpgrade",
  "abi": [
    {
      "inputs": [
        {
          "internalType": "contract IStaking",
          "name": "stakingContract",
          "type": "address"
        },
        {
          "internalType": "contract ISlashingIndicator",
          "name": "slashingIndicatorContract",
          "type": "address"
        },
        {
          "internalType": "contract ISystemReward",
          "name": "systemRewardContract",
          "type": "address"
        },
        {
          "internalType": "contract IStakingPool",
          "name": "stakingPoolContract",
          "type": "address"
        },
        {
          "internalType": "contract IGovernance",
          "name": "governanceContract",
          "type": "address"
        },
        {
          "internalType": "contract IChainConfig",
          "name": "chainConfigContract",
          "type": "address"
        },
        {
          "internalType": "contract IRuntimeUpgrade",
          "name": "runtimeUpgradeContract",
          "type": "address"
        },
        {
          "internalType": "contract IDeployerProxy",
          "name": "deployerProxyContract",
          "type": "address"
        }
      ],
      "stateMutability": "nonpayable",
      "type": "constructor"
    },
    {
      "inputs": [
        {
          "internalType": "uint64",
          "name": "blockNumber",
          "type": "uint64"
        }
      ],
      "name": "OnlyBlock",
      "type": "error"
    },
    {
      "inputs": [
        {
          "internalType": "address",
          "name": "coinbase",
          "type": "address"
        }
      ],
      "name": "OnlyCoinbase",
      "type": "error"
    },
    {
      "inputs": [],
      "name": "OnlyGovernance",
      "type": "error"
    },
    {
      "inputs": [],
      "name": "OnlySlashingIndicator",
      "type": "error"
    },
    {
      "anonymous": false,
      "inputs": [
        {
          "indexed": false,
          "internalType": "address",
          "name": "account",
          "type": "address"
        },
        {
          "indexed": false,
          "internalType": "address",
          "name": "impl",
          "type": "address"
        },
        {
          "indexed": false,
          "internalType": "bytes",
          "name": "bytecode",
          "type": "bytes"
        }
      ],
      "name": "Deployed",
      "type": "event"
    },
    {
      "anonymous": false,
      "inputs": [
        {
          "indexed": false,
          "internalType": "uint8",
          "name": "version",
          "type": "uint8"
        }
      ],
      "name": "Initialized",
      "type": "event"
    },
    {
      "anonymous": false,
      "inputs": [
        {
          "indexed": false,
          "internalType": "address",
          "name": "account",
          "type": "address"
        },
        {
          "indexed": false,
          "internalType": "address",
          "name": "impl",
          "type": "address"
        },
        {
          "indexed": false,
          "internalType": "bytes",
          "name": "bytecode",
          "type": "bytes"
        }
      ],
      "name": "Upgraded",
      "type": "event"
    },
    {
      "inputs": [],
      "name": "init",
      "outputs": [],
      "stateMutability": "nonpayable",
      "type": "function"
    },
    {
      "inputs": [],
      "name": "isInitialized",
      "outputs": [
        {
          "internalType": "bool",
          "name": "",
          "type": "bool"
        }
      ],
      "stateMutability": "view",
      "type": "function"
    },
    {
      "inputs": [
        {
          "internalType": "bytes[]",
          "name": "data",
          "type": "bytes[]"
        }
      ],
      "name": "multicall",
      "outputs": [
        {
          "internalType": "bytes[]",
          "name": "results",
          "type": "bytes[]"
        }
      ],
      "stateMutability": "nonpayable",
      "type": "function"
    },
    {
      "inputs": [
        {
          "internalType": "bytes",
          "name": "delayedInitializer",
          "type": "bytes"
        }
      ],
      "name": "useDelayedInitializer",
      "outputs": [],
      "stateMutability": "nonpayable",
      "type": "function"
    },
    {
      "inputs": [],
      "name": "isEIP1967",
      "outputs": [
        {
          "internalType": "bool",
          "name": "",
          "type": "bool"
        }
      ],
      "stateMutability": "pure",
      "type": "function"
    },
    {
      "inputs": [
        {
          "internalType": "address payable",
          "name": "account",
          "type": "address"
        },
        {
          "internalType": "bytes",
          "name": "bytecode",
          "type": "bytes"
        },
        {
          "internalType": "bytes",
          "name": "data",
          "type": "bytes"
        }
      ],
      "name": "upgradeSystemSmartContract",
      "outputs": [],
      "stateMutability": "payable",
      "type": "function"
    },
    {
      "inputs": [
        {
          "internalType": "address payable",
          "name": "account",
          "type": "address"
        },
        {
          "internalType": "bytes",
          "name": "bytecode",
          "type": "bytes"
        },
        {
          "internalType": "bytes",
          "name": "data",
          "type": "bytes"
        }
      ],
      "name": "deploySystemSmartContract",
      "outputs": [],
      "stateMutability": "payable",
      "type": "function"
    },
    {
      "inputs": [],
      "name": "getSystemContracts",
      "outputs": [
        {
          "internalType": "address[]",
          "name": "",
          "type": "address[]"
        }
      ],
      "stateMutability": "view",
      "type": "function"
    }
  ],
  "bytecode": "0x6101806040523480156200001257600080fd5b506040516200173938038062001739833981016040819052620000359162000179565b6001600160a01b0380891660805280881660a05280871660c05280861660e05280851661010052808416610120528083166101405281166101605287878787878787876200008262000098565b5050505050505050505050505050505062000288565b620000a460ff620000a7565b50565b60008054610100900460ff161562000110578160ff166001148015620000e05750620000de306200015460201b62000c691760201c565b155b620001085760405162461bcd60e51b8152600401620000ff906200023a565b60405180910390fd5b506000919050565b60005460ff8084169116106200013a5760405162461bcd60e51b8152600401620000ff906200023a565b506000805460ff191660ff92909216919091179055600190565b6001600160a01b03163b151590565b6001600160a01b0381168114620000a457600080fd5b600080600080600080600080610100898b0312156200019757600080fd5b8851620001a48162000163565b60208a0151909850620001b78162000163565b60408a0151909750620001ca8162000163565b60608a0151909650620001dd8162000163565b60808a0151909550620001f08162000163565b60a08a0151909450620002038162000163565b60c08a0151909350620002168162000163565b60e08a0151909250620002298162000163565b809150509295985092959890939650565b6020808252602e908201527f496e697469616c697a61626c653a20636f6e747261637420697320616c72656160408201526d191e481a5b9a5d1a585b1a5e995960921b606082015260800190565b60805160a05160c05160e0516101005161012051610140516101605161143d620002fc6000396000610401015260006103ad01526000610359015260008181610305015281816104df01526108bd015260006102b10152600061025d01526000610209015260006101b5015261143d6000f3fe60806040526004361061006b5760003560e01c806318f062cd1461007057806338dc8ff31461009b578063392e53cd146100b0578063ac9650d8146100d3578063afaf1dbc14610100578063b427a08514610113578063c529d2f314610127578063e1c7392a14610147575b600080fd5b34801561007c57600080fd5b5061008561015c565b6040516100929190610f09565b60405180910390f35b6100ae6100a9366004610fb3565b6104d4565b005b3480156100bc57600080fd5b5060005415155b6040519015158152602001610092565b3480156100df57600080fd5b506100f36100ee366004611035565b6107bf565b60405161009291906110d9565b6100ae61010e366004610fb3565b6108b2565b34801561011f57600080fd5b5060016100c3565b34801561013357600080fd5b506100ae610142366004611169565b610b49565b34801561015357600080fd5b506100ae610b8d565b60655460609060009061017090600861122f565b6001600160401b0381111561018757610187611153565b6040519080825280602002602001820160405280156101b0578160200160208202803683370190505b5090507f0000000000000000000000000000000000000000000000000000000000000000816000815181106101e7576101e7611247565b60200260200101906001600160a01b031690816001600160a01b0316815250507f00000000000000000000000000000000000000000000000000000000000000008160018151811061023b5761023b611247565b60200260200101906001600160a01b031690816001600160a01b0316815250507f00000000000000000000000000000000000000000000000000000000000000008160028151811061028f5761028f611247565b60200260200101906001600160a01b031690816001600160a01b0316815250507f0000000000000000000000000000000000000000000000000000000000000000816003815181106102e3576102e3611247565b60200260200101906001600160a01b031690816001600160a01b0316815250507f00000000000000000000000000000000000000000000000000000000000000008160048151811061033757610337611247565b60200260200101906001600160a01b031690816001600160a01b0316815250507f00000000000000000000000000000000000000000000000000000000000000008160058151811061038b5761038b611247565b60200260200101906001600160a01b031690816001600160a01b0316815250507f0000000000000000000000000000000000000000000000000000000000000000816006815181106103df576103df611247565b60200260200101906001600160a01b031690816001600160a01b0316815250507f00000000000000000000000000000000000000000000000000000000000000008160078151811061043357610433611247565b60200260200101906001600160a01b031690816001600160a01b03168152505060005b6065548110156104ce576065818154811061047357610473611247565b6000918252602090912001546001600160a01b03168261049483600861122f565b815181106104a4576104a4611247565b6001600160a01b0390921660209283029190910190910152806104c68161125d565b915050610456565b50919050565b336001600160a01b037f0000000000000000000000000000000000000000000000000000000000000000161461051d576040516354348f0360e01b815260040160405180910390fd5b600085905060006001600160a01b0316816001600160a01b0316635c60da1b6040518163ffffffff1660e01b81526004016020604051808303816000875af115801561056d573d6000803e3d6000fd5b505050506040513d601f19601f820116820180604052508101906105919190611276565b6001600160a01b0316036105fd5760405162461bcd60e51b815260206004820152602860248201527f52756e74696d65557067726164653a20696d706c656d656e746174696f6e206e6044820152671bdd08199bdd5b9960c21b60648201526084015b60405180910390fd5b61060686610c78565b6106655760405162461bcd60e51b815260206004820152602a60248201527f52756e74696d65557067726164653a206f6e6c792073797374656d20736d61726044820152691d0818dbdb9d1c9858dd60b21b60648201526084016105f4565b60006106ab346000801b88888080601f016020809104026020016040519081016040528093929190818152602001838380828437600092019190915250610ce992505050565b9050821561071a5760405163278f794360e11b81526001600160a01b03831690634f1ef286906106e3908490889088906004016112c3565b600060405180830381600087803b1580156106fd57600080fd5b505af1158015610711573d6000803e3d6000fd5b50505050610779565b604051631b2ce7f360e11b81526001600160a01b03831690633659cfe6906107469084906004016112f1565b600060405180830381600087803b15801561076057600080fd5b505af1158015610774573d6000803e3d6000fd5b505050505b7f4fd8e25e7fcfeba07e2c020e262ab8e69affe0a4a5d76a78b9af8b4d948804a1878288886040516107ae9493929190611305565b60405180910390a150505050505050565b6060816001600160401b038111156107d9576107d9611153565b60405190808252806020026020018201604052801561080c57816020015b60608152602001906001900390816107f75790505b50905060005b828110156108ab5761087b84848381811061082f5761082f611247565b9050602002810190610841919061133c565b8080601f016020809104026020016040519081016040528093929190818152602001838380828437600092019190915250610df292505050565b82828151811061088d5761088d611247565b602002602001018190525080806108a39061125d565b915050610812565b5092915050565b336001600160a01b037f000000000000000000000000000000000000000000000000000000000000000016146108fb576040516354348f0360e01b815260040160405180910390fd5b600085905060006001600160a01b0316816001600160a01b0316635c60da1b6040518163ffffffff1660e01b81526004016020604051808303816000875af115801561094b573d6000803e3d6000fd5b505050506040513d601f19601f8201168201806040525081019061096f9190611276565b6001600160a01b0316146109955760405162461bcd60e51b81526004016105f490611382565b61099e86610c78565b156109bb5760405162461bcd60e51b81526004016105f490611382565b6065805460018101825560009182527f8ff97419363ffd7000167f130ef7168fbea05faf9251824ca5043f113cc6a7c70180546001600160a01b0319166001600160a01b038916179055604080516020601f8801819004810282018101909252868152610a4691349184918a908a9081908401838280828437600092019190915250610ce992505050565b90508215610ab55760405163278f794360e11b81526001600160a01b03831690634f1ef28690610a7e908490889088906004016112c3565b600060405180830381600087803b158015610a9857600080fd5b505af1158015610aac573d6000803e3d6000fd5b50505050610b14565b604051631b2ce7f360e11b81526001600160a01b03831690633659cfe690610ae19084906004016112f1565b600060405180830381600087803b158015610afb57600080fd5b505af1158015610b0f573d6000803e3d6000fd5b505050505b7f2ac8426665bc943183ac098ea99599eb79de9613ee8e4ea29d3c274d0a42c67b878288886040516107ae9493929190611305565b60004315610b75576040516344f1a1fb60e01b81526001600160401b03821660048201526024016105f4565b8151610b88906001906020850190610e70565b505050565b6001438114610bba576040516344f1a1fb60e01b81526001600160401b03821660048201526024016105f4565b600060018054610bc9906113b7565b90501115610c6657610c6460018054610be1906113b7565b80601f0160208091040260200160405190810160405280929190818152602001828054610c0d906113b7565b8015610c5a5780601f10610c2f57610100808354040283529160200191610c5a565b820191906000526020600020905b815481529060010190602001808311610c3d57829003601f168201915b5050505050610df2565b505b50565b6001600160a01b03163b151590565b600080610c8361015c565b905060005b8151811015610cdf57836001600160a01b0316828281518110610cad57610cad611247565b60200260200101516001600160a01b031603610ccd575060019392505050565b80610cd78161125d565b915050610c88565b5060009392505050565b60008084471015610d3c5760405162461bcd60e51b815260206004820152601d60248201527f437265617465323a20696e73756666696369656e742062616c616e636500000060448201526064016105f4565b8251600003610d8d5760405162461bcd60e51b815260206004820181905260248201527f437265617465323a2062797465636f6465206c656e677468206973207a65726f60448201526064016105f4565b8383516020850187f590506001600160a01b038116610dea5760405162461bcd60e51b8152602060048201526019602482015278437265617465323a204661696c6564206f6e206465706c6f7960381b60448201526064016105f4565b949350505050565b6060600080306001600160a01b031684604051610e0f91906113eb565b600060405180830381855af49150503d8060008114610e4a576040519150601f19603f3d011682016040523d82523d6000602084013e610e4f565b606091505b50915091508115610e61579392505050565b80511561006b57805181602001fd5b828054610e7c906113b7565b90600052602060002090601f016020900481019282610e9e5760008555610ee4565b82601f10610eb757805160ff1916838001178555610ee4565b82800160010185558215610ee4579182015b82811115610ee4578251825591602001919060010190610ec9565b50610ef0929150610ef4565b5090565b5b80821115610ef05760008155600101610ef5565b6020808252825182820181905260009190848201906040850190845b81811015610f4a5783516001600160a01b031683529284019291840191600101610f25565b50909695505050505050565b6001600160a01b0381168114610c6657600080fd5b60008083601f840112610f7d57600080fd5b5081356001600160401b03811115610f9457600080fd5b602083019150836020828501011115610fac57600080fd5b9250929050565b600080600080600060608688031215610fcb57600080fd5b8535610fd681610f56565b945060208601356001600160401b0380821115610ff257600080fd5b610ffe89838a01610f6b565b9096509450604088013591508082111561101757600080fd5b5061102488828901610f6b565b969995985093965092949392505050565b6000806020838503121561104857600080fd5b82356001600160401b038082111561105f57600080fd5b818501915085601f83011261107357600080fd5b81358181111561108257600080fd5b8660208260051b850101111561109757600080fd5b60209290920196919550909350505050565b60005b838110156110c45781810151838201526020016110ac565b838111156110d3576000848401525b50505050565b6000602080830181845280855180835260408601915060408160051b870101925083870160005b8281101561114657878503603f1901845281518051808752611127818989018a85016110a9565b601f01601f191695909501860194509285019290850190600101611100565b5092979650505050505050565b634e487b7160e01b600052604160045260246000fd5b60006020828403121561117b57600080fd5b81356001600160401b038082111561119257600080fd5b818401915084601f8301126111a657600080fd5b8135818111156111b8576111b8611153565b604051601f8201601f19908116603f011681019083821181831017156111e0576111e0611153565b816040528281528760208487010111156111f957600080fd5b826020860160208301376000928101602001929092525095945050505050565b634e487b7160e01b600052601160045260246000fd5b6000821982111561124257611242611219565b500190565b634e487b7160e01b600052603260045260246000fd5b60006001820161126f5761126f611219565b5060010190565b60006020828403121561128857600080fd5b815161129381610f56565b9392505050565b81835281816020850137506000828201602090810191909152601f909101601f19169091010190565b6001600160a01b03841681526040602082018190526000906112e8908301848661129a565b95945050505050565b6001600160a01b0391909116815260200190565b6001600160a01b03858116825284166020820152606060408201819052600090611332908301848661129a565b9695505050505050565b6000808335601e1984360301811261135357600080fd5b8301803591506001600160401b0382111561136d57600080fd5b602001915036819003821315610fac57600080fd5b6020808252818101527f52756e74696d65557067726164653a20616c7265616479206465706c6f796564604082015260600190565b600181811c908216806113cb57607f821691505b6020821081036104ce57634e487b7160e01b600052602260045260246000fd5b600082516113fd8184602087016110a9565b919091019291505056fea264697066735822122073b055aab7adff484bac8817b8bf1d883d28a7202129c3fbd98b5904c4a233a064736f6c634300080e0033",
  "immutableReferences": {
    "7315": [
      {
        "length": 32,
        "start": 437
      }
    ],
    "7318": [
      {
        "length": 32,
        "start": 521
      }
    ],
    "7321": [
      {
        "length": 32,
        "start": 605
      }
    ],
    "7324": [
      {
        "length": 32,
        "start": 689
      }
    ],
    "7327": [
      {
        "length": 32,
        "start": 773
      },
      {
        "length": 32,
        "start": 1247
      },
      {
        "length": 32,
        "start": 2237
      }
    ],
    "7330": [
      {
        "length": 32,
        "start": 857
      }
    ],
    "7333": [
      {
        "length": 32,
        "start": 941
      }
    ],
    "7336": [
      {
        "length": 32,
        "start": 1025
      }
    ]
  },
  "source": "// SPDX-License-Identifier: GPL-3.0-only\npragma solidity ^0.8.0;\n\nimport \"@openzeppelin/contracts/proxy/ERC1967/ERC1967Proxy.sol\";\nimport \"@openzeppelin/contracts/utils/Create2.sol\";\n\nimport \"./InjectorContextHolder.sol\";\nimport \"./RuntimeProxy.sol\";\n\ncontract RuntimeUpgrade is InjectorContextHolder, IRuntimeUpgrade {\n\n    bytes32 constant internal _DEPLOYMENT_SALT = 0x0000000000000000000000000000000000000000000000000000000000000000;\n\n    event Upgraded(address account, address impl, bytes bytecode);\n    event Deployed(address account, address impl, bytes bytecode);\n\n    // address of the EVM hook (not in use anymore)\n    address internal _evmHookAddress;\n    // list of new deployed system smart contracts\n    address[] internal _deployedSystemContracts;\n\n    constructor(\n        IStaking stakingContract,\n        ISlashingIndicator slashingIndicatorContract,\n        ISystemReward systemRewardContract,\n        IStakingPool stakingPoolContract,\n        IGovernance governanceContract,\n        IChainConfig chainConfigContract,\n        IRuntimeUpgrade runtimeUpgradeContract,\n        IDeployerProxy deployerProxyContract\n    ) InjectorContextHolder(\n        stakingContract,\n        slashingIndicatorContract,\n        systemRewardContract,\n        stakingPoolContract,\n        governanceContract,\n        chainConfigContract,\n        runtimeUpgradeContract,\n        deployerProxyContract\n    ) {\n    }\n\n    function isEIP1967() external pure returns (bool) {\n        return true;\n    }\n\n    function upgradeSystemSmartContract(address payable account, bytes calldata bytecode, bytes calldata data) external payable onlyFromGovernance virtual override {\n        // make sure that we're upgrading existing smart contract that already has implementation\n        RuntimeProxy proxy = RuntimeProxy(account);\n        require(proxy.implementation() != address(0x00), \"RuntimeUpgrade: implementation not found\");\n        // we allow to upgrade only system smart contracts\n        require(_isSystemSmartContract(account), \"RuntimeUpgrade: only system smart contract\");\n        // upgrade system contract\n        address impl = Create2.deploy(msg.value, _DEPLOYMENT_SALT, bytecode);\n        if (data.length > 0) {\n            proxy.upgradeToAndCall(impl, data);\n        } else {\n            proxy.upgradeTo(impl);\n        }\n        // emit event\n        emit Upgraded(account, impl, bytecode);\n    }\n\n    function deploySystemSmartContract(address payable account, bytes calldata bytecode, bytes calldata data) external payable onlyFromGovernance virtual override {\n        // make sure that we're upgrading existing smart contract that already has implementation\n        RuntimeProxy proxy = RuntimeProxy(account);\n        require(proxy.implementation() == address(0x00), \"RuntimeUpgrade: already deployed\");\n        // we allow to upgrade only system smart contracts\n        require(!_isSystemSmartContract(account), \"RuntimeUpgrade: already deployed\");\n        _deployedSystemContracts.push(account);\n        // upgrade system contract\n        address impl = Create2.deploy(msg.value, _DEPLOYMENT_SALT, bytecode);\n        if (data.length > 0) {\n            proxy.upgradeToAndCall(impl, data);\n        } else {\n            proxy.upgradeTo(impl);\n        }\n        // emit event\n        emit Deployed(account, impl, bytecode);\n    }\n\n    function getSystemContracts() public view returns (address[] memory) {\n        address[] memory result = new address[](8 + _deployedSystemContracts.length);\n        // BSC-compatible\n        result[0] = address(_STAKING_CONTRACT);\n        result[1] = address(_SLASHING_INDICATOR_CONTRACT);\n        result[2] = address(_SYSTEM_REWARD_CONTRACT);\n        // BAS-defined\n        result[3] = address(_STAKING_POOL_CONTRACT);\n        result[4] = address(_GOVERNANCE_CONTRACT);\n        result[5] = address(_CHAIN_CONFIG_CONTRACT);\n        result[6] = address(_RUNTIME_UPGRADE_CONTRACT);\n        result[7] = address(_DEPLOYER_PROXY_CONTRACT);\n        // copy deployed system smart contracts\n        for (uint256 i = 0; i < _deployedSystemContracts.length; i++) {\n            result[8 + i] = _deployedSystemContracts[i];\n        }\n        return result;\n    }\n\n    function _isSystemSmartContract(address contractAddress) internal view returns (bool) {\n        address[] memory systemContracts = getSystemContracts();\n        for (uint256 i = 0; i < systemContracts.length; i++) {\n            if (systemContracts[i] == contractAddress) return true;\n        }\n        return false;\n    }\n}",
  "sourcePath": "/Users/user/source/git/bas-genesis-config/contracts/RuntimeUpgrade.sol",
  "compiler": {
    "name": "solc",
    "version": "0.8.14+commit.80d49f37.Emscripten.clang"
  },
  "schemaVersion": "3.4.4",
  "updatedAt": "2022-10-09T03:31:57.582Z",
  "devdoc": {
    "kind": "dev",
    "methods": {},
    "version": 1
  },
  "userdoc": {
    "kind": "user",
    "methods": {},
    "version": 1
  }
}