{
  "contractName": "SlashingIndicator",
  "abi": [
    {
      "inputs": [
        {
          "internalType": "contract IStaking",
          "name": "stakingContract",
          "type": "address"
        },
        {
          "internalType": "contract ISlashingIndicator",
          "name": "slashingIndicatorContract",
          "type": "address"
        },
        {
          "internalType": "contract ISystemReward",
          "name": "systemRewardContract",
          "type": "address"
        },
        {
          "internalType": "contract IStakingPool",
          "name": "stakingPoolContract",
          "type": "address"
        },
        {
          "internalType": "contract IGovernance",
          "name": "governanceContract",
          "type": "address"
        },
        {
          "internalType": "contract IChainConfig",
          "name": "chainConfigContract",
          "type": "address"
        },
        {
          "internalType": "contract IRuntimeUpgrade",
          "name": "runtimeUpgradeContract",
          "type": "address"
        },
        {
          "internalType": "contract IDeployerProxy",
          "name": "deployerProxyContract",
          "type": "address"
        }
      ],
      "stateMutability": "nonpayable",
      "type": "constructor"
    },
    {
      "inputs": [
        {
          "internalType": "uint64",
          "name": "blockNumber",
          "type": "uint64"
        }
      ],
      "name": "OnlyBlock",
      "type": "error"
    },
    {
      "inputs": [
        {
          "internalType": "address",
          "name": "coinbase",
          "type": "address"
        }
      ],
      "name": "OnlyCoinbase",
      "type": "error"
    },
    {
      "inputs": [],
      "name": "OnlyGovernance",
      "type": "error"
    },
    {
      "inputs": [],
      "name": "OnlySlashingIndicator",
      "type": "error"
    },
    {
      "anonymous": false,
      "inputs": [
        {
          "indexed": false,
          "internalType": "uint8",
          "name": "version",
          "type": "uint8"
        }
      ],
      "name": "Initialized",
      "type": "event"
    },
    {
      "inputs": [],
      "name": "init",
      "outputs": [],
      "stateMutability": "nonpayable",
      "type": "function"
    },
    {
      "inputs": [],
      "name": "isInitialized",
      "outputs": [
        {
          "internalType": "bool",
          "name": "",
          "type": "bool"
        }
      ],
      "stateMutability": "view",
      "type": "function"
    },
    {
      "inputs": [
        {
          "internalType": "bytes[]",
          "name": "data",
          "type": "bytes[]"
        }
      ],
      "name": "multicall",
      "outputs": [
        {
          "internalType": "bytes[]",
          "name": "results",
          "type": "bytes[]"
        }
      ],
      "stateMutability": "nonpayable",
      "type": "function"
    },
    {
      "inputs": [
        {
          "internalType": "bytes",
          "name": "delayedInitializer",
          "type": "bytes"
        }
      ],
      "name": "useDelayedInitializer",
      "outputs": [],
      "stateMutability": "nonpayable",
      "type": "function"
    },
    {
      "inputs": [],
      "name": "initialize",
      "outputs": [],
      "stateMutability": "nonpayable",
      "type": "function"
    },
    {
      "inputs": [
        {
          "internalType": "address",
          "name": "validator",
          "type": "address"
        }
      ],
      "name": "slash",
      "outputs": [],
      "stateMutability": "nonpayable",
      "type": "function"
    }
  ],
  "bytecode": "0x6101806040523480156200001257600080fd5b5060405162000c1838038062000c18833981016040819052620000359162000179565b6001600160a01b0380891660805280881660a05280871660c05280861660e05280851661010052808416610120528083166101405281166101605287878787878787876200008262000098565b5050505050505050505050505050505062000288565b620000a460ff620000a7565b50565b60008054610100900460ff161562000110578160ff166001148015620000e05750620000de306200015460201b620003fe1760201c565b155b620001085760405162461bcd60e51b8152600401620000ff906200023a565b60405180910390fd5b506000919050565b60005460ff8084169116106200013a5760405162461bcd60e51b8152600401620000ff906200023a565b506000805460ff191660ff92909216919091179055600190565b6001600160a01b03163b151590565b6001600160a01b0381168114620000a457600080fd5b600080600080600080600080610100898b0312156200019757600080fd5b8851620001a48162000163565b60208a0151909850620001b78162000163565b60408a0151909750620001ca8162000163565b60608a0151909650620001dd8162000163565b60808a0151909550620001f08162000163565b60a08a0151909450620002038162000163565b60c08a0151909350620002168162000163565b60e08a0151909250620002298162000163565b809150509295985092959890939650565b6020808252602e908201527f496e697469616c697a61626c653a20636f6e747261637420697320616c72656160408201526d191e481a5b9a5d1a585b1a5e995960921b606082015260800190565b60805160a05160c05160e0516101005161012051610140516101605161093f620002d96000396000505060005050600050506000505060005050600050506000505060006102b9015261093f6000f3fe608060405234801561001057600080fd5b50600436106100625760003560e01c8063392e53cd146100675780638129fc1c1461007f578063ac9650d814610089578063c529d2f3146100a9578063c96be4cb146100bc578063e1c7392a146100cf575b600080fd5b60005460405190151581526020015b60405180910390f35b6100876100d7565b005b61009c6100973660046105b3565b610144565b6040516100769190610657565b6100876100b73660046106e7565b610237565b6100876100ca366004610797565b610280565b610087610323565b60006100e3600161040d565b905080156100fb576000805461ff0019166101001790555b8015610141576000805461ff0019169055604051600181527f7f26b83ff96e1f2b6a682f133852f6798a09c465da95921460cefb38474024989060200160405180910390a15b50565b6060816001600160401b0381111561015e5761015e6106d1565b60405190808252806020026020018201604052801561019157816020015b606081526020019060019003908161017c5790505b50905060005b82811015610230576102008484838181106101b4576101b46107c7565b90506020028101906101c691906107dd565b8080601f01602080910402602001604051908101604052809392919081815260200183838082843760009201919091525061049c92505050565b828281518110610212576102126107c7565b602002602001018190525080806102289061082a565b915050610197565b5092915050565b60004315610268576040516344f1a1fb60e01b81526001600160401b03821660048201526024015b60405180910390fd5b815161027b90600190602085019061051a565b505050565b3341146102a257416040516307aad50d60e31b815260040161025f9190610851565b60405163c96be4cb60e01b81526001600160a01b037f0000000000000000000000000000000000000000000000000000000000000000169063c96be4cb906102ee908490600401610851565b600060405180830381600087803b15801561030857600080fd5b505af115801561031c573d6000803e3d6000fd5b5050505050565b6001438114610350576040516344f1a1fb60e01b81526001600160401b038216600482015260240161025f565b60006001805461035f90610865565b90501115610141576103fa6001805461037790610865565b80601f01602080910402602001604051908101604052809291908181526020018280546103a390610865565b80156103f05780601f106103c5576101008083540402835291602001916103f0565b820191906000526020600020905b8154815290600101906020018083116103d357829003601f168201915b505050505061049c565b5050565b6001600160a01b03163b151590565b60008054610100900460ff161561045b578160ff1660011480156104375750610435306103fe565b155b6104535760405162461bcd60e51b815260040161025f9061089f565b506000919050565b60005460ff8084169116106104825760405162461bcd60e51b815260040161025f9061089f565b506000805460ff191660ff92909216919091179055600190565b6060600080306001600160a01b0316846040516104b991906108ed565b600060405180830381855af49150503d80600081146104f4576040519150601f19603f3d011682016040523d82523d6000602084013e6104f9565b606091505b5091509150811561050b579392505050565b80511561006257805181602001fd5b82805461052690610865565b90600052602060002090601f016020900481019282610548576000855561058e565b82601f1061056157805160ff191683800117855561058e565b8280016001018555821561058e579182015b8281111561058e578251825591602001919060010190610573565b5061059a92915061059e565b5090565b5b8082111561059a576000815560010161059f565b600080602083850312156105c657600080fd5b82356001600160401b03808211156105dd57600080fd5b818501915085601f8301126105f157600080fd5b81358181111561060057600080fd5b8660208260051b850101111561061557600080fd5b60209290920196919550909350505050565b60005b8381101561064257818101518382015260200161062a565b83811115610651576000848401525b50505050565b6000602080830181845280855180835260408601915060408160051b870101925083870160005b828110156106c457878503603f19018452815180518087526106a5818989018a8501610627565b601f01601f19169590950186019450928501929085019060010161067e565b5092979650505050505050565b634e487b7160e01b600052604160045260246000fd5b6000602082840312156106f957600080fd5b81356001600160401b038082111561071057600080fd5b818401915084601f83011261072457600080fd5b813581811115610736576107366106d1565b604051601f8201601f19908116603f0116810190838211818310171561075e5761075e6106d1565b8160405282815287602084870101111561077757600080fd5b826020860160208301376000928101602001929092525095945050505050565b6000602082840312156107a957600080fd5b81356001600160a01b03811681146107c057600080fd5b9392505050565b634e487b7160e01b600052603260045260246000fd5b6000808335601e198436030181126107f457600080fd5b8301803591506001600160401b0382111561080e57600080fd5b60200191503681900382131561082357600080fd5b9250929050565b60006001820161084a57634e487b7160e01b600052601160045260246000fd5b5060010190565b6001600160a01b0391909116815260200190565b600181811c9082168061087957607f821691505b60208210810361089957634e487b7160e01b600052602260045260246000fd5b50919050565b6020808252602e908201527f496e697469616c697a61626c653a20636f6e747261637420697320616c72656160408201526d191e481a5b9a5d1a585b1a5e995960921b606082015260800190565b600082516108ff818460208701610627565b919091019291505056fea2646970667358221220f075b9207bed71b4d91cae192acb79d08c6c32d9e5b514ef60297e8aef53dbc364736f6c634300080e0033",
  "immutableReferences": {
    "7315": [
      {
        "length": 32,
        "start": 697
      }
    ]
  },
  "source": "// SPDX-License-Identifier: GPL-3.0-only\npragma solidity ^0.8.0;\n\nimport \"./InjectorContextHolder.sol\";\n\ncontract SlashingIndicator is ISlashingIndicator, InjectorContextHolder {\n\n    constructor(\n        IStaking stakingContract,\n        ISlashingIndicator slashingIndicatorContract,\n        ISystemReward systemRewardContract,\n        IStakingPool stakingPoolContract,\n        IGovernance governanceContract,\n        IChainConfig chainConfigContract,\n        IRuntimeUpgrade runtimeUpgradeContract,\n        IDeployerProxy deployerProxyContract\n    ) InjectorContextHolder(\n        stakingContract,\n        slashingIndicatorContract,\n        systemRewardContract,\n        stakingPoolContract,\n        governanceContract,\n        chainConfigContract,\n        runtimeUpgradeContract,\n        deployerProxyContract\n    ) {\n    }\n\n    function initialize() external initializer {\n    }\n\n    function slash(address validator) external onlyFromCoinbase virtual override {\n        // we need this proxy to be compatible with BSC\n        _STAKING_CONTRACT.slash(validator);\n    }\n}",
  "sourcePath": "/Users/user/source/git/bas-genesis-config/contracts/SlashingIndicator.sol",
  "compiler": {
    "name": "solc",
    "version": "0.8.14+commit.80d49f37.Emscripten.clang"
  },
  "schemaVersion": "3.4.4",
  "updatedAt": "2022-10-09T03:31:57.595Z",
  "devdoc": {
    "kind": "dev",
    "methods": {},
    "version": 1
  },
  "userdoc": {
    "kind": "user",
    "methods": {},
    "version": 1
  }
}