{
  "contractName": "StakingPool",
  "abi": [
    {
      "inputs": [
        {
          "internalType": "contract IStaking",
          "name": "stakingContract",
          "type": "address"
        },
        {
          "internalType": "contract ISlashingIndicator",
          "name": "slashingIndicatorContract",
          "type": "address"
        },
        {
          "internalType": "contract ISystemReward",
          "name": "systemRewardContract",
          "type": "address"
        },
        {
          "internalType": "contract IStakingPool",
          "name": "stakingPoolContract",
          "type": "address"
        },
        {
          "internalType": "contract IGovernance",
          "name": "governanceContract",
          "type": "address"
        },
        {
          "internalType": "contract IChainConfig",
          "name": "chainConfigContract",
          "type": "address"
        },
        {
          "internalType": "contract IRuntimeUpgrade",
          "name": "runtimeUpgradeContract",
          "type": "address"
        },
        {
          "internalType": "contract IDeployerProxy",
          "name": "deployerProxyContract",
          "type": "address"
        }
      ],
      "stateMutability": "nonpayable",
      "type": "constructor"
    },
    {
      "inputs": [
        {
          "internalType": "uint64",
          "name": "blockNumber",
          "type": "uint64"
        }
      ],
      "name": "OnlyBlock",
      "type": "error"
    },
    {
      "inputs": [
        {
          "internalType": "address",
          "name": "coinbase",
          "type": "address"
        }
      ],
      "name": "OnlyCoinbase",
      "type": "error"
    },
    {
      "inputs": [],
      "name": "OnlyGovernance",
      "type": "error"
    },
    {
      "inputs": [],
      "name": "OnlySlashingIndicator",
      "type": "error"
    },
    {
      "anonymous": false,
      "inputs": [
        {
          "indexed": true,
          "internalType": "address",
          "name": "validator",
          "type": "address"
        },
        {
          "indexed": true,
          "internalType": "address",
          "name": "staker",
          "type": "address"
        },
        {
          "indexed": false,
          "internalType": "uint256",
          "name": "amount",
          "type": "uint256"
        }
      ],
      "name": "Claim",
      "type": "event"
    },
    {
      "anonymous": false,
      "inputs": [
        {
          "indexed": false,
          "internalType": "uint8",
          "name": "version",
          "type": "uint8"
        }
      ],
      "name": "Initialized",
      "type": "event"
    },
    {
      "anonymous": false,
      "inputs": [
        {
          "indexed": true,
          "internalType": "address",
          "name": "validator",
          "type": "address"
        },
        {
          "indexed": true,
          "internalType": "address",
          "name": "staker",
          "type": "address"
        },
        {
          "indexed": false,
          "internalType": "uint256",
          "name": "amount",
          "type": "uint256"
        }
      ],
      "name": "Stake",
      "type": "event"
    },
    {
      "anonymous": false,
      "inputs": [
        {
          "indexed": true,
          "internalType": "address",
          "name": "validator",
          "type": "address"
        },
        {
          "indexed": true,
          "internalType": "address",
          "name": "staker",
          "type": "address"
        },
        {
          "indexed": false,
          "internalType": "uint256",
          "name": "amount",
          "type": "uint256"
        }
      ],
      "name": "Unstake",
      "type": "event"
    },
    {
      "inputs": [],
      "name": "init",
      "outputs": [],
      "stateMutability": "nonpayable",
      "type": "function"
    },
    {
      "inputs": [],
      "name": "isInitialized",
      "outputs": [
        {
          "internalType": "bool",
          "name": "",
          "type": "bool"
        }
      ],
      "stateMutability": "view",
      "type": "function"
    },
    {
      "inputs": [
        {
          "internalType": "bytes[]",
          "name": "data",
          "type": "bytes[]"
        }
      ],
      "name": "multicall",
      "outputs": [
        {
          "internalType": "bytes[]",
          "name": "results",
          "type": "bytes[]"
        }
      ],
      "stateMutability": "nonpayable",
      "type": "function"
    },
    {
      "inputs": [
        {
          "internalType": "bytes",
          "name": "delayedInitializer",
          "type": "bytes"
        }
      ],
      "name": "useDelayedInitializer",
      "outputs": [],
      "stateMutability": "nonpayable",
      "type": "function"
    },
    {
      "stateMutability": "payable",
      "type": "receive"
    },
    {
      "inputs": [],
      "name": "initialize",
      "outputs": [],
      "stateMutability": "nonpayable",
      "type": "function"
    },
    {
      "inputs": [
        {
          "internalType": "address",
          "name": "validator",
          "type": "address"
        },
        {
          "internalType": "address",
          "name": "staker",
          "type": "address"
        }
      ],
      "name": "getStakedAmount",
      "outputs": [
        {
          "internalType": "uint256",
          "name": "",
          "type": "uint256"
        }
      ],
      "stateMutability": "view",
      "type": "function"
    },
    {
      "inputs": [
        {
          "internalType": "address",
          "name": "validator",
          "type": "address"
        },
        {
          "internalType": "address",
          "name": "staker",
          "type": "address"
        }
      ],
      "name": "getShares",
      "outputs": [
        {
          "internalType": "uint256",
          "name": "",
          "type": "uint256"
        }
      ],
      "stateMutability": "view",
      "type": "function"
    },
    {
      "inputs": [
        {
          "internalType": "address",
          "name": "validator",
          "type": "address"
        }
      ],
      "name": "getValidatorPool",
      "outputs": [
        {
          "components": [
            {
              "internalType": "address",
              "name": "validatorAddress",
              "type": "address"
            },
            {
              "internalType": "uint256",
              "name": "sharesSupply",
              "type": "uint256"
            },
            {
              "internalType": "uint256",
              "name": "totalStakedAmount",
              "type": "uint256"
            },
            {
              "internalType": "uint256",
              "name": "dustRewards",
              "type": "uint256"
            },
            {
              "internalType": "uint256",
              "name": "pendingUnstake",
              "type": "uint256"
            }
          ],
          "internalType": "struct StakingPool.ValidatorPool",
          "name": "",
          "type": "tuple"
        }
      ],
      "stateMutability": "view",
      "type": "function"
    },
    {
      "inputs": [
        {
          "internalType": "address",
          "name": "validator",
          "type": "address"
        }
      ],
      "name": "getRatio",
      "outputs": [
        {
          "internalType": "uint256",
          "name": "",
          "type": "uint256"
        }
      ],
      "stateMutability": "view",
      "type": "function"
    },
    {
      "inputs": [
        {
          "internalType": "address",
          "name": "validator",
          "type": "address"
        }
      ],
      "name": "stake",
      "outputs": [],
      "stateMutability": "payable",
      "type": "function"
    },
    {
      "inputs": [
        {
          "internalType": "address",
          "name": "validator",
          "type": "address"
        },
        {
          "internalType": "uint256",
          "name": "amount",
          "type": "uint256"
        }
      ],
      "name": "unstake",
      "outputs": [],
      "stateMutability": "nonpayable",
      "type": "function"
    },
    {
      "inputs": [
        {
          "internalType": "address",
          "name": "validator",
          "type": "address"
        },
        {
          "internalType": "address",
          "name": "staker",
          "type": "address"
        }
      ],
      "name": "claimableRewards",
      "outputs": [
        {
          "internalType": "uint256",
          "name": "",
          "type": "uint256"
        }
      ],
      "stateMutability": "view",
      "type": "function"
    },
    {
      "inputs": [
        {
          "internalType": "address",
          "name": "validator",
          "type": "address"
        }
      ],
      "name": "claim",
      "outputs": [],
      "stateMutability": "nonpayable",
      "type": "function"
    }
  ],
  "bytecode": "0x6101806040523480156200001257600080fd5b506040516200201f3803806200201f833981016040819052620000359162000179565b6001600160a01b0380891660805280881660a05280871660c05280861660e05280851661010052808416610120528083166101405281166101605287878787878787876200008262000098565b5050505050505050505050505050505062000288565b620000a460ff620000a7565b50565b60008054610100900460ff161562000110578160ff166001148015620000e05750620000de306200015460201b620013901760201c565b155b620001085760405162461bcd60e51b8152600401620000ff906200023a565b60405180910390fd5b506000919050565b60005460ff8084169116106200013a5760405162461bcd60e51b8152600401620000ff906200023a565b506000805460ff191660ff92909216919091179055600190565b6001600160a01b03163b151590565b6001600160a01b0381168114620000a457600080fd5b600080600080600080600080610100898b0312156200019757600080fd5b8851620001a48162000163565b60208a0151909850620001b78162000163565b60408a0151909750620001ca8162000163565b60608a0151909650620001dd8162000163565b60808a0151909550620001f08162000163565b60a08a0151909450620002038162000163565b60c08a0151909350620002168162000163565b60e08a0151909250620002298162000163565b809150509295985092959890939650565b6020808252602e908201527f496e697469616c697a61626c653a20636f6e747261637420697320616c72656160408201526d191e481a5b9a5d1a585b1a5e995960921b606082015260800190565b60805160a05160c05160e05161010051610120516101405161016051611d056200031a60003960005050600050506000610fd20152600050506000505060005050600050506000818160b5015281816104d20152818161059e015281816106590152818161099701528181610b0701528181610df50152818161105a015281816111cc01526114960152611d056000f3fe6080604052600436106100a55760003560e01c8062392040146101275780630db14e95146101805780631712b0d8146101a05780631e83409a146102065780632647620414610226578063392e53cd146102395780636be9dcce14610259578063754b27071461029f5780638129fc1c146102bf578063ac9650d8146102d4578063c2a672e014610301578063c529d2f314610321578063e1c7392a1461034157600080fd5b3661012257336001600160a01b037f000000000000000000000000000000000000000000000000000000000000000016146101205760405162461bcd60e51b81526020600482015260166024820152751b9bdd0818481cdd185ada5b99c818dbdb9d1c9858dd60521b60448201526064015b60405180910390fd5b005b600080fd5b34801561013357600080fd5b5061016d61014236600461181b565b6001600160a01b03918216600090815260666020908152604080832093909416825291909152205490565b6040519081526020015b60405180910390f35b34801561018c57600080fd5b5061016d61019b36600461181b565b610356565b3480156101ac57600080fd5b506101c06101bb36600461184e565b6103b7565b604051610177919081516001600160a01b031681526020808301519082015260408083015190820152606080830151908201526080918201519181019190915260a00190565b34801561021257600080fd5b5061012061022136600461184e565b610411565b61012061023436600461184e565b6108d6565b34801561024557600080fd5b506000546040519015158152602001610177565b34801561026557600080fd5b5061016d61027436600461181b565b6001600160a01b03918216600090815260656020908152604080832093909416825291909152205490565b3480156102ab57600080fd5b5061016d6102ba36600461184e565b610bb6565b3480156102cb57600080fd5b50610120610bd4565b3480156102e057600080fd5b506102f46102ef366004611869565b610c41565b604051610177919061190d565b34801561030d57600080fd5b5061012061031c366004611987565b610d34565b34801561032d57600080fd5b5061012061033c3660046119c7565b611271565b34801561034d57600080fd5b506101206112b5565b6000806103628461139f565b905061036d816113fe565b6001600160a01b038086166000908152606660209081526040808320938816835292905220546103a590670de0b6b3a7640000611a8d565b6103af9190611aac565b949350505050565b6103bf611733565b60006103ca8361139f565b90506000806103d88361146a565b9150915081836040018181516103ee9190611ace565b905250606083018051829190610405908390611ace565b90525091949350505050565b80600061041d8261139f565b905060008061042b8361146a565b9150915081836040018181516104419190611ace565b905250606083018051829190610458908390611ace565b9052506001600160a01b03848116600090815260646020908152604091829020865181546001600160a01b0319169416939093178355850151600183015584015160028201556060840151600382015560808401516004909101558115610539578251604051638ecb3fc960e01b81526001600160a01b037f00000000000000000000000000000000000000000000000000000000000000001691638ecb3fc9916105069190600401611ae6565b600060405180830381600087803b15801561052057600080fd5b505af1158015610534573d6000803e3d6000fd5b505050505b5050506001600160a01b0380831660009081526065602090815260408083203384528252918290208251606081018452815480825260018301549382018490526002909201546001600160401b03168185015292516311dceb3160e11b8152929390927f0000000000000000000000000000000000000000000000000000000000000000909116906323b9d662906105d5908890600401611ae6565b600060405180830381600087803b1580156105ef57600080fd5b505af1158015610603573d6000803e3d6000fd5b50505050600083604001516001600160401b0316116106575760405162461bcd60e51b815260206004820152601060248201526f6e6f7468696e6720746f20636c61696d60801b6044820152606401610117565b7f00000000000000000000000000000000000000000000000000000000000000006001600160a01b031663766718086040518163ffffffff1660e01b8152600401602060405180830381865afa1580156106b5573d6000803e3d6000fd5b505050506040513d601f19601f820116820180604052508101906106d99190611afa565b6001600160401b031683604001516001600160401b0316111561072a5760405162461bcd60e51b81526020600482015260096024820152686e6f7420726561647960b81b6044820152606401610117565b6001600160a01b03851660009081526066602090815260408083203384529091528120805483929061075d908490611b23565b909155506000905061076e8661139f565b905081816020018181516107829190611b23565b905250604081018051849190610799908390611b23565b9052506080810180518491906107b0908390611b23565b9052506001600160a01b038681166000908152606460209081526040808320855181546001600160a01b03191695169490941784558482015160018086019190915585820151600280870191909155606087015160038701556080870151600490960195909555606583528184203385529092528220828155908101919091550180546001600160401b0319169055478311156108845760405162461bcd60e51b81526020600482015260126024820152716e6f7420656e6f7567682062616c616e636560701b6044820152606401610117565b61088e338461150b565b60405183815233906001600160a01b038816907f70eb43c4a8ae8c40502dcf22436c509c28d6ff421cf07c491be56984bd9870689060200160405180910390a3505050505050565b8060006108e28261139f565b90506000806108f08361146a565b9150915081836040018181516109069190611ace565b90525060608301805182919061091d908390611ace565b9052506001600160a01b03848116600090815260646020908152604091829020865181546001600160a01b03191694169390931783558501516001830155840151600282015560608401516003820155608084015160049091015581156109fe578251604051638ecb3fc960e01b81526001600160a01b037f00000000000000000000000000000000000000000000000000000000000000001691638ecb3fc9916109cb9190600401611ae6565b600060405180830381600087803b1580156109e557600080fd5b505af11580156109f9573d6000803e3d6000fd5b505050505b5050506000610a0c8361139f565b90506000670de0b6b3a7640000610a22836113fe565b610a2c9034611a8d565b610a369190611aac565b6001600160a01b0385166000908152606660209081526040808320338452909152812080549293508392909190610a6e908490611ace565b925050819055503482604001818151610a879190611ace565b905250602082018051829190610a9e908390611ace565b9052506001600160a01b03848116600090815260646020908152604091829020855181546001600160a01b03191690851617815590850151600182015584820151600282015560608501516003820155608085015160049182015590516317066a5760e21b81527f000000000000000000000000000000000000000000000000000000000000000090921691635c19a95c913491610b3e91899101611ae6565b6000604051808303818588803b158015610b5757600080fd5b505af1158015610b6b573d6000803e3d6000fd5b50506040513481523393506001600160a01b03881692507f99039fcf0a98f484616c5196ee8b2ecfa971babf0b519848289ea4db381f85f7915060200160405180910390a350505050565b600080610bc28361139f565b9050610bcd816113fe565b9392505050565b6000610be06001611621565b90508015610bf8576000805461ff0019166101001790555b8015610c3e576000805461ff0019169055604051600181527f7f26b83ff96e1f2b6a682f133852f6798a09c465da95921460cefb38474024989060200160405180910390a15b50565b6060816001600160401b03811115610c5b57610c5b6119b1565b604051908082528060200260200182016040528015610c8e57816020015b6060815260200190600190039081610c795790505b50905060005b82811015610d2d57610cfd848483818110610cb157610cb1611b3a565b9050602002810190610cc39190611b50565b8080601f0160208091040260200160405190810160405280939291908181526020018383808284376000920191909152506116b592505050565b828281518110610d0f57610d0f611b3a565b60200260200101819052508080610d2590611b9d565b915050610c94565b5092915050565b816000610d408261139f565b9050600080610d4e8361146a565b915091508183604001818151610d649190611ace565b905250606083018051829190610d7b908390611ace565b9052506001600160a01b03848116600090815260646020908152604091829020865181546001600160a01b0319169416939093178355850151600183015584015160028201556060840151600382015560808401516004909101558115610e5c578251604051638ecb3fc960e01b81526001600160a01b037f00000000000000000000000000000000000000000000000000000000000000001691638ecb3fc991610e299190600401611ae6565b600060405180830381600087803b158015610e4357600080fd5b505af1158015610e57573d6000803e3d6000fd5b505050505b5050506000610e6a8461139f565b90506000816040015111610eb55760405162461bcd60e51b81526020600482015260126024820152716e6f7468696e6720746f20756e7374616b6560701b6044820152606401610117565b6001600160a01b03841660009081526065602090815260408083203384529091529020600201546001600160401b031615610f275760405162461bcd60e51b8152602060048201526012602482015271756e64656c65676174652070656e64696e6760701b6044820152606401610117565b6000670de0b6b3a7640000610f3b836113fe565b610f459086611a8d565b610f4f9190611aac565b6001600160a01b0386166000908152606660209081526040808320338452909152902054909150811115610fb95760405162461bcd60e51b81526020600482015260116024820152706e6f7420656e6f7567682073686172657360781b6044820152606401610117565b60405180606001604052808581526020018281526020017f00000000000000000000000000000000000000000000000000000000000000006001600160a01b0316635e7b72ad6040518163ffffffff1660e01b8152600401602060405180830381865afa15801561102e573d6000803e3d6000fd5b505050506040513d601f19601f820116820180604052508101906110529190611bb6565b63ffffffff167f00000000000000000000000000000000000000000000000000000000000000006001600160a01b031663aea0e78b6040518163ffffffff1660e01b8152600401602060405180830381865afa1580156110b6573d6000803e3d6000fd5b505050506040513d601f19601f820116820180604052508101906110da9190611afa565b6110e49190611bdc565b6001600160401b039081169091526001600160a01b038716600090815260656020908152604080832033845282529182902084518155908401516001820155920151600290920180546001600160401b03191692909116919091179055608082018051859190611155908390611ace565b9052506001600160a01b03858116600081815260646020908152604091829020865181546001600160a01b03191690861617815590860151600182015585820151600282015560608601516003820155608086015160049182015590516326ccee8b60e11b815290810191909152602481018690527f000000000000000000000000000000000000000000000000000000000000000090911690634d99dd1690604401600060405180830381600087803b15801561121257600080fd5b505af1158015611226573d6000803e3d6000fd5b50506040518681523392506001600160a01b03881691507f390b1276974b9463e5d66ab10df69b6f3d7b930eb066a0e66df327edd2cc811c9060200160405180910390a35050505050565b6000431561129d576040516344f1a1fb60e01b81526001600160401b0382166004820152602401610117565b81516112b090600190602085019061176b565b505050565b60014381146112e2576040516344f1a1fb60e01b81526001600160401b0382166004820152602401610117565b6000600180546112f190611c07565b90501115610c3e5761138c6001805461130990611c07565b80601f016020809104026020016040519081016040528092919081815260200182805461133590611c07565b80156113825780601f1061135757610100808354040283529160200191611382565b820191906000526020600020905b81548152906001019060200180831161136557829003601f168201915b50505050506116b5565b5050565b6001600160a01b03163b151590565b6113a7611733565b506001600160a01b0316600081815260646020908152604091829020825160a08101845260018201549281019290925260028101549282019290925260038201546060820152600490910154608082015290815290565b60008061140a8361146a565b509050600081846040015161141f9190611ace565b90508060000361143a5750670de0b6b3a76400009392505050565b806001828660200151670de0b6b3a76400006114569190611a8d565b6114609190611ace565b6103a59190611b23565b8051604051632f7cf46360e11b81526001600160a01b03918216600482015230602482015260009182917f000000000000000000000000000000000000000000000000000000000000000090911690635ef9e8c6906044016040805180830381865afa1580156114de573d6000803e3d6000fd5b505050506040513d601f19601f820116820180604052508101906115029190611c41565b91509150915091565b8047101561155b5760405162461bcd60e51b815260206004820152601d60248201527f416464726573733a20696e73756666696369656e742062616c616e63650000006044820152606401610117565b6000826001600160a01b03168260405160006040518083038185875af1925050503d80600081146115a8576040519150601f19603f3d011682016040523d82523d6000602084013e6115ad565b606091505b50509050806112b05760405162461bcd60e51b815260206004820152603a60248201527f416464726573733a20756e61626c6520746f2073656e642076616c75652c20726044820152791958da5c1a595b9d081b585e481a185d99481c995d995c9d195960321b6064820152608401610117565b60008054610100900460ff161561166f578160ff16600114801561164b575061164930611390565b155b6116675760405162461bcd60e51b815260040161011790611c65565b506000919050565b60005460ff8084169116106116965760405162461bcd60e51b815260040161011790611c65565b506000805460ff191660ff92909216919091179055600190565b919050565b6060600080306001600160a01b0316846040516116d29190611cb3565b600060405180830381855af49150503d806000811461170d576040519150601f19603f3d011682016040523d82523d6000602084013e611712565b606091505b50915091508115611724579392505050565b80511561012257805181602001fd5b6040518060a0016040528060006001600160a01b03168152602001600081526020016000815260200160008152602001600081525090565b82805461177790611c07565b90600052602060002090601f01602090048101928261179957600085556117df565b82601f106117b257805160ff19168380011785556117df565b828001600101855582156117df579182015b828111156117df5782518255916020019190600101906117c4565b506117eb9291506117ef565b5090565b5b808211156117eb57600081556001016117f0565b80356001600160a01b03811681146116b057600080fd5b6000806040838503121561182e57600080fd5b61183783611804565b915061184560208401611804565b90509250929050565b60006020828403121561186057600080fd5b610bcd82611804565b6000806020838503121561187c57600080fd5b82356001600160401b038082111561189357600080fd5b818501915085601f8301126118a757600080fd5b8135818111156118b657600080fd5b8660208260051b85010111156118cb57600080fd5b60209290920196919550909350505050565b60005b838110156118f85781810151838201526020016118e0565b83811115611907576000848401525b50505050565b6000602080830181845280855180835260408601915060408160051b870101925083870160005b8281101561197a57878503603f190184528151805180875261195b818989018a85016118dd565b601f01601f191695909501860194509285019290850190600101611934565b5092979650505050505050565b6000806040838503121561199a57600080fd5b6119a383611804565b946020939093013593505050565b634e487b7160e01b600052604160045260246000fd5b6000602082840312156119d957600080fd5b81356001600160401b03808211156119f057600080fd5b818401915084601f830112611a0457600080fd5b813581811115611a1657611a166119b1565b604051601f8201601f19908116603f01168101908382118183101715611a3e57611a3e6119b1565b81604052828152876020848701011115611a5757600080fd5b826020860160208301376000928101602001929092525095945050505050565b634e487b7160e01b600052601160045260246000fd5b6000816000190483118215151615611aa757611aa7611a77565b500290565b600082611ac957634e487b7160e01b600052601260045260246000fd5b500490565b60008219821115611ae157611ae1611a77565b500190565b6001600160a01b0391909116815260200190565b600060208284031215611b0c57600080fd5b81516001600160401b0381168114610bcd57600080fd5b600082821015611b3557611b35611a77565b500390565b634e487b7160e01b600052603260045260246000fd5b6000808335601e19843603018112611b6757600080fd5b8301803591506001600160401b03821115611b8157600080fd5b602001915036819003821315611b9657600080fd5b9250929050565b600060018201611baf57611baf611a77565b5060010190565b600060208284031215611bc857600080fd5b815163ffffffff81168114610bcd57600080fd5b60006001600160401b03808316818516808303821115611bfe57611bfe611a77565b01949350505050565b600181811c90821680611c1b57607f821691505b602082108103611c3b57634e487b7160e01b600052602260045260246000fd5b50919050565b60008060408385031215611c5457600080fd5b505080516020909101519092909150565b6020808252602e908201527f496e697469616c697a61626c653a20636f6e747261637420697320616c72656160408201526d191e481a5b9a5d1a585b1a5e995960921b606082015260800190565b60008251611cc58184602087016118dd565b919091019291505056fea2646970667358221220addc815df29598cb68ce1023fbe8eb07d41e9d966499e31a06d5b32e1c95044c64736f6c634300080e0033",
  "immutableReferences": {
    "7315": [
      {
        "length": 32,
        "start": 181
      },
      {
        "length": 32,
        "start": 1234
      },
      {
        "length": 32,
        "start": 1438
      },
      {
        "length": 32,
        "start": 1625
      },
      {
        "length": 32,
        "start": 2455
      },
      {
        "length": 32,
        "start": 2823
      },
      {
        "length": 32,
        "start": 3573
      },
      {
        "length": 32,
        "start": 4186
      },
      {
        "length": 32,
        "start": 4556
      },
      {
        "length": 32,
        "start": 5270
      }
    ],
    "7330": [
      {
        "length": 32,
        "start": 4050
      }
    ]
  },
  "source": "// SPDX-License-Identifier: GPL-3.0-only\npragma solidity ^0.8.0;\n\nimport \"@openzeppelin/contracts/utils/Address.sol\";\n\nimport \"./interfaces/IInjectorContextHolder.sol\";\nimport \"./interfaces/IStaking.sol\";\nimport \"./interfaces/IStakingPool.sol\";\n\nimport \"./InjectorContextHolder.sol\";\nimport \"./Staking.sol\";\n\ncontract StakingPool is InjectorContextHolder, IStakingPool {\n\n    event Stake(address indexed validator, address indexed staker, uint256 amount);\n    event Unstake(address indexed validator, address indexed staker, uint256 amount);\n    event Claim(address indexed validator, address indexed staker, uint256 amount);\n\n    struct ValidatorPool {\n        address validatorAddress;\n        uint256 sharesSupply;\n        uint256 totalStakedAmount;\n        uint256 dustRewards;\n        uint256 pendingUnstake;\n    }\n\n    struct PendingUnstake {\n        uint256 amount;\n        uint256 shares;\n        uint64 epoch;\n    }\n\n    // validator pools (validator => pool)\n    mapping(address => ValidatorPool) internal _validatorPools;\n    // pending undelegates (validator => staker => pending unstake)\n    mapping(address => mapping(address => PendingUnstake)) _pendingUnstakes;\n    // allocated shares (validator => staker => shares)\n    mapping(address => mapping(address => uint256)) _stakerShares;\n\n    constructor(\n        IStaking stakingContract,\n        ISlashingIndicator slashingIndicatorContract,\n        ISystemReward systemRewardContract,\n        IStakingPool stakingPoolContract,\n        IGovernance governanceContract,\n        IChainConfig chainConfigContract,\n        IRuntimeUpgrade runtimeUpgradeContract,\n        IDeployerProxy deployerProxyContract\n    ) InjectorContextHolder(\n        stakingContract,\n        slashingIndicatorContract,\n        systemRewardContract,\n        stakingPoolContract,\n        governanceContract,\n        chainConfigContract,\n        runtimeUpgradeContract,\n        deployerProxyContract\n    ) {\n    }\n\n    function initialize() external initializer {\n    }\n\n    function getStakedAmount(address validator, address staker) external view returns (uint256) {\n        ValidatorPool memory validatorPool = _getValidatorPool(validator);\n        return _stakerShares[validator][staker] * 1e18 / _calcRatio(validatorPool);\n    }\n\n    function getShares(address validator, address staker) external view returns (uint256) {\n        return _stakerShares[validator][staker];\n    }\n\n    function getValidatorPool(address validator) external view returns (ValidatorPool memory) {\n        ValidatorPool memory validatorPool = _getValidatorPool(validator);\n        (uint256 amountToStake, uint256 dustRewards) = _calcUnclaimedDelegatorFee(validatorPool);\n        validatorPool.totalStakedAmount += amountToStake;\n        validatorPool.dustRewards += dustRewards;\n        return validatorPool;\n    }\n\n    function getRatio(address validator) external view returns (uint256) {\n        ValidatorPool memory validatorPool = _getValidatorPool(validator);\n        return _calcRatio(validatorPool);\n    }\n\n    modifier advanceStakingRewards(address validator) {\n        {\n            ValidatorPool memory validatorPool = _getValidatorPool(validator);\n            // claim rewards from staking contract\n            (uint256 amountToStake, uint256 dustRewards) = _calcUnclaimedDelegatorFee(validatorPool);\n            // increase total accumulated rewards\n            validatorPool.totalStakedAmount += amountToStake;\n            validatorPool.dustRewards += dustRewards;\n            // save validator pool changes\n            _validatorPools[validator] = validatorPool;\n            // if we have something to redelegate then do this right now\n            if (amountToStake > 0) {\n                _STAKING_CONTRACT.redelegateDelegatorFee(validatorPool.validatorAddress);\n            }\n        }\n        _;\n    }\n\n    function _getValidatorPool(address validator) internal view returns (ValidatorPool memory) {\n        ValidatorPool memory validatorPool = _validatorPools[validator];\n        validatorPool.validatorAddress = validator;\n        return validatorPool;\n    }\n\n    function _calcUnclaimedDelegatorFee(ValidatorPool memory validatorPool) internal view returns (uint256 amountToStake, uint256 dustRewards) {\n        return _STAKING_CONTRACT.calcAvailableForRedelegateAmount(validatorPool.validatorAddress, address(this));\n    }\n\n    function _calcRatio(ValidatorPool memory validatorPool) internal view returns (uint256) {\n        (uint256 stakedAmount, /*uint256 dustRewards*/) = _calcUnclaimedDelegatorFee(validatorPool);\n        uint256 stakeWithRewards = validatorPool.totalStakedAmount + stakedAmount;\n        if (stakeWithRewards == 0) {\n            return 1e18;\n        }\n        // we're doing upper rounding here\n        return (validatorPool.sharesSupply * 1e18 + stakeWithRewards - 1) / stakeWithRewards;\n    }\n\n    function stake(address validator) external payable advanceStakingRewards(validator) override {\n        ValidatorPool memory validatorPool = _getValidatorPool(validator);\n        uint256 shares = msg.value * _calcRatio(validatorPool) / 1e18;\n        // increase total accumulated shares for the staker\n        _stakerShares[validator][msg.sender] += shares;\n        // increase staking params for ratio calculation\n        validatorPool.totalStakedAmount += msg.value;\n        validatorPool.sharesSupply += shares;\n        // save validator pool\n        _validatorPools[validator] = validatorPool;\n        // delegate these tokens to the staking contract\n        _STAKING_CONTRACT.delegate{value : msg.value}(validator);\n        // emit event\n        emit Stake(validator, msg.sender, msg.value);\n    }\n\n    function unstake(address validator, uint256 amount) external advanceStakingRewards(validator) override {\n        ValidatorPool memory validatorPool = _getValidatorPool(validator);\n        require(validatorPool.totalStakedAmount > 0, \"nothing to unstake\");\n        // make sure user doesn't have pending undelegates (we don't support it here)\n        require(_pendingUnstakes[validator][msg.sender].epoch == 0, \"undelegate pending\");\n        // calculate shares and make sure user have enough balance\n        uint256 shares = amount * _calcRatio(validatorPool) / 1e18;\n        require(shares <= _stakerShares[validator][msg.sender], \"not enough shares\");\n        // save new undelegate\n        _pendingUnstakes[validator][msg.sender] = PendingUnstake({\n        amount : amount,\n        shares : shares,\n        epoch : _STAKING_CONTRACT.nextEpoch() + _CHAIN_CONFIG_CONTRACT.getUndelegatePeriod()\n        });\n        validatorPool.pendingUnstake += amount;\n        _validatorPools[validator] = validatorPool;\n        // undelegate\n        _STAKING_CONTRACT.undelegate(validator, amount);\n        // emit event\n        emit Unstake(validator, msg.sender, amount);\n    }\n\n    function claimableRewards(address validator, address staker) external view override returns (uint256) {\n        return _pendingUnstakes[validator][staker].amount;\n    }\n\n    function claim(address validator) external advanceStakingRewards(validator) override {\n        PendingUnstake memory pendingUnstake = _pendingUnstakes[validator][msg.sender];\n        uint256 amount = pendingUnstake.amount;\n        uint256 shares = pendingUnstake.shares;\n        // claim undelegate rewards\n        _STAKING_CONTRACT.claimPendingUndelegates(validator);\n        // make sure user have pending unstake\n        require(pendingUnstake.epoch > 0, \"nothing to claim\");\n        require(pendingUnstake.epoch <= _STAKING_CONTRACT.currentEpoch(), \"not ready\");\n        // updates shares and validator pool params\n        _stakerShares[validator][msg.sender] -= shares;\n        ValidatorPool memory validatorPool = _getValidatorPool(validator);\n        validatorPool.sharesSupply -= shares;\n        validatorPool.totalStakedAmount -= amount;\n        validatorPool.pendingUnstake -= amount;\n        _validatorPools[validator] = validatorPool;\n        // remove pending claim\n        delete _pendingUnstakes[validator][msg.sender];\n        // its safe to use call here (state is clear)\n        require(address(this).balance >= amount, \"not enough balance\");\n        Address.sendValue(payable(msg.sender), amount);\n        // emit event\n        emit Claim(validator, msg.sender, amount);\n    }\n\n    receive() external payable {\n        require(address(msg.sender) == address(_STAKING_CONTRACT), \"not a staking contract\");\n    }\n}",
  "sourcePath": "/Users/user/source/git/bas-genesis-config/contracts/StakingPool.sol",
  "compiler": {
    "name": "solc",
    "version": "0.8.14+commit.80d49f37.Emscripten.clang"
  },
  "schemaVersion": "3.4.4",
  "updatedAt": "2022-10-09T03:31:57.680Z",
  "devdoc": {
    "kind": "dev",
    "methods": {},
    "version": 1
  },
  "userdoc": {
    "kind": "user",
    "methods": {},
    "version": 1
  }
}