{
  "contractName": "SystemReward",
  "abi": [
    {
      "inputs": [
        {
          "internalType": "contract IStaking",
          "name": "stakingContract",
          "type": "address"
        },
        {
          "internalType": "contract ISlashingIndicator",
          "name": "slashingIndicatorContract",
          "type": "address"
        },
        {
          "internalType": "contract ISystemReward",
          "name": "systemRewardContract",
          "type": "address"
        },
        {
          "internalType": "contract IStakingPool",
          "name": "stakingPoolContract",
          "type": "address"
        },
        {
          "internalType": "contract IGovernance",
          "name": "governanceContract",
          "type": "address"
        },
        {
          "internalType": "contract IChainConfig",
          "name": "chainConfigContract",
          "type": "address"
        },
        {
          "internalType": "contract IRuntimeUpgrade",
          "name": "runtimeUpgradeContract",
          "type": "address"
        },
        {
          "internalType": "contract IDeployerProxy",
          "name": "deployerProxyContract",
          "type": "address"
        }
      ],
      "stateMutability": "nonpayable",
      "type": "constructor"
    },
    {
      "inputs": [
        {
          "internalType": "uint64",
          "name": "blockNumber",
          "type": "uint64"
        }
      ],
      "name": "OnlyBlock",
      "type": "error"
    },
    {
      "inputs": [
        {
          "internalType": "address",
          "name": "coinbase",
          "type": "address"
        }
      ],
      "name": "OnlyCoinbase",
      "type": "error"
    },
    {
      "inputs": [],
      "name": "OnlyGovernance",
      "type": "error"
    },
    {
      "inputs": [],
      "name": "OnlySlashingIndicator",
      "type": "error"
    },
    {
      "anonymous": false,
      "inputs": [
        {
          "indexed": false,
          "internalType": "address",
          "name": "account",
          "type": "address"
        },
        {
          "indexed": false,
          "internalType": "uint16",
          "name": "share",
          "type": "uint16"
        }
      ],
      "name": "DistributionShareChanged",
      "type": "event"
    },
    {
      "anonymous": false,
      "inputs": [
        {
          "indexed": false,
          "internalType": "address",
          "name": "account",
          "type": "address"
        },
        {
          "indexed": false,
          "internalType": "uint256",
          "name": "amount",
          "type": "uint256"
        }
      ],
      "name": "FeeClaimed",
      "type": "event"
    },
    {
      "anonymous": false,
      "inputs": [
        {
          "indexed": false,
          "internalType": "uint8",
          "name": "version",
          "type": "uint8"
        }
      ],
      "name": "Initialized",
      "type": "event"
    },
    {
      "inputs": [],
      "name": "TREASURY_AUTO_CLAIM_THRESHOLD",
      "outputs": [
        {
          "internalType": "uint256",
          "name": "",
          "type": "uint256"
        }
      ],
      "stateMutability": "view",
      "type": "function"
    },
    {
      "inputs": [],
      "name": "TREASURY_MIN_CLAIM_THRESHOLD",
      "outputs": [
        {
          "internalType": "uint256",
          "name": "",
          "type": "uint256"
        }
      ],
      "stateMutability": "view",
      "type": "function"
    },
    {
      "inputs": [],
      "name": "init",
      "outputs": [],
      "stateMutability": "nonpayable",
      "type": "function"
    },
    {
      "inputs": [],
      "name": "isInitialized",
      "outputs": [
        {
          "internalType": "bool",
          "name": "",
          "type": "bool"
        }
      ],
      "stateMutability": "view",
      "type": "function"
    },
    {
      "inputs": [
        {
          "internalType": "bytes[]",
          "name": "data",
          "type": "bytes[]"
        }
      ],
      "name": "multicall",
      "outputs": [
        {
          "internalType": "bytes[]",
          "name": "results",
          "type": "bytes[]"
        }
      ],
      "stateMutability": "nonpayable",
      "type": "function"
    },
    {
      "inputs": [
        {
          "internalType": "bytes",
          "name": "delayedInitializer",
          "type": "bytes"
        }
      ],
      "name": "useDelayedInitializer",
      "outputs": [],
      "stateMutability": "nonpayable",
      "type": "function"
    },
    {
      "stateMutability": "payable",
      "type": "receive"
    },
    {
      "inputs": [
        {
          "internalType": "address[]",
          "name": "accounts",
          "type": "address[]"
        },
        {
          "internalType": "uint16[]",
          "name": "shares",
          "type": "uint16[]"
        }
      ],
      "name": "initialize",
      "outputs": [],
      "stateMutability": "nonpayable",
      "type": "function"
    },
    {
      "inputs": [],
      "name": "getDistributionShares",
      "outputs": [
        {
          "components": [
            {
              "internalType": "address",
              "name": "account",
              "type": "address"
            },
            {
              "internalType": "uint16",
              "name": "share",
              "type": "uint16"
            }
          ],
          "internalType": "struct SystemReward.DistributionShare[]",
          "name": "",
          "type": "tuple[]"
        }
      ],
      "stateMutability": "view",
      "type": "function"
    },
    {
      "inputs": [
        {
          "internalType": "address[]",
          "name": "accounts",
          "type": "address[]"
        },
        {
          "internalType": "uint16[]",
          "name": "shares",
          "type": "uint16[]"
        }
      ],
      "name": "updateDistributionShare",
      "outputs": [],
      "stateMutability": "nonpayable",
      "type": "function"
    },
    {
      "inputs": [],
      "name": "getSystemFee",
      "outputs": [
        {
          "internalType": "uint256",
          "name": "",
          "type": "uint256"
        }
      ],
      "stateMutability": "view",
      "type": "function"
    },
    {
      "inputs": [],
      "name": "claimSystemFee",
      "outputs": [],
      "stateMutability": "nonpayable",
      "type": "function"
    }
  ],
  "bytecode": "0x6101806040523480156200001257600080fd5b506040516200145d3803806200145d833981016040819052620000359162000179565b6001600160a01b0380891660805280881660a05280871660c05280861660e05280851661010052808416610120528083166101405281166101605287878787878787876200008262000098565b5050505050505050505050505050505062000288565b620000a460ff620000a7565b50565b60008054610100900460ff161562000110578160ff166001148015620000e05750620000de306200015460201b620007011760201c565b155b620001085760405162461bcd60e51b8152600401620000ff906200023a565b60405180910390fd5b506000919050565b60005460ff8084169116106200013a5760405162461bcd60e51b8152600401620000ff906200023a565b506000805460ff191660ff92909216919091179055600190565b6001600160a01b03163b151590565b6001600160a01b0381168114620000a457600080fd5b600080600080600080600080610100898b0312156200019757600080fd5b8851620001a48162000163565b60208a0151909850620001b78162000163565b60408a0151909750620001ca8162000163565b60608a0151909650620001dd8162000163565b60808a0151909550620001f08162000163565b60a08a0151909450620002038162000163565b60c08a0151909350620002168162000163565b60e08a0151909250620002298162000163565b809150509295985092959890939650565b6020808252602e908201527f496e697469616c697a61626c653a20636f6e747261637420697320616c72656160408201526d191e481a5b9a5d1a585b1a5e995960921b606082015260800190565b60805160a05160c05160e05161010051610120516101405161016051611184620002d960003960005050600050506000505060006104180152600050506000505060005050600050506111846000f3fe6080604052600436106100905760003560e01c806323056e99146100cd578063392e53cd146100f157806345cc7e32146101115780635ba41fd4146101315780635bf143e414610146578063929a55c0146101665780639ac51fab14610183578063ac9650d814610198578063c529d2f3146101c5578063cf5b2f9c146101e5578063e1c7392a1461020757600080fd5b366100c85734606560008282546100a79190610c43565b90915550506065546802b5e3af16b1880000116100c6576100c661021c565b005b600080fd5b3480156100d957600080fd5b506065545b6040519081526020015b60405180910390f35b3480156100fd57600080fd5b5060005460405190151581526020016100e8565b34801561011d57600080fd5b506100c661012c366004610ca6565b610390565b34801561013d57600080fd5b506100de600a81565b34801561015257600080fd5b506100c6610161366004610ca6565b61040d565b34801561017257600080fd5b506100de6802b5e3af16b188000081565b34801561018f57600080fd5b506100c6610468565b3480156101a457600080fd5b506101b86101b3366004610d11565b610472565b6040516100e89190610d7e565b3480156101d157600080fd5b506100c66101e0366004610e0e565b610565565b3480156101f157600080fd5b506101fa6105ae565b6040516100e89190610ebe565b34801561021357600080fd5b506100c6610625565b606554600a811161022a5750565b60006065556064546001600160a01b0316156102a1576064546001600160a01b03166102568183610710565b6064546040517f20ca5094f3a20c321cbe4123d0f01b276b81df0fa24cd4d83d9253956035d86391610295916001600160a01b03909116908590610f1a565b60405180910390a15050565b6000805b60665481101561037e576000606682815481106102c4576102c4610f33565b60009182526020808320604080518082019091529201546001600160a01b0381168352600160a01b900461ffff16908201819052909250612710906103099087610f49565b6103139190610f68565b9050610323826000015182610710565b81516040517f20ca5094f3a20c321cbe4123d0f01b276b81df0fa24cd4d83d9253956035d86391610355918490610f1a565b60405180910390a16103678185610c43565b93505050808061037690610f8a565b9150506102a5565b506103898183610fa3565b6065555050565b600061039c6001610826565b905080156103b4576000805461ff0019166101001790555b6103c0858585856108b5565b8015610406576000805461ff0019169055604051600181527f7f26b83ff96e1f2b6a682f133852f6798a09c465da95921460cefb38474024989060200160405180910390a15b5050505050565b336001600160a01b037f00000000000000000000000000000000000000000000000000000000000000001614610456576040516354348f0360e01b815260040160405180910390fd5b610462848484846108b5565b50505050565b61047061021c565b565b6060816001600160401b0381111561048c5761048c610df8565b6040519080825280602002602001820160405280156104bf57816020015b60608152602001906001900390816104aa5790505b50905060005b8281101561055e5761052e8484838181106104e2576104e2610f33565b90506020028101906104f49190610fba565b8080601f016020809104026020016040519081016040528093929190818152602001838380828437600092019190915250610b1692505050565b82828151811061054057610540610f33565b6020026020010181905250808061055690610f8a565b9150506104c5565b5092915050565b60004315610596576040516344f1a1fb60e01b81526001600160401b03821660048201526024015b60405180910390fd5b81516105a9906001906020850190610b94565b505050565b60606066805480602002602001604051908101604052809291908181526020016000905b8282101561061c57600084815260209081902060408051808201909152908401546001600160a01b0381168252600160a01b900461ffff16818301528252600190920191016105d2565b50505050905090565b6001438114610652576040516344f1a1fb60e01b81526001600160401b038216600482015260240161058d565b60006001805461066190611000565b905011156106fe576106fc6001805461067990611000565b80601f01602080910402602001604051908101604052809291908181526020018280546106a590611000565b80156106f25780601f106106c7576101008083540402835291602001916106f2565b820191906000526020600020905b8154815290600101906020018083116106d557829003601f168201915b5050505050610b16565b505b50565b6001600160a01b03163b151590565b804710156107605760405162461bcd60e51b815260206004820152601d60248201527f416464726573733a20696e73756666696369656e742062616c616e6365000000604482015260640161058d565b6000826001600160a01b03168260405160006040518083038185875af1925050503d80600081146107ad576040519150601f19603f3d011682016040523d82523d6000602084013e6107b2565b606091505b50509050806105a95760405162461bcd60e51b815260206004820152603a60248201527f416464726573733a20756e61626c6520746f2073656e642076616c75652c20726044820152791958da5c1a595b9d081b585e481a185d99481c995d995c9d195960321b606482015260840161058d565b60008054610100900460ff1615610874578160ff166001148015610850575061084e30610701565b155b61086c5760405162461bcd60e51b815260040161058d9061103a565b506000919050565b60005460ff80841691161061089b5760405162461bcd60e51b815260040161058d9061103a565b506000805460ff191660ff92909216919091179055600190565b8281146108f15760405162461bcd60e51b815260206004820152600a6024820152690c4c2c840d8cadccee8d60b31b604482015260640161058d565b6108f961021c565b6000805b84811015610ae757600086868381811061091957610919610f33565b905060200201602081019061092e9190611088565b9050600085858481811061094457610944610f33565b905060200201602081019061095991906110b8565b905061271061ffff821611156109815760405162461bcd60e51b815260040161058d906110dc565b6066548310610a0d57604080518082019091526001600160a01b03808416825261ffff808416602084019081526066805460018101825560009190915293517f46501879b8ca8525e8c2fd519e2fbfcfa2ebea26501294aa02cbfcfb12e9435490940180549151909216600160a01b026001600160b01b03199091169390921692909217179055610a81565b6040518060400160405280836001600160a01b031681526020018261ffff1681525060668481548110610a4257610a42610f33565b6000918252602091829020835191018054939092015161ffff16600160a01b026001600160b01b03199093166001600160a01b03909116179190911790555b604080516001600160a01b038416815261ffff831660208201527f55f2d69d9dbe97a29594a0106efd4f56ce72ec40b82d3583d53ef836e11bd00f910160405180910390a1610ad0818561110c565b935050508080610adf90610f8a565b9150506108fd565b5061ffff811661271014610b0d5760405162461bcd60e51b815260040161058d906110dc565b50505060665550565b6060600080306001600160a01b031684604051610b339190611132565b600060405180830381855af49150503d8060008114610b6e576040519150601f19603f3d011682016040523d82523d6000602084013e610b73565b606091505b50915091508115610b85579392505050565b8051156100c857805181602001fd5b828054610ba090611000565b90600052602060002090601f016020900481019282610bc25760008555610c08565b82601f10610bdb57805160ff1916838001178555610c08565b82800160010185558215610c08579182015b82811115610c08578251825591602001919060010190610bed565b50610c14929150610c18565b5090565b5b80821115610c145760008155600101610c19565b634e487b7160e01b600052601160045260246000fd5b60008219821115610c5657610c56610c2d565b500190565b60008083601f840112610c6d57600080fd5b5081356001600160401b03811115610c8457600080fd5b6020830191508360208260051b8501011115610c9f57600080fd5b9250929050565b60008060008060408587031215610cbc57600080fd5b84356001600160401b0380821115610cd357600080fd5b610cdf88838901610c5b565b90965094506020870135915080821115610cf857600080fd5b50610d0587828801610c5b565b95989497509550505050565b60008060208385031215610d2457600080fd5b82356001600160401b03811115610d3a57600080fd5b610d4685828601610c5b565b90969095509350505050565b60005b83811015610d6d578181015183820152602001610d55565b838111156104625750506000910152565b6000602080830181845280855180835260408601915060408160051b870101925083870160005b82811015610deb57878503603f1901845281518051808752610dcc818989018a8501610d52565b601f01601f191695909501860194509285019290850190600101610da5565b5092979650505050505050565b634e487b7160e01b600052604160045260246000fd5b600060208284031215610e2057600080fd5b81356001600160401b0380821115610e3757600080fd5b818401915084601f830112610e4b57600080fd5b813581811115610e5d57610e5d610df8565b604051601f8201601f19908116603f01168101908382118183101715610e8557610e85610df8565b81604052828152876020848701011115610e9e57600080fd5b826020860160208301376000928101602001929092525095945050505050565b602080825282518282018190526000919060409081850190868401855b82811015610f0d57815180516001600160a01b0316855286015161ffff16868501529284019290850190600101610edb565b5091979650505050505050565b6001600160a01b03929092168252602082015260400190565b634e487b7160e01b600052603260045260246000fd5b6000816000190483118215151615610f6357610f63610c2d565b500290565b600082610f8557634e487b7160e01b600052601260045260246000fd5b500490565b600060018201610f9c57610f9c610c2d565b5060010190565b600082821015610fb557610fb5610c2d565b500390565b6000808335601e19843603018112610fd157600080fd5b8301803591506001600160401b03821115610feb57600080fd5b602001915036819003821315610c9f57600080fd5b600181811c9082168061101457607f821691505b60208210810361103457634e487b7160e01b600052602260045260246000fd5b50919050565b6020808252602e908201527f496e697469616c697a61626c653a20636f6e747261637420697320616c72656160408201526d191e481a5b9a5d1a585b1a5e995960921b606082015260800190565b60006020828403121561109a57600080fd5b81356001600160a01b03811681146110b157600080fd5b9392505050565b6000602082840312156110ca57600080fd5b813561ffff811681146110b157600080fd5b6020808252601690820152753130b21039b430b932903234b9ba3934b13aba34b7b760511b604082015260600190565b600061ffff80831681851680830382111561112957611129610c2d565b01949350505050565b60008251611144818460208701610d52565b919091019291505056fea2646970667358221220d662539c4b4045f927425dc8b3091fb2b673421161511deba3227815a356a05764736f6c634300080e0033",
  "immutableReferences": {
    "7327": [
      {
        "length": 32,
        "start": 1048
      }
    ]
  },
  "source": "// SPDX-License-Identifier: GPL-3.0-only\npragma solidity ^0.8.0;\n\nimport \"@openzeppelin/contracts/utils/Address.sol\";\n\nimport \"./InjectorContextHolder.sol\";\n\ncontract SystemReward is ISystemReward, InjectorContextHolder {\n\n    /**\n     * Parlia has 100 ether limit for max fee, its better to enable auto claim\n     * for the system treasury otherwise it might cause lost of funds\n     */\n    uint256 public constant TREASURY_AUTO_CLAIM_THRESHOLD = 50 ether;\n    uint256 public constant TREASURY_MIN_CLAIM_THRESHOLD = 10 wei;\n    /**\n     * Here is min/max share values.\n     *\n     * Here is some examples:\n     * + 0.3% => 0.3*100=30\n     * + 3% => 3*100=300\n     * + 30% => 30*100=3000\n     */\n    uint16 internal constant SHARE_MIN_VALUE = 0; // 0%\n    uint16 internal constant SHARE_MAX_VALUE = 10000; // 100%\n\n    event DistributionShareChanged(address account, uint16 share);\n    event FeeClaimed(address account, uint256 amount);\n\n    // total system fee that is available for claim for system needs\n    address internal _systemTreasury;\n    uint256 internal _systemFee;\n\n    struct DistributionShare {\n        address account;\n        uint16 share;\n    }\n\n    // distribution share between holders\n    DistributionShare[] internal _distributionShares;\n\n    constructor(\n        IStaking stakingContract,\n        ISlashingIndicator slashingIndicatorContract,\n        ISystemReward systemRewardContract,\n        IStakingPool stakingPoolContract,\n        IGovernance governanceContract,\n        IChainConfig chainConfigContract,\n        IRuntimeUpgrade runtimeUpgradeContract,\n        IDeployerProxy deployerProxyContract\n    ) InjectorContextHolder(\n        stakingContract,\n        slashingIndicatorContract,\n        systemRewardContract,\n        stakingPoolContract,\n        governanceContract,\n        chainConfigContract,\n        runtimeUpgradeContract,\n        deployerProxyContract\n    ) {\n    }\n\n    function initialize(address[] calldata accounts, uint16[] calldata shares) external initializer {\n        _updateDistributionShare(accounts, shares);\n    }\n\n    function getDistributionShares() external view returns (DistributionShare[] memory) {\n        return _distributionShares;\n    }\n\n    function _updateDistributionShare(address[] calldata accounts, uint16[] calldata shares) internal {\n        require(accounts.length == shares.length, \"bad length\");\n        // force claim system fee before changing distribution share\n        _claimSystemFee();\n        uint16 totalShares = 0;\n        for (uint256 i = 0; i < accounts.length; i++) {\n            address account = accounts[i];\n            uint16 share = shares[i];\n            require(share >= SHARE_MIN_VALUE && share <= SHARE_MAX_VALUE, \"bad share distribution\");\n            if (i >= _distributionShares.length) {\n                _distributionShares.push(DistributionShare(account, share));\n            } else {\n                _distributionShares[i] = DistributionShare(account, share);\n            }\n            emit DistributionShareChanged(account, share);\n            totalShares += share;\n        }\n        require(totalShares == SHARE_MAX_VALUE, \"bad share distribution\");\n        assembly {\n            sstore(_distributionShares.slot, accounts.length)\n        }\n    }\n\n    function updateDistributionShare(address[] calldata accounts, uint16[] calldata shares) external virtual override onlyFromGovernance {\n        _updateDistributionShare(accounts, shares);\n    }\n\n    function getSystemFee() external view override returns (uint256) {\n        return _systemFee;\n    }\n\n    function claimSystemFee() external override {\n        _claimSystemFee();\n    }\n\n    receive() external payable {\n        // increase total system fee\n        _systemFee += msg.value;\n        // once max fee threshold is reached lets do force claim\n        if (_systemFee >= TREASURY_AUTO_CLAIM_THRESHOLD) {\n            _claimSystemFee();\n        }\n    }\n\n    function _claimSystemFee() internal {\n        uint256 amountToPay = _systemFee;\n        if (amountToPay <= TREASURY_MIN_CLAIM_THRESHOLD) {\n            return;\n        }\n        _systemFee = 0;\n        // if we have system treasury then its legacy scheme\n        if (_systemTreasury != address(0x00)) {\n            address payable payableTreasury = payable(_systemTreasury);\n            Address.sendValue(payableTreasury, amountToPay);\n            emit FeeClaimed(_systemTreasury, amountToPay);\n            return;\n        }\n        // distribute rewards based on the shares\n        uint256 totalPaid = 0;\n        for (uint256 i = 0; i < _distributionShares.length; i++) {\n            DistributionShare memory ds = _distributionShares[i];\n            uint256 accountFee = amountToPay * ds.share / SHARE_MAX_VALUE;\n            Address.sendValue(payable(ds.account), accountFee);\n            emit FeeClaimed(ds.account, accountFee);\n            totalPaid += accountFee;\n        }\n        // return some dust back to the acc\n        _systemFee = amountToPay - totalPaid;\n    }\n}",
  "sourcePath": "/Users/user/source/git/bas-genesis-config/contracts/SystemReward.sol",
  "compiler": {
    "name": "solc",
    "version": "0.8.14+commit.80d49f37.Emscripten.clang"
  },
  "schemaVersion": "3.4.4",
  "updatedAt": "2022-10-09T03:31:57.699Z",
  "devdoc": {
    "kind": "dev",
    "methods": {},
    "version": 1
  },
  "userdoc": {
    "kind": "user",
    "methods": {
      "TREASURY_AUTO_CLAIM_THRESHOLD()": {
        "notice": "Parlia has 100 ether limit for max fee, its better to enable auto claim for the system treasury otherwise it might cause lost of funds"
      }
    },
    "version": 1
  }
}